:100000000C944B000C94890E0C94890E0C94980857
:100010000C94A0090C9444090C94430E0C941C08F5
:100020000C94890E0C94890E0C94890E0C94890EF4
:100030000C94890E0C94890E0C94890E0C94890EE4
:100040000C94890E0C94890E0C94890E0C94890ED4
:100050000C94890E0C94AC0C0C94EB0D0C94740A5B
:100060000C94CC090C94890E0C94890E0C94890E76
:100070000C94890E0C94890E3800380880380838A2
:1000800022001D32382238368038363838001D4C70
:100090003838383C800011241FBECFEFCDBFDFE3DE
:1000A000DEBFE8E7F0E040E017C0B591A5913591DB
:1000B0002591059107FD0CC095918591EF01F92FD0
:1000C000E82F05900D92A217B307D9F7FE0104C0DF
:1000D0001D92A217B307E1F7E539F40731F70E9443
:0A00E000BF050C94130DF894FFCF38
:1000EA00A6E2B0E0EBE7F0E00C94FE0B8F8F98A34A
:1000FA006E8B7F8B288FFB010190F081E02DE987C1
:10010A00FA87FB0102811381248135812A8B3B8B7B
:10011A008085918589A39AA326803780FA018080F9
:10012A009180A280B38020E030E0A901C501B4012A
:10013A000E94480E87FF06C0B7FAB094B7F8B09489
:10014A008DE204C0598552FF0DC38BE2F101808311
:10015A002A893B89215031092B833C8341E050E0B5
:10016A00488B598B06C08A899B898B839C83188A02
:10017A00198AD501C401BF770097E0E8AE07EFE717
:10018A00BE0761F4F88D2F2FFF0F0E94280D18F477
:10019A006EEF7AE912C062E07BE90FC00197A048CE
:1001AA00BF4770F0488D242F440F0E94280D18F481
:1001BA0066E07BE902C06AE07BE90E949F0DC1C24A
:1001CA0020E030E0A901C501B4010E94480EC12C0B
:1001DA00D12C20E8E22E2FE3F22E19821A828823EC
:1001EA0009F474C08D829E82AF82B8860E942A0E5C
:1001FA000E94660E2B013C01D501C40184199509A0
:10020A00A609B709B7FF07C0B095A0959095819543
:10021A009F4FAF4FBF4F0297A105B10544F48981A3
:10022A009A81019689839A8373016201DFCFA501BE
:10023A009401C301B2010E94480E87FDF0CF8D815F
:10024A009E81AF81B8850E94080D08F43DC01D82C9
:10025A001E82A5019401C701B6010E944D0E18160F
:10026A000CF034C0E981FA81E43DFE4FE4F44D819B
:10027A005E81452BC1F420E030E040E85AE5C50133
:10028A00B4010E94660E4B015C0120E030E040E8B8
:10029A005AE5C701B6010E94660E6B017C0181E036
:1002AA0090E08D839E830E942A0E0E94620E6B014B
:1002BA007C01E981FA813197E983FA83D501C40186
:1002CA000E94080D08F0C5CF46015701288D022E5D
:1002DA00000C330B288F398FC9010E94970D8A8F22
:1002EA0017FD03C00D831E8304C046E050E04D8312
:1002FA005E835A8D573641F4012B09F038C281E0EA
:10030A0090E08D839E8333C24A8D4F8706C0298130
:10031A003A8137FF3EC256E65F878D819E810196FC
:10032A008D839E839F859636B9F4E981FA81F7FF1A
:10033A0008C0C12CD12C90E8E92E9FE3F92E19822E
:10034A001A82FA8DF73641F02D813E8149815A8110
:10035A00240F351F2D833E831C2DDDA2EBA20F2D0A
:10036A008B869C86AD86BE861C8A1D8A8C899D8951
:10037A00ED81FE818E179F079CF5212F3DA14BA190
:10038A00502F0E942F0E0E94620E0E9438052B01E8
:10039A003C010E94C30D6B8FA30192010E94340E8F
:1003AA000E94660E2B853C854D855E850E94BC0D9C
:1003BA009B01AC0150582B873C874D875E870E9472
:1003CA00390E0E94340E0E94620E162F7DA38BA353
:1003DA00092F4C895D894F5F5F4F4C8B5D8BC6CF70
:1003EA0020E030E040EA50E40E94340E0E94660E9B
:1003FA002B013C019B01AC010E942F0E0E94480E6A
:10040A0087FD0BC0A30192010E942F0E0E94480E85
:10041A00811106C0FB8DF0FD03C0412C512C320125
:10042A00A5019401C301B2010E94BD0D4B015C01FB
:10043A000E942A0E0E94660E6B877C8B182F092F4A
:10044A009B01482F592FC501B4010E944D0E87FD0B
:10045A0014C029813A812F5F3F4F29833A833F8510
:10046A00363679F44D815E814F5F5F4F4D835E83EF
:10047A005B855DA38C898EA30BC0CB86DC8A1E2D7F
:10048A000F2D9F85953639F0EB85EDA3FC89FEA3E8
:10049A00E980FA8006C02B852DA33C893EA3E12C76
:1004AA00F12C48885988C12CD12C1C8A1D8A1B869C
:1004BA001C8649855A85407155274BA35CA32B8519
:1004CA003C854D815E812417350734F08C899D89DE
:1004DA00892B09F492C09DC03201EE89FF8980857B
:1004EA00918505974816590688F72DA13EA1412FF7
:1004FA00502FC501B4010E94620E0E9438056B8F0D
:10050A007C8F8D8F9E8F0E94C30D6A30710514F007
:10051A0069E070E08BA19CA1892B69F461157105D2
:10052A0051F49A8D973639F4F7FE05C03601EFEF8C
:10053A006E1A7E0A38C02C893D89232B99F4F7FE5E
:10054A0011C03FEF431A530AF101E60DF71D4EE2BF
:10055A0040838B819C8101978B839C83E1E0F0E04F
:10056A00EC8BFD8BF101E40DF51D3601611471046C
:10057A0031F020E3219331E0631A7108F7CFC60105
:10058A00840D951D2B813C812C193D092C014FEFBF
:10059A00441A540AF101E80FF91F605D6083C9012A
:1005AA0001978B839C832B8D3C8D4D8D5E8D6DA128
:1005BA007EA1812F902F0E94660EA50194010E94B0
:1005CA00BC0D4B015C01B7FAB094B7F8B0940E9425
:1005DA00390E6DA17EA1812F902F0E94620E6DA30C
:1005EA007EA3182F092F91E0E91AF108EB85FC8503
:1005FA003196EB87FC87630162CFF985F4FF09C066
:10060A00F101E40DF51D8EE2808392012F5F3F4FC9
:10061A002901A101440D551D4D835E83FA01108203
:10062A00FF85F53609F061C0E9A1FAA1E20DF31DD3
:10063A003197108229813A8137FF08C03195219577
:10064A00310929833A8301E010E002C000E010E09A
:10065A00E9A1FAA13197E20DF31D22E030E08AE028
:10066A00E82EF12CCF018219930949815A81452B31
:10067A0091F089819A81B7010E94730C805D8293FF
:10068A0069837A83215031094B815C814150510938
:10069A004B835C83E7CF121613065CF3FC01319798
:1006AA00E20DF31D012B11F42BE201C02DE2208390
:1006BA000297B101680F791F288D398D21543109AC
:1006CA002A31310510F025E601C025E4FB0120831B
:1006DA002B813C81225031092B833C8348165906D1
:1006EA0024F48D819E810E949F0D398531FF29C096
:1006FA0030FD27C04B815C811416150614F5C10123
:10070A000E94C90C820D931D9C0122193309488944
:10071A005989241735074CF0FC012081EB81FC81B3
:10072A00E80FF91F20830197EFCF4B815C8160E3CB
:10073A0070E088899989820D931D0E944E0D1A8A4C
:10074A001B8AC1010E94C90C09851A852A893B891D
:10075A00AC01B1018F8D98A10E94D308A696E2E15F
:10076A000C94170C598553FFFECC80E2EFCC89819B
:10077A009A818C3F9F4F54F0E981FA812D813E8105
:10078A00E217F3070CF4C3CD35E604C0F5E6FF879C
:08079A00E3CD36E63F87E0CD18
:1007A200AEE0B0E0E7EDF3E00C94010C4C016B011C
:1007B20019821A828FEF9FEF8B839C831D821E8288
:1007C2004F83588729873A87A12CB12CD6016D9087
:1007D2007C90F301EA0DFB1D808181110FC0D601CF
:1007E200ED93FC938081853209F03CC13F01BFEF5C
:1007F2006B1A7B0AF6016082718219C0853279F325
:10080200B401082E000C990B0E94D3074FEFA41AD3
:10081200B40ADCCF8C32ACF08D32F9F489819A8142
:10082200816089839A833196D601ED93FC93D60138
:10083200ED91FC9180818B3269F789819A81846084
:10084200F0CF803221F489819A818860EACF8332A5
:1008520051F489819A818061E4CF803321F48981C6
:100862009A818260DECFB701C6010E944B0A8D8356
:100872009E8397FF0BC029813A81B1E02B27298300
:100882003A839195819591098D839E8389819A817D
:1008920080FF03C08D7F89839A83D601ED91FC91FD
:1008A200119780818E3249F43196ED93FC93B70112
:1008B200C6010E944B0A8B839C83C6010E944A0B8D
:1008C200582ED601ED91FC918081082E000C990BD7
:1008D2000E94970D893609F42FC084F4833609F4F7
:1008E20087C034F4853209F494C08136E1F09DC0AA
:1008F200843611F188360CF472C097C0803709F43F
:1009020044C03CF48E3609F45AC08F3609F42DC027
:100912008CC0853709F41EC0883709F42FC083378D
:1009220009F083C06CC00E94450D09F499C00E9471
:10093200200E0E94000091C0652D70E0970141E0F9
:1009420050E00E94E50D09F48BC00E94250E0E9422
:10095200000083C00E94670D09F482C00E945F0DEF
:100962000E94710E0E94000078C00E94670D09F477
:1009720077C00E94250E0E9400006FC00E94670D82
:1009820009F46EC00E941E0D15C0970140E050E0B0
:1009920060EF70E00E94E50D09F462C00E94740EDF
:1009A2008B859C85892B29F420E030E04BED5CE9B6
:1009B2004EC028E70E94710E0E9400004EC0A501A1
:1009C200400F511F652D70E09701CE010B960E94DA
:1009D2000000892B09F444C00E945F0D43C00E94AD
:1009E200450D09F43DC00E94200E0E94750035C0DD
:1009F200B0E85B1235C00E94DF0D808114C0B0E800
:100A02005B122EC00E94DF0D4081518120E030E058
:100A12001EC0B0E85B1224C0F601208131812F5F35
:100A22003F4F208331838B870DC085E28B87D601B0
:100A32006D927C9219821A821D821E828FEF9FEF25
:100A42008B839C8321E030E0AE01455F5F4FBE01A6
:100A52006F5F7F4FC4010E94210A8A0D9B1D03C054
:0E0A62000E94740EC5012E96EFE00C941A0C43
:100A70004F925F926F927F928F929F92AF92BF92AE
:100A8000CF92DF92EF92FF92CF93DF93CDB7DEB795
:100A90002897CDBFDEBF6B017C01DC01CB0147E1B4
:100AA000B695A795979587954A95D1F799278F572A
:100AB0009109873191056CF597FD30C088248A949F
:100AC000982C3FE7A32EB12C04C0B594A79497941B
:100AD00087948A95D2F7D501C4018C219D21AE213E
:100AE000BF21892B8A2B8B2BA1F00E943C0D6D839B
:100AF0007E838F839887F7FE04C0C80CD91CEA1C3C
:100B0000FB1C80949094A094B094C820D920EA2033
:100B1000FB205C2D4D2D3E2D2F2D1BC00E943C0D2A
:100B200069837A838B839C83F7FE0FC0D701C6014C
:100B3000880F991FAA1FBB1F892B8A2B8B2B49F368
:100B400050E040E030E82FEB04C050E040E030E0FF
:100B500020E0652F742F832F922F2896CDBFDEBF04
:100B6000DF91CF91FF90EF90DF90CF90BF90AF904B
:0E0B70009F908F907F906F905F904F900895B0
:100B7E000E945F0C86E59EE00E943E0E809100066C
:100B8E008E7F8093000681E0809307068091000699
:100B9E008168809300060E94320D80E00E94770EDD
:100BAE00C6ECD5E980E8B82E07ED15E99AEEE92EE8
:100BBE0095E9F92E25EFC22E25E9D22E0E94830E3D
:100BCE00882399F00E94800E0E94BB0C0E94E40CB8
:100BDE009F938F93DF93CF930E942F0C0E94F70D5C
:100BEE000F900F900F900F9031C00E947D0E8823B2
:100BFE0069F10E947A0E0E94AE0D2B013C01B0925B
:100C0E0027040E94E40C9F938F931F930F930E94CF
:100C1E002F0CFF92EF920E942F0C0E948F0DC3019A
:100C2E00B2010E940C0923E333E343E55AE30E9429
:100C3E00660E9F938F937F936F93DF92CF920E9456
:100C4E002F0C8DB79EB70C968DBF9EBF0E948F0D39
:0E0C5E000E94830E8111B2CF88950000AFCFA7
:100C6C0010C00E94D10D58F00E94CA0D40F029F41A
:100C7C005F3F29F00C94150E51110C94D90D0C9466
:100C8C00860E0E94280B68F39923B1F3552391F338
:100C9C00951B550BBB27AA2762177307840738F0DF
:100CAC009F5F5F4F220F331F441FAA1FA9F333D03E
:100CBC000E2E3AF0E0E830D091505040E695001CF2
:100CCC00CAF729D0FE2F27D0660F771F881FBB1FAE
:100CDC00261737074807AB07B0E809F0BB0B802D88
:100CEC00BF01FF2793585F4F3AF09E3F510568F0C4
:100CFC000C94150E0C94D90D5F3FE4F3983ED4F38D
:100D0C0086950E941B0E9F5FD9F7880F911D9695B3
:100D1C00879597F90895E1E0660F771F881FBB1F31
:100D2C00621773078407BA0720F0621B730B840BDE
:0A0D3C00BA0BEE1F88F7E09508954A
:100D46000FC00E94CA0D38F00E94D10D20F09523E5
:100D560011F00C94150E0C94860E11240C94D90DDA
:100D66000E94280B70F3959FC1F3950F50E0551F15
:100D7600629FF001729FBB27F00DB11D639FAA27EA
:100D8600F00DB11DAA1F649F6627B00DA11D661F39
:100D9600829F2227B00DA11D621F739FB00DA11D5A
:100DA600621F839FA00D611D221F749F3327A00D14
:100DB600611D231F849F600D211D822F762F6A2FB0
:100DC60011249F5750409AF0E1F088234AF0EE0F25
:100DD600FF1FBB1F661F771F881F91505040A9F742
:100DE6009E3F510570F00C94150E0C94D90D5F3F83
:100DF600E4F3983ED4F386950E941B0EE7959F5F19
:100E0600D1F7FE2B880F911D9695879597F9089532
:100E160011C00E94CA0D38F00E94D10D20F039F49D
:100E26009F3F19F426F40C94860E0EF4E095E7FB2A
:100E36000C94150EE92F0E94280B58F3BA17620777
:100E460073078407950720F079F4A6F50C94D80D5E
:100E56000EF4E0950B2EBA2FA02D0B01B9019001CF
:100E66000C01CA01A0011124FF27591B99F0593F13
:100E760050F4503E58F11A16F040A22F232F342F6B
:100E86004427585FF3CF469537952795A795F040A9
:100E96005395C9F77EF41F16BA0B620B730B840BBE
:100EA600AAF0915091F0FF0FBB1F661F771F881F96
:100EB600C2F70CC0BA0F621F731F841F38F48795E0
:100EC6000E941B0E9E3F08F0B2CF9395880F08F044
:0A0ED6009927EE0F97958795089570
:100EE000CF93DF93C0E0D4E01882A0E2B4E084E8BE
:100EF0008C93E0E4F4E010821C8284E014968C93DE
:100F000014971482188A198A1A8A1B8A1C8A1D8AC5
:100F10001E8A1F8A50961C92509751961C92519788
:100F200052961C92529753961C92539754961C9229
:100F3000549755961C92559756961C9256975796CD
:100F40001C92108A118A128A138A88E8848B158A67
:100F5000168A178AE0EEF5E011821082138214825D
:100F60001582128280E99EE080932C3890932D3870
:100F700081E99EE080932A3890932B3882E99EE0A5
:100F800080932838909329388FE89EE08093263804
:100F9000909327388EE89EE08093243890932538EC
:060FA000DF91CF910895DE
:100FA6000F931F93CF93DF93DB012D913C91119704
:100FB60030FF25C016964D915C91179714962D918A
:100FC6003C9115974217530778F41296ED91FC91D0
:100FD6001397808312962D913C9113972F5F3F4F65
:100FE60012962D933C93139716962D913C91179735
:100FF6002F5F3F4F16962D933C93179715C01C965F
:10100600ED91FC911D97309719F48FEF9FEF0CC06F
:101016008B01EC010995892BC1F7F801868197812F
:10102600019686839783CE01DF91CF911F910F9111
:0210360008951B
:101038001F920F920FB60F9211242F933F934F9345
:101048005F936F937F938F939F93AF93BF93EF9328
:10105800FF933B9B05C0E0912C38F0912D38099502
:101068003A9B05C0E0912A38F0912B3809953D9BB1
:1010780005C0E0912838F091293809953F9B05C0B3
:10108800E0912438F091253809958FEF87B9FF91C1
:10109800EF91BF91AF919F918F917F916F915F91E8
:1010A8004F913F912F910F900FBE0F901F90189561
:1010B800A2E8B0E0E2E6F8E00C94040C5C014A0116
:1010C800CF57DF4F68837983C158D040C12CD12CCA
:1010D800CF57DF4FE881F981C158D04080818823FC
:1010E800E9F07401860120E830E0AE014F5F5F4F00
:1010F800BE016F577F4FC5010E94D1038C0D9D1D06
:101108008C159D054CF48FE490E0809306389093FD
:1011180007388FEF9FEF03C06C01DACFC601CE57B7
:08112800DF4FECE00C941D0CFC
:101130001F920F920FB60F9211242F933F934F934C
:101140005F936F937F938F939F93AF93BF93EF932F
:10115000FF938091430180FF07C0E0913238F09106
:101160003338309709F009958091430181FF07C01A
:10117000E0913038F0913138309709F0099583E0EB
:1011800080934301FF91EF91BF91AF919F918F9118
:101190007F916F915F914F913F912F910F900FBE73
:0611A0000F901F9018954E
:1011A600A0E0B0E0E9EDF8E00C94040C6C015B0102
:1011B6007A01E901480181E08822992400FD03C0F3
:1011C6004217530750F0A701B501C6010E94AA0BAA
:1011D600EC16FD0610F0C70117C08E010E191F0987
:1011E6000115110541F0B60180E290E00E94D30797
:1011F60001501109F5CF8114910429F4A701B50115
:10120600C6010E94AA0BCE01CDB7DEB7ECE00C9466
:021216001D0CAD
:10121800E89404C097FB16F40E94570D9923A9F08F
:10122800F92F96E9BB279395F69587957795679556
:10123800B795F111F8CFFAF4BB0F11F460FF1BC09A
:101248006F5F7F4F8F4F9F4F16C0882311F096E92D
:1012580011C0772321F09EE8872F762F05C06623DB
:1012680071F096E8862F70E060E02AF09A95660F94
:10127800771F881FDAF7880F9695879597F908954D
:101288001F920F920FB60F9211242F933F934F93F3
:101298005F936F937F938F939F93AF93BF93EF93D6
:1012A800FF938091C70181FF05C0E0912238F0913A
:1012B8002338099582E08093C701FF91EF91BF9190
:1012C800AF919F918F917F916F915F914F913F91D6
:0C12D8002F910F900FBE0F901F901895E3
:1012E400E0E0F8E086EB92E080879187158280EC5D
:1012F400868383E08783138614861686158685E99C
:101304009EE0809302389093033884E99EE08093B2
:1013140000389093013883E99EE0809304389093D9
:1013240005381092343810923538E0913638F091FF
:0C133400373888E098E3808391830895A7
:101340001F920F920FB60F9211242F933F934F933A
:101350005F936F937F938F939F93AF93BF93EF931D
:10136000FF93E0912E38F0912F38309709F00995CE
:1013700081E080935301FF91EF91BF91AF919F91D5
:101380008F917F916F915F914F913F912F910F902E
:081390000FBE0F901F9018958D
:101398001F920F920FB60F9211242F933F934F93E2
:1013A8005F936F937F938F939F93AF93BF93EF93C5
:1013B800FF935C9B05C0E0912638F091273809958A
:1013C8008FEF8BB9FF91EF91BF91AF919F918F9163
:1013D8007F916F915F914F913F912F910F900FBE29
:0613E8000F901F90189504
:1013EE000E94300B88F09F5798F0B92F9927B7516C
:1013FE00B0F0E1F0660F771F881F991F1AF0BA95AB
:10140E00C9F714C0B13091F00E94D80DB1E0089523
:10141E000C94D80D672F782F8827B85F39F0B93F15
:10142E00CCF3869577956795B395D9F716F40E9408
:04143E00570D0895A9
:10144200A0E0B0E0E7E2FAE00C94060C7C01FB01BC
:10145200EA01C901A280B380C480D58000811181D4
:10146200209711F4C4EDDCE9009719F4CE010E9433
:10147200C90CB7FC04C0A816B90608F4C501960148
:10148200AC01BE01C7010E94D308CDB7DEB7EAE0C6
:041492000C941F0C8B
:10149600DC01ED91FC91119780818A3221F080E088
:1014A60090E03AE009C03196ED93FC93DB010E948F
:1014B600770D808191810895ED91FC91119720819E
:1014C60020532A3068F4389FA001399F500D11240B
:1014D600CA01820F911D3196ED93FC931197ECCFC3
:0214E600089567
:1014E8001F920F920FB60F9211242F933F934F9391
:1014F8005F936F937F938F939F93AF93BF93EF9374
:10150800FF930E945A0E82E080930506FF91EF91A7
:10151800BF91AF919F918F917F916F915F914F9103
:0E1528003F912F910F900FBE0F901F901895BE
:10153600E0ECF1E084E0858317821186128690E55F
:1015460095871686118A128A158A168A1182128240
:1015560013868787138A178A8CE080878DEA8487AB
:10156600108A148A81E480838DE89EE08093223875
:081576009093233880E00895F2
:10157E00990F0008550FAA0BE0E8FEEF1616170696
:10158E00E807F907C0F012161306E407F50798F0FE
:10159E00621B730B840B950B39F40A2661F0232B17
:1015AE00242B252B21F408950A2609F4A140A69593
:0815BE008FEF811D811D0895CE
:1015C6004E6577204761696E3A2025730A0D0A0D2C
:1015D6000043757272656E74204761696E3A202504
:1015E600730A0D004D656173757265643A200025B6
:1015F600312E3366560A0D0A0D00310032003400D2
:05160600380031360040
:10160C00E0E8F1E08BE0808B85E2818B128A138A13
:10161C00148A158A81E0808380A710A211A212A2DD
:10162C0013A214A215A216A217A211A612A613A6F3
:10163C0016A617A610AA11AA12AA13AA14A615A6C2
:04164C0080E008959D
:1016500057FD9058440F551F59F05F3F71F0479563
:10166000880F97FB991F61F09F3F79F08795089548
:10167000121613061406551FF2CF4695F1DF08C067
:10168000161617061806991FF1CF86957105610584
:04169000089408951D
:10169400CF93DF93EC0190E0E92FF0E0EE0FFF1F12
:1016A400E650F6468081811102C081810EC0A88176
:1016B400B9812C91821305C091811196A883B983B5
:1016C40001C09F5F9B3040F3892FDF91CF91089534
:1016D400E0E4F1E0809141018111FACF8FE790E0DD
:1016E40084879587108611868FEF90E08287938791
:1016F40081E0809347011092420180915101811150
:10170400FCCF1092520181E08093500180E0089553
:10171400FA0160387105CCF0623871051CF0633849
:10172400710599F4A081B1819D012C5F3F4F208305
:1017340031834D915D916D917C91FC014083518386
:101744006283738381E090E0089580E090E00895DF
:10175400A0E0B0E0E0EBFBE00C94080C6C01EB01C2
:101764008A017B01E40EF51ECE15DF0541F0899157
:10177400B601082E000C990B0E94D307F5CFC801BF
:0A178400CDB7DEB7E8E00C94210CAD
:10178E00E0E0F6E01182118680E18283138284E626
:10179E00808789E18387178284E1828782E0848350
:1017AE0088E4848780E78587168E178E148E158EB3
:0817BE0081E0808380E00895C2
:1017C60040E068ED80E690E00E94520E45E168ED4B
:1017D60081E60E94F10D82E60E94F10D83E60E94E9
:1017E600F10D80E70E94F10D88E70E94F10D8CE76C
:0617F60090E00C94520E7D
:1017FC002F923F924F925F926F927F928F929F9215
:10180C00AF92BF92CF92DF92EF92FF920F931F9302
:10181C00CF93DF93CDB7DEB7CA1BDB0BCDBFDEBFDB
:02182C0009941D
:10182E002A88398848885F846E847D848C849B8462
:10183E00AA84B984C884DF80EE80FD800C811B8170
:10184E00AA81B981CE0FD11DCDBFDEBFED010895A6
:10185E00A0E0B0E0E5E3FCE00C940E0CAE014B5FB3
:10186E005F4FFA0161917191AF01E0913638F091BD
:10187E003738808191810E94470CE2E00C94270C4E
:10188E00A2E0B0E0EDE4FCE00C940C0C8C0149837A
:10189E005A83AE014F5F5F4F0E945C08F8012081B2
:1018AE0024FF02C08FEF9FEF2296E4E00C94250CEC
:1018BE000E94E30B0E9470070E94C70B0E949B0AB6
:1018CE000E94060B0E946A0B0E94870D0E947209ED
:0818DE000E940F0E0C94D70CC0
:1018E60097FB072E16F4009407D077FD09D00E94C7
:1018F600870C07FC05D03EF4909581959F4F08957F
:08190600709561957F4F089573
:10190E00AA1BBB1B51E107C0AA1FBB1FA617B70717
:10191E0010F0A61BB70B881F991F5A95A9F7809533
:08192E009095BC01CD01089564
:10193600092E0394000C11F4882352F0BB0F40F4D7
:10194600BF2B11F460FF04C06F5F7F4F8F4F9F4F17
:021956000895F2
:101958008F93EF93FF93E0E0F6E080E2858380E1E8
:0E196800858388E08583FF91EF918F9118951C
:1019760080910B068295869587708F5F853009F476
:0C19860080E08295880F807E0C94B50DE7
:10199200FC01AF014F5F5F4F2081222311F0FA015A
:0C19A200F8CF9F01281B390BC9010895E4
:1019AE0040E068ED80E191E00E94520EE0E1F1E04E
:0A19BE0012821382789480E00895ED
:1019C800E0910B06E295E695E770F0E0EE0FFF1F59
:0A19D800E85EF74C808191810895CC
:1019E200CF93C82F0E94030E8823E1F3C09302080D
:0819F20080E090E0CF91089520
:1019FA0068076C094C836A9074A07AC00080688872
:061A0A0000846C820081E3
:101A10008C199D09AE09BF090196A11DB11D03973F
:061A2000A105B1050895C7
:101A2600EC010E94970E0E94960ECE010E94980E1F
:061A3600CE010E948B0EA0
:101A3C00D601ED91FC911197CF0101968D939C935A
:041A4C002081089558
:101A5000330B2154310988899989820D931D2A31CC
:041A600031050895AF
:101A64008091410180FDFCCF809140018168809389
:041A74004001089590
:101A780020E030E040E85BE7C701B6010E94BD0DF9
:021A88000895BF
:101A8A00652D70E0A701CE010B960E948A0B892B67
:021A9A000895AD
:101A9C00FC01480F591FE417F50711F06193FBCFB8
:021AAC0008959B
:101AAE0090958095709561957F4F8F4F9F4F0895BC
:101ABE00D6018D919C91119701968D939C930895CB
:101ACE00652D70E0970140E050E00E94E50D08950D
:101ADE00AE01455F5F4FBE016F5F7F4FC40108953A
:101AEE00ED91FC911197CF0102968D939C930895E1
:101AFE00494E4600696E66004E414E006E616E00A4
:101B0E0043E068ED80E590E00E94520E80E008957B
:101B1E000E94090E8823E1F380E48093040808955F
:101B2E009C01215431092A31310508F4806208954F
:101B3E00FC01DB012D91BD0121932111FACF0895F6
:0E1B4E00F60180819181019680839183089534
:0E1B5C00E0E1F6E0608171818281938108955D
:0E1B6A00E0E0F6E093859F71892B8387089554
:0E1B78005058BB27AA270E940B070C949B0C09
:0E1B86000E94F7096894B1110C94D90D0895CE
:0E1B940000240A94161617061806090608956E
:0E1BA20000240A941216130614060506089570
:0E1BB000E894BB2766277727CB0197F90895A5
:0C1BBE000E94A70DD7010E94770D08952A
:0C1BCA00CE010B960E940000892B0895AC
:0C1BD6008F9381E0809305068F91189595
:0C1BE20090E00E94520E40E068ED089573
:0C1BEE00E0E4F1E08081816080830895D4
:0C1BFA00E0E4F1E080818E7F808308959C
:0C1C06008091040885FB882780F9089570
:0C1C12008091040886FB882780F9089563
:0C1C1E00E0EAF0E01082118280E00895FE
:0C1C2A0097F99F6780E870E060E0089583
:0A1C360077956795B795F795089527
:0A1C40000E941E0D0E946F0D089512
:0A1C4A000E94A70D0E946F0D08957F
:0A1C54000E94390EC701B601089581
:0A1C5E006B857C858D859E850895B9
:0A1C6800612F7DA18BA1902F08953C
:0A1C720020E030E040E251E4089564
:0A1C7C0080932238909323380895D6
:0A1C86008F938FEF83B98F911895AB
:0A1C90000E94BF0A08F481E00895E5
:0A1C9A000E94BF0A08F48FEF0895BE
:081CA400FC0164BF40830895B8
:081CAC000E94FD0D0C945E0E78
:081CB40081E080933B380895A4
:081CBC0081E080933A3808959D
:081CC4000E9436060C949B0CF3
:081CCC000E94A3060C949B0C7E
:071CD400286E756C6C2900FD
:061CDB00286E696C29006F
:061CE2000E946F0D089541
:061CE8000E94A70D089503
:061CEE0080930208089536
:061CF40010923B38089538
:061CFA0080913B380895C3
:061D000010923A3808952C
:061D060080913A380895B7
:061D0C009FEF80EC08953A
:041D12000C9400002D
:041D16000E947300B4
:021D1A0008952A
:021D1C00089528
:021D1E00089526
:021D2000089524
:021D2200089522
:021D2400089520
:021D260008951E
:021D280008951C
:021D2A0008951A
:021D2C00089518
:021D2E00089516
:021D3000089514
:101D3200030000000000000000000000F10C0000A1
:0A1D42000096029604960696089695
:021D4C00383825
:02000004008278
:090000000000020000C40700002A
:00000001FF
