:100000000C9445000C94DD060C94DD060C949003D2
:100010000C9404040C9485040C942B060C94CB03D0
:100020000C94DD060C94DD060C94DD060C94DD06C4
:100030000C94DD060C94DD060C94DD060C94DD06B4
:100040000C94DD060C94DD060C94DD060C94DD06A4
:100050000C94DD060C94AC050C941C060C94AE04B8
:100060000C9430040C94DD060C94DD060C94DD0633
:100070000C94DD060C94DD0638003806803806380E
:100080001E000DC6381E382E800011241FBECFEF73
:10009000CDBFDFE3DEBFE8E7F0E040E017C0B59199
:1000A000A59135912591059107FD0CC095918591FC
:1000B000EF01F92FE82F05900D92A217B307D9F79A
:1000C000FE0104C01D92A217B307E1F7E938F40757
:0E00D00031F70E94FF020C946D00F894FFCFF0
:1000DE00ABE0B0E0E5E7F0E00C9493056C017B013A
:1000EE008A01FC0116821782838181FFBFC1CE0176
:1000FE0001963C01F6019381F7010E949A0688232E
:10010E0009F4B0C1853221F40E949A06853229F491
:10011E00B60190E00E945403EDCF912C212C312C8E
:10012E00FFE1F315D8F08B3279F038F4803279F0A4
:10013E008332A1F4232D20611DC08D3261F08033F6
:10014E0069F4232D216016C0832D8260382EE32D95
:10015E00E4603E2E2AC0F32DF8601DC037FC2AC085
:10016E0020ED280F2A3040F08E32B9F436FC7AC1D9
:10017E00232D2064322E19C036FE06C08AE0989ECA
:10018E00200D1124922E11C0EAE02E9E200D112476
:10019E00222EF32DF0623F2E08C08C3621F4832DD3
:1001AE008068382E02C0883629F4F7010E949A061C
:1001BE008111B6CF982F9F7D9554933028F40C5F04
:1001CE001F4F9FE399830DC0833631F0833771F053
:1001DE00833509F059C021C0F801808189830E5FF3
:1001EE001F4F88248394912C530113C02801F2E0F1
:1001FE004F0E511CF801A080B18036FE03C0692D50
:10020E0070E002C06FEF7FEFC5010E9478064C01CF
:10021E008201F32DFF773F2E16C0280122E0420EF9
:10022E00511CF801A080B18036FE03C0692D70E02C
:10023E0002C06FEF7FEFC5010E946D064C01F32DDA
:10024E00F0683F2E820133FC1BC0822D90E0881691
:10025E009906B0F4B60180E290E00E9454032A940D
:10026E00F4CFF50137FC859137FE81915F01B60120
:10027E0090E00E94540321102A9421E0821A9108E2
:10028E008114910471F7E4C0843611F0893631F58A
:10029E00F80137FE05C00E94BD060C5F1F4F08C057
:1002AE0060817181072E000C880B990B0E5F1F4F1A
:1002BE00F32DFF763F2E97FF09C090958095709590
:1002CE0061957F4F8F4F9F4FF0683F2E2AE030E0B1
:1002DE00A3010E94A102882E861843C0853731F4EF
:1002EE00232D2F7EB22E2AE030E025C0932D997F4C
:1002FE00B92E8F36C1F018F4883579F0B3C0803737
:10030E0019F0883721F0AEC0E92FE061BE2EB4FEA1
:10031E000DC0FB2DF460BF2E09C034FE0AC0292F7C
:10032E002660B22E06C028E030E005C020E130E0A5
:10033E0002C020E132E0F801B7FE05C00E94BD0602
:10034E000C5F1F4F06C06081718180E090E00E5FF0
:10035E001F4FA3010E94A102882E8618FB2DFF7746
:10036E003F2E36FE0DC0232D2E7FA22E891458F45B
:10037E0034FE0BC032FC09C0832D8E7EA82E05C024
:10038E00B82CA32C03C0B82C01C0B92CA4FE0FC0EE
:10039E00FE01E80DF11D8081803321F49A2D997EA6
:1003AE00A92E09C0A2FE06C0B394B39404C08A2D30
:1003BE00867809F0B394A3FC11C0A0FE06C0B21457
:1003CE0088F4280C922C9B180EC0B21460F4B6015F
:1003DE0080E290E00E945403B394F7CFB21418F465
:1003EE002B1802C0982C212CA4FE10C0B60180E35D
:1003FE0090E00E945403A2FE17C0A1FC03C088E740
:10040E0090E002C088E590E0B6010CC08A2D867897
:10041E0059F0A1FE02C08BE201C080E2A7FC8DE282
:10042E00B60190E00E945403891438F4B60180E3BB
:10043E0090E00E9454039A94F7CF8A94F301E80D4A
:10044E00F11D8081B60190E00E9454038110F5CF1A
:10045E00222009F44FCEB60180E290E00E945403B0
:10046E002A94F6CFF6018681978102C08FEF9FEF17
:08047E002B96E2E10C94C40589
:10048600CF93DF930E947705C0E0D4E01882A0E204
:10049600B4E084E88C93E0E4F4E010821C821496C5
:1004A6001C9214971482188A198A1A8A1B8A1C8A23
:1004B6001D8A1E8A1F8A50961C92509751961C922E
:1004C600519752961C92529753961C925397549654
:1004D6001C92549755961C92559756961C92569771
:1004E60057961C92108A118A128A138A88E8848B7E
:1004F600158A168A178AE0EEF5E0118210821382B9
:1005060014821582128281EE96E0809324389093AD
:10051600253882EE96E0809322389093233880EE39
:1005260096E080932038909321388FED96E0809363
:0C0536001E3890931F38DF91CF9108957C
:10054200FA01AA27283051F1203181F1E8946F9302
:100552006E7F6E5F7F4F8F4F9F4FAF4FB1E03ED0A8
:10056200B4E03CD0670F781F891F9A1FA11D680F46
:10057200791F8A1F911DA11D6A0F711D811D911D79
:10058200A11D20D009F468943F912AE0269F1124EE
:100592003019305D3193DEF6CF010895462F477052
:1005A200405D4193B3E00FD0C9F7F6CF462F4F70AD
:1005B200405D4A3318F0495D31FD4052419302D00B
:1005C200A9F7EACFB4E0A6959795879577956795B1
:1005D200BA95C9F700976105710508959B01AC01B1
:1005E2000A2E06945795479537952795BA95C9F7D8
:0C05F200620F731F841F951FA01D089549
:1005FE000E9408061092000681EA8093000680E0B1
:10060E000E94CE0680E8C82EC1E0DAE804E11AE8BE
:10061E0090EFE92E99E8F92E20E4D22E0E94DA0608
:10062E00882399F00E94D7060E9439060E9454062C
:10063E009F938F93FF92EF920E94F2050E94A00665
:10064E000F900F900F900F901FC00E94D40688231A
:10065E00D9F00E94D106C09227040E9454069F939F
:10066E008F93DF93CF930E94F2050E94B8069F935B
:10067E008F937F936F931F930F930E94F2058DB705
:10068E009EB70A968DBF9EBF0E948B068111FCCF2E
:0A069E00D092040888950000C1CF37
:1006A8000F931F93CF93DF93FB01238121FD03C099
:1006B8008FEF9FEF2CC022FF16C0468157812481FF
:1006C80035814217530744F4A081B1819D012F5F02
:1006D8003F4F208331838C93268137812F5F3F4F93
:1006E8002683378314C08B01EC01FB010084F1855C
:1006F800E02D0995892BE1F6D80116968D919C91EC
:100708001797019616968D939C931797CE01DF91B4
:08071800CF911F910F9108958C
:100720001F920F920FB60F9211242F933F934F9366
:100730005F936F937F938F939F93AF93BF93EF9349
:10074000FF938091430180FF07C0E0912A38F09128
:100750002B38309709F009958091430181FF07C03C
:10076000E0912838F0912938309709F0099583E015
:1007700080934301FF91EF91BF91AF919F918F9132
:100780007F916F915F914F913F912F910F900FBE8D
:060790000F901F90189568
:100796001F920F920FB60F9211242F933F934F93F0
:1007A6005F936F937F938F939F93AF93BF93EF93D3
:1007B600FF933A9B05C0E0912438F09125380995BE
:1007C6003D9B05C0E0912238F091233809953F9B67
:1007D60005C0E0911E38F0911F3809958FEF87B953
:1007E600FF91EF91BF91AF919F918F917F916F9103
:1007F6005F914F913F912F910F900FBE0F901F90D9
:02080600189543
:100808001F920F920FB60F9211242F933F934F937D
:100818005F936F937F938F939F93AF93BF93EF9360
:10082800FF93E0912638F0912738309709F0099521
:1008380081E080935301FF91EF91BF91AF919F9118
:100848008F917F916F915F914F913F912F910F9071
:080858000FBE0F901F901895D0
:100860001F920F920FB60F9211242F933F934F9325
:100870005F936F937F938F939F93AF93BF93EF9308
:10088000FF935C9B05C0E0912038F09121380995D9
:100890008FEF8BB9FF91EF91BF91AF919F918F91A6
:1008A0007F916F915F914F913F912F910F900FBE6C
:0608B0000F901F90189547
:1008B60040E068ED80E690E00E94C20645E168ED02
:1008C60081E690E00E94C20640E068ED82E690E094
:1008D6000E94C20640E068ED83E690E00E94C206F0
:1008E60040E068ED80E790E00E94C20640E068EDD7
:1008F60088E790E00E94C20640E068ED8CE790E051
:040906000C94C20685
:10090A001F920F920FB60F9211242F933F934F937A
:10091A005F936F937F938F939F93AF93BF93EF935D
:10092A00FF930E94A6060E94CA0682E08093C7012E
:10093A00FF91EF91BF91AF919F918F917F916F91AD
:10094A005F914F913F912F910F900FBE0F901F9083
:02095A001895EE
:10095C001F920F920FB60F9211242F933F934F9328
:10096C005F936F937F938F939F93AF93BF93EF930B
:10097C00FF930E94C60682E080930506FF91EF91DB
:10098C00BF91AF919F918F917F916F915F914F919B
:0E099C003F912F910F900FBE0F901F90189556
:1009AA00E0E4F1E0809141018111FACF8FE790E014
:1009BA0084879587108611868FEF90E082879387C8
:1009CA0081E0809347011092420181E180934001C6
:1009DA00809151018111FCCF1092520181E08093E4
:0609EA00500180E00895B9
:1009F0004E6577204761696E3A2025730A0D0A0D0E
:100A00000043757272656E74204761696E3A2025E5
:100A1000730A0D004D6561737572656D656E743A8C
:100A200020307825580A0D0A0D00310032003400BC
:050A3000380031360022
:100A3600E0E8F1E08BE0808B85E2818B128A138AF5
:100A4600148A158A81E0808380A710A211A212A2BF
:100A560013A214A215A216A217A211A612A613A6D5
:100A660016A617A610AA11AA12AA13AA14A615A6A4
:040A760080E008957F
:100A7A00E0ECF1E084E0858317821186128690E526
:100A8A0095871686118A128A158A168A1182128207
:100A9A0013868787138A178A8CE080878DEA848772
:0C0AAA00108A148A81E4808380E00895A3
:100AB600E0E0F6E01182118680E1828313828FEFF7
:100AC600808789E18387178284E1828782E0848335
:100AD60088E4848780E78587168E178E148E158E98
:080AE60081E0808380E00895A7
:100AEE00E0E1F4E0808188608193E83184E0F807EA
:100AFE00C9F7E0E3F4E0808188608193E83384E015
:100B0E00F807C9F7E0E5F4E0808188608193E83565
:080B1E0084E0F807C9F708950F
:100B26002F923F924F925F926F927F928F929F92F7
:100B3600AF92BF92CF92DF92EF92FF920F931F93E5
:100B4600CF93DF93CDB7DEB7CA1BDB0BCDBFDEBFBE
:020B5600099400
:100B58001F920F920FB60F9211248F93EF93FF936A
:100B6800E0E0F6E080E2858380E1858388E08583A4
:100B7800FF91EF918F910F900FBE0F901F901895D6
:100B88002A88398848885F846E847D848C849B8415
:100B9800AA84B984C884DF80EE80FD800C811B8123
:100BA800AA81B981CE0FD11DCDBFDEBFED01089559
:100BB800E0E0F8E086EB92E080879187158280E498
:100BC800868383E08783138614861686158686E0D7
:0C0BD80098E3809302389093033808954E
:100BE400A0E0B0E0E8EFF5E00C94A305AE014B5FA4
:100BF4005F4FFA0161917191AF0180910238909138
:0C0C040003380E946F00E2E00C94D4055D
:100C10000E945B040E9443020E945B050E943D0506
:100C20000E941B050E94D5040E9483060E94DC05D9
:080C30000E94B2060C94470675
:100C38001F920F920FB60F9211248F9381E0809329
:0E0C480005068F910F900FBE0F901F9018950C
:100C56001F920F920FB60F9211248F938FEF83B9C5
:0C0C66008F910F900FBE0F901F901895FB
:100C720080910B068295869587708F5F853009F487
:0C0C820080E08295880F807E0C94930621
:100C8E0040E068ED80E191E00E94C206E0E1F1E013
:0A0C9E0012821382789480E008951A
:100CA800E0910B06E295E695E770F0E0EE0FFF1F86
:0A0CB800EC5EF74C808191810895F5
:100CC200CF93C82F0E94AC068823E1F3C093020899
:080CD20080E090E0CF9108954D
:100CDA00FC010590615070400110D8F780959095FD
:060CEA008E0F9F1F08950C
:100CF000FC016150704001900110D8F780959095EB
:060D00008E0F9F1F0895F5
:100D060043E068ED80E590E00E94C20680E0089529
:100D16008091040886FB882780F991E08927089549
:0E0D2600E0E0F6E093859F71892B83870895A6
:0C0D340093FD859193FF81917F0108954C
:0C0D4000E0E4F1E0808181608083089590
:0C0D4C00E0E4F1E080818E7F8083089558
:0C0D58008091040885FB882780F908952D
:0C0D6400E0EAF0E01082118280E00895C7
:0A0D7000E0E1F6E00E94BD060895E0
:0A0D7A0060817181828193810895E8
:080D8400FC0164BF40830895E7
:080D8C0081E080932D380895E9
:080D940081E080932C380895E2
:060D9C0080930208089597
:060DA20010922D380895A7
:060DA80080912D38089532
:060DAE0010922C3808959C
:060DB40080912C38089527
:040DBA000C94000095
:020DBE00089596
:020DC000089594
:020DC200089592
:020DC400089590
:0E0DC6000000000200000000610600000000B6
:0A0DD4002A8A2C8A2E8A308A328A7D
:02000004008278
:090000000000020000C40700002A
:00000001FF
