:100000000C9445000C94E0060C94E0060C948C03D0
:100010000C9400040C94AB040C942E060C94C703AF
:100020000C94E0060C94E0060C94E0060C94E006B8
:100030000C94E0060C94E0060C94E0060C94E006A8
:100040000C94E0060C94E0060C94E0060C94E00698
:100050000C94E0060C94AF050C941F060C94570406
:100060000C942C040C94E0060C94E0060C94E0062E
:100070000C94E0060C94E006380038068038063808
:100080001E000DCC381E382E800011241FBECFEF6D
:10009000CDBFDFE3DEBFE8E7F0E040E017C0B59199
:1000A000A59135912591059107FD0CC095918591FC
:1000B000EF01F92FE82F05900D92A217B307D9F79A
:1000C000FE0104C01D92A217B307E1F7E938F40757
:0E00D00031F70E94FF020C946D00F894FFCFF0
:1000DE00ABE0B0E0E5E7F0E00C9496056C017B0137
:1000EE008A01FC0116821782838181FFBFC1CE0176
:1000FE0001963C01F6019381F7010E949D0688232B
:10010E0009F4B0C1853221F40E949D06853229F48E
:10011E00B60190E00E945003EDCF912C212C312C92
:10012E00FFE1F315D8F08B3279F038F4803279F0A4
:10013E008332A1F4232D20611DC08D3261F08033F6
:10014E0069F4232D216016C0832D8260382EE32D95
:10015E00E4603E2E2AC0F32DF8601DC037FC2AC085
:10016E0020ED280F2A3040F08E32B9F436FC7AC1D9
:10017E00232D2064322E19C036FE06C08AE0989ECA
:10018E00200D1124922E11C0EAE02E9E200D112476
:10019E00222EF32DF0623F2E08C08C3621F4832DD3
:1001AE008068382E02C0883629F4F7010E949D0619
:1001BE008111B6CF982F9F7D9554933028F40C5F04
:1001CE001F4F9FE399830DC0833631F0833771F053
:1001DE00833509F059C021C0F801808189830E5FF3
:1001EE001F4F88248394912C530113C02801F2E0F1
:1001FE004F0E511CF801A080B18036FE03C0692D50
:10020E0070E002C06FEF7FEFC5010E947B064C01CC
:10021E008201F32DFF773F2E16C0280122E0420EF9
:10022E00511CF801A080B18036FE03C0692D70E02C
:10023E0002C06FEF7FEFC5010E9470064C01F32DD7
:10024E00F0683F2E820133FC1BC0822D90E0881691
:10025E009906B0F4B60180E290E00E9450032A9411
:10026E00F4CFF50137FC859137FE81915F01B60120
:10027E0090E00E94500321102A9421E0821A9108E6
:10028E008114910471F7E4C0843611F0893631F58A
:10029E00F80137FE05C00E94C0060C5F1F4F08C054
:1002AE0060817181072E000C880B990B0E5F1F4F1A
:1002BE00F32DFF763F2E97FF09C090958095709590
:1002CE0061957F4F8F4F9F4FF0683F2E2AE030E0B1
:1002DE00A3010E94A102882E861843C0853731F4EF
:1002EE00232D2F7EB22E2AE030E025C0932D997F4C
:1002FE00B92E8F36C1F018F4883579F0B3C0803737
:10030E0019F0883721F0AEC0E92FE061BE2EB4FEA1
:10031E000DC0FB2DF460BF2E09C034FE0AC0292F7C
:10032E002660B22E06C028E030E005C020E130E0A5
:10033E0002C020E132E0F801B7FE05C00E94C006FF
:10034E000C5F1F4F06C06081718180E090E00E5FF0
:10035E001F4FA3010E94A102882E8618FB2DFF7746
:10036E003F2E36FE0DC0232D2E7FA22E891458F45B
:10037E0034FE0BC032FC09C0832D8E7EA82E05C024
:10038E00B82CA32C03C0B82C01C0B92CA4FE0FC0EE
:10039E00FE01E80DF11D8081803321F49A2D997EA6
:1003AE00A92E09C0A2FE06C0B394B39404C08A2D30
:1003BE00867809F0B394A3FC11C0A0FE06C0B21457
:1003CE0088F4280C922C9B180EC0B21460F4B6015F
:1003DE0080E290E00E945003B394F7CFB21418F469
:1003EE002B1802C0982C212CA4FE10C0B60180E35D
:1003FE0090E00E945003A2FE17C0A1FC03C088E744
:10040E0090E002C088E590E0B6010CC08A2D867897
:10041E0059F0A1FE02C08BE201C080E2A7FC8DE282
:10042E00B60190E00E945003891438F4B60180E3BF
:10043E0090E00E9450039A94F7CF8A94F301E80D4E
:10044E00F11D8081B60190E00E9450038110F5CF1E
:10045E00222009F44FCEB60180E290E00E945003B4
:10046E002A94F6CFF6018681978102C08FEF9FEF17
:08047E002B96E2E10C94C70586
:10048600CF93DF930E947A05C0E0D4E01882A0E201
:10049600B4E084E88C93E0E4F4E010821C821496C5
:1004A6001C9214971482188A198A1A8A1B8A1C8A23
:1004B6001D8A1E8A1F8A50961C92509751961C922E
:1004C600519752961C92529753961C925397549654
:1004D6001C92549755961C92559756961C92569771
:1004E60057961C92108A118A128A138A88E8848B7E
:1004F600158A168A178AE0EEF5E0118210821382B9
:1005060014821582128284EE96E0809324389093AA
:10051600253885EE96E0809322389093233883EE33
:1005260096E0809320389093213882EE96E080936F
:0C0536001E3890931F38DF91CF9108957C
:10054200FA01AA27283051F1203181F1E8946F9302
:100552006E7F6E5F7F4F8F4F9F4FAF4FB1E03ED0A8
:10056200B4E03CD0670F781F891F9A1FA11D680F46
:10057200791F8A1F911DA11D6A0F711D811D911D79
:10058200A11D20D009F468943F912AE0269F1124EE
:100592003019305D3193DEF6CF010895462F477052
:1005A200405D4193B3E00FD0C9F7F6CF462F4F70AD
:1005B200405D4A3318F0495D31FD4052419302D00B
:1005C200A9F7EACFB4E0A6959795879577956795B1
:1005D200BA95C9F700976105710508959B01AC01B1
:1005E2000A2E06945795479537952795BA95C9F7D8
:0C05F200620F731F841F951FA01D089549
:1005FE000E940B061092000681EA8093000680E0AE
:10060E000E94D106C9EBD9E80CEC19E888EAE82E6D
:10061E0089E8F82E90E4D92E0E94DD06882399F001
:10062E000E94DA060E943C060E9457069F938F9303
:10063E00FF92EF920E94F5050E94A3060F900F9075
:10064E000F900F901DC00E94D7068823C9F00E94FC
:10065E00D4060E9457069F938F93DF93CF930E94E9
:10066E00F5050E94BB069F938F937F936F931F9305
:10067E000F930E94F5058DB79EB70A968DBF9EBF4C
:10068E000E948E068111FCCFD0920408889500003E
:02069E00C3CFC8
:1006A0000F931F93CF93DF93FB01238121FD03C0A1
:1006B0008FEF9FEF2CC022FF16C046815781248107
:1006C00035814217530744F4A081B1819D012F5F0A
:1006D0003F4F208331838C93268137812F5F3F4F9B
:1006E0002683378314C08B01EC01FB010084F18564
:1006F000E02D0995892BE1F6D80116968D919C91F4
:100700001797019616968D939C931797CE01DF91BC
:08071000CF911F910F91089594
:100718001F920F920FB60F9211242F933F934F936E
:100728005F936F937F938F939F93AF93BF93EF9351
:10073800FF938091430180FF07C0E0912A38F09130
:100748002B38309709F009958091430181FF07C044
:10075800E0912838F0912938309709F0099583E01D
:1007680080934301FF91EF91BF91AF919F918F913A
:100778007F916F915F914F913F912F910F900FBE95
:060788000F901F90189570
:10078E001F920F920FB60F9211242F933F934F93F8
:10079E005F936F937F938F939F93AF93BF93EF93DB
:1007AE00FF933A9B05C0E0912438F09125380995C6
:1007BE003D9B05C0E0912238F091233809953F9B6F
:1007CE0005C0E0911E38F0911F3809958FEF87B95B
:1007DE00FF91EF91BF91AF919F918F917F916F910B
:1007EE005F914F913F912F910F900FBE0F901F90E1
:0207FE0018954C
:100800001F920F920FB60F9211242F933F934F9385
:100810005F936F937F938F939F93AF93BF93EF9368
:10082000FF93E0912638F0912738309709F0099529
:1008300081E080935301FF91EF91BF91AF919F9120
:100840008F917F916F915F914F913F912F910F9079
:080850000FBE0F901F901895D8
:100858001F920F920FB60F9211242F933F934F932D
:100868005F936F937F938F939F93AF93BF93EF9310
:10087800FF935C9B05C0E0912038F09121380995E1
:100888008FEF8BB9FF91EF91BF91AF919F918F91AE
:100898007F916F915F914F913F912F910F900FBE74
:0608A8000F901F9018954F
:1008AE001F920F920FB60F9211242F933F934F93D7
:1008BE005F936F937F938F939F93AF93BF93EF93BA
:1008CE00FF930E94C90680E88093270482E08093FC
:1008DE000506FF91EF91BF91AF919F918F917F91FF
:1008EE006F915F914F913F912F910F900FBE0F908F
:0408FE001F9018959A
:1009020040E068ED80E690E00E94C50645E168EDB2
:1009120081E690E00E94C50640E068ED82E690E044
:100922000E94C50640E068ED83E690E00E94C5069D
:1009320040E068ED80E790E00E94C50640E068ED87
:1009420088E790E00E94C50640E068ED8CE790E001
:040952000C94C50636
:100956001F920F920FB60F9211242F933F934F932E
:100966005F936F937F938F939F93AF93BF93EF9311
:10097600FF930E94A9060E94CD0682E08093C701DC
:10098600FF91EF91BF91AF919F918F917F916F9161
:100996005F914F913F912F910F900FBE0F901F9037
:0209A6001895A2
:1009A8004E6577204761696E3A2025730A0D0A0D56
:1009B8000043757272656E74204761696E3A20252E
:1009C800730A0D004D6561737572656D656E7420EF
:1009D800287369676E6564293A20307825580A0DAE
:0E09E8000A0D003100320034003800313600B4
:1009F600E0E4F1E0809141018111FACF8FE790E0C8
:100A060084879587108611868FEF90E0828793877B
:100A160081E0809347011092420181E18093400179
:100A2600809151018111FCCF1092520181E0809397
:060A3600500180E008956C
:100A3C00E0E8F1E08BE0808B85E2818B128A138AEF
:100A4C00148A158A81E0808380A710A211A212A2B9
:100A5C0013A214A215A216A217A211A612A613A6CF
:100A6C0016A617A610AA11AA12AA13AA14A615A69E
:040A7C0080E0089579
:100A8000E0ECF1E084E0858317821186128690E520
:100A900095871686118A128A158A168A1182128201
:100AA00013868787138A178A8CE080878DEA84876C
:0C0AB000108A148A81E4808380E008959D
:100ABC00E0E0F6E01182118680E1828313828FEFF1
:100ACC00808789E18387178284E1828782E084832F
:100ADC0088E4848780E78587168E178E148E158E92
:080AEC0081E0808380E00895A1
:100AF400E0E1F4E0808188608193E83184E0F807E4
:100B0400C9F7E0E3F4E0808188608193E83384E00E
:100B1400F807C9F7E0E5F4E0808188608193E8355F
:080B240084E0F807C9F7089509
:100B2C002F923F924F925F926F927F928F929F92F1
:100B3C00AF92BF92CF92DF92EF92FF920F931F93DF
:100B4C00CF93DF93CDB7DEB7CA1BDB0BCDBFDEBFB8
:020B5C000994FA
:100B5E001F920F920FB60F9211248F93EF93FF9364
:100B6E00E0E0F6E080E2858380E1858388E085839E
:100B7E00FF91EF918F910F900FBE0F901F901895D0
:100B8E002A88398848885F846E847D848C849B840F
:100B9E00AA84B984C884DF80EE80FD800C811B811D
:100BAE00AA81B981CE0FD11DCDBFDEBFED01089553
:100BBE00E0E0F8E086EB92E080879187158280E492
:100BCE00868383E08783138614861686158686E0D1
:0C0BDE0098E38093023890930338089548
:100BEA00A0E0B0E0EBEFF5E00C94A605AE014B5F98
:100BFA005F4FFA0161917191AF0180910238909132
:0C0C0A0003380E946F00E2E00C94D70554
:100C16000E9481040E9443020E945E050E944005D4
:100C26000E941E050E94FB040E9486060E94DF05A4
:080C36000E94B5060C944A0669
:100C3E001F920F920FB60F9211248F9381E0809323
:0E0C4E0005068F910F900FBE0F901F90189506
:100C5C001F920F920FB60F9211248F938FEF83B9BF
:0C0C6C008F910F900FBE0F901F901895F5
:100C780080910B068295869587708F5F853009F481
:0C0C880080E08295880F807E0C94960618
:100C940040E068ED80E191E00E94C506E0E1F1E00A
:0A0CA40012821382789480E0089514
:100CAE00E0910B06E295E695E770F0E0EE0FFF1F80
:0A0CBE00EC5EF74C808191810895EF
:100CC800CF93C82F0E94AF068823E1F3C093020890
:080CD80080E090E0CF91089547
:100CE000FC010590615070400110D8F780959095F7
:060CF0008E0F9F1F089506
:100CF600FC016150704001900110D8F780959095E5
:060D06008E0F9F1F0895EF
:100D0C0043E068ED80E590E00E94C50680E0089520
:100D1C008091040886FB882780F991E08927089543
:0E0D2C00E0E0F6E093859F71892B83870895A0
:0C0D3A0093FD859193FF81917F01089546
:0C0D4600E0E4F1E080818160808308958A
:0C0D5200E0E4F1E080818E7F8083089552
:0C0D5E008091040885FB882780F9089527
:0C0D6A00E0EAF0E01082118280E00895C1
:0A0D7600E0E1F6E00E94C0060895D7
:0A0D800060817181828193810895E2
:080D8A00FC0164BF40830895E1
:080D920081E080932D380895E3
:080D9A0081E080932C380895DC
:060DA20080930208089591
:060DA80010922D380895A1
:060DAE0080912D3808952C
:060DB40010922C38089596
:060DBA0080912C38089521
:040DC0000C9400008F
:020DC400089590
:020DC60008958E
:020DC80008958C
:020DCA0008958A
:0E0DCC000000000200000000640600000000AD
:0A0DDA00EB89ED89EF89F189F389B7
:02000004008278
:090000000000020000C40700002A
:00000001FF
