:100000000C944B000C94610F0C94610F0C945E09DE
:100010000C94660A0C940A0A0C941B0F0C94E208C8
:100020000C94610F0C94610F0C94610F0C94610F90
:100030000C94610F0C94610F0C94610F0C94610F80
:100040000C94610F0C94610F0C94610F0C94610F70
:100050000C94610F0C94920D0C94C80E0C943A0BF6
:100060000C94920A0C94610F0C94610F0C94610F24
:100070000C94610F0C94610F3800380880380838F0
:1000800022001EE2382238368038363838001EFC0E
:100090003838383C800011241FBECFEFCDBFDFE3DE
:1000A000DEBFE8E7F0E040E017C0B591A5913591DB
:1000B0002591059107FD0CC095918591EF01F92FD0
:1000C000E82F05900D92A217B307D9F7FE0104C0DF
:1000D0001D92A217B307E1F7E539F40731F70E9443
:0A00E0008B060C94050EF894FFCF78
:1000EA00A8E2B0E0EBE7F0E00C94E40C89A39AA351
:1000FA00688F798F2A8FFB010190F081E02DED87BF
:10010A00FE87FB010280F381E02DEB83FC83FB0178
:10011A000480F581E02DEC8BFD8BFB010084F185D9
:10012A00E02DEDA3FEA3FB010680F781E02DE98314
:10013A00FA83FA01408051806280738020E030E0C7
:10014A00A901C301B2010E94200F87FF06C077FAF6
:10015A00709477F870948DE204C0FD85F2FF45C370
:10016A008BE2E981FA8180832C893D89215031090A
:10017A002F83388741E050E04A8B5B8B06C08C891D
:10018A009D898F8398871A8A1B8AD301C201BF77F8
:10019A000097E0E8AE07EFE7BE07C9F42A8D022E02
:1001AA00000C330B2154310989819A814A895B8970
:1001BA00840F951F2A31310518F46AEB7CE902C0D5
:1001CA006EEB7CE90E94750E8EEB9CE9FDC20197ED
:1001DA00A048BF47E8F08A8D082E000C990B81547D
:1001EA0091098B839C8389819A81EA89FB898E0F85
:1001FA009F1F2B813C812A31310518F462EC7CE97E
:10020A0002C066EC7CE90E94750E86EC9CE9DCC2B1
:10021A0020E030E0A901C301B2010E94200F812C25
:10022A00912C20E8A22E2FE3B22E212C312C8823E8
:10023A0009F480C049865A866B867C860E940C0F18
:10024A000E943E0F6B017C01D301C2018C199D09EA
:10025A00AE09BF09B7FF07C0B095A09590958195E3
:10026A009F4FAF4FBF4F0297A105B10534F43FEF3F
:10027A00231A330A46015701E1CFA3019201C701AC
:10028A00B6010E94200F87FDF2CFC984DA84EB847D
:10029A00FC84C818D908EA08FB084FEFC41AD40A24
:1002AA00E40AF40A53E0C516D104E104F10408F49F
:1002BA003FC000E010E0A3019201C501B4010E9411
:1002CA00250F1816BCF584ED28168EEF3806CCF4E7
:1002DA0001151105B1F420E030E040E85AE5C30108
:1002EA00B2010E943E0F2B013C0120E030E040E8C1
:1002FA005AE5C501B4010E943E0F4B015C0101E0C1
:10030A0010E00E940C0F0E943A0F4B015C0191E031
:10031A00291A3108D301C20188199909AA09BB0906
:10032A000196A11DB11D0397A105B10508F0C3CF20
:10033A0024013501EA8D0E2E000CFF0BEA8FFB8F8C
:10034A00CF010E946D0E88A32B813C8137FD03C02B
:10035A0029873A8704C046E050E049875A8758A15E
:10036A00573649F48B819C81892B41F4E1E0F0E016
:10037A00E987FA8703C048A1498B10C02CEF2216DF
:10038A002FEF32060CF436C229853A852216330637
:10039A000CF030C237FE31C256E6598B89859A85F0
:1003AA00019689879A879989963699F437FE08C003
:1003BA00812C912C90E8A92E9FE3B92E212C312C67
:1003CA00E8A1E73631F029853A85220D331D2987C0
:1003DA003A8788A69FA2AB82BF86730162011E8AF2
:1003EA001F8A8E899F89E985FA858E179F0774F57A
:1003FA0028A53FA14B815F85C701B6010E94FA0D6E
:10040A006BA38701760117FB109517F9109528A59C
:10041A003FA14B815F850E94840E6B017C01F7FA34
:10042A00F094F7F8F0940E94110F68A57FA18B81D0
:10043A009F850E943A0F68A77FA38B839F874E8967
:10044A005F894F5F5F4F4E8B5F8BCBCF20E030E0F1
:10045A0040EA50E468A57FA18B819F850E943E0FE8
:10046A006B837C838D839E839B01AC01C701B6019C
:10047A000E94200F87FD0DC02B813C814D815E813A
:10048A00C701B6010E94200F811107C0FBA1F0FD30
:10049A0004C01B821C821D821E82A30192016B81F1
:1004AA007C818D819E810E949A0E2B013C010E94C3
:1004BA000C0F0E943E0F6B837F87D82EC92E9B019B
:1004CA00482F592FC301B2010E94250F87FD11C081
:1004DA002FEF221A320A3989363679F449855A8534
:1004EA004F5F5F4F49875A875B815FA38F8588A7D4
:1004FA000BC08B829F86DA2CCB2C9989953631F0EA
:10050A00EB81EFA3FF85F8A7410106C02B812FA33A
:10051A003F8538A7812C912CAA88BB88E12CF12C25
:10052A001E8A1F8A1F86188A4D855E854071552747
:10053A004BA35CA3EF85F88929853A85E217F3076F
:10054A0034F04E895F89452B09F492C09EC085011B
:10055A00E88DF98D808591850597A816B90688F7E3
:10056A002FA138A54D2D5C2DC301B2010E94FA0DB1
:10057A006A30710514F069E070E08BA19CA1892BA7
:10058A0069F46115710551F498A1973639F497FE0B
:10059A0005C0F7013196EB83FC8341C02E893F8960
:1005AA00232BA1F497FE12C03FEFA31AB30AE981E5
:1005BA00FA81E00FF11F4EE240838F8198850197FF
:1005CA008F839887E1E0F0E0EE8BFF8BE981FA8177
:1005DA00EA0DFB1DEB82FC828B819C81892B49F001
:1005EA0020E321934B815C81415051094B835C8309
:1005FA00F3CFC7018A0D9B1D2F8138852E193F091C
:10060A005C01EFEFAE1ABE0AE981FA81E80FF91F21
:10061A00605D6083A901415051094F835887830166
:10062A00720117FB109517F910952FA138A54D2DBA
:10063A005C2D0E94840E2B013C0177FA709477F8A6
:10064A0070940E94110F6FA178A58D2D9C2D0E9488
:10065A003A0F6FA378A7D82EC92E51E0851A9108B0
:10066A008F85988901968F87988BEB80FC8062CF63
:10067A00FD85F4FF0AC0E981FA81EA0DFB1D8EE2CD
:10068A00808395012F5F3F4F590149815A814A0D55
:10069A005B1D4B835C83FA011082F989F53609F0F8
:1006AA0060C0E981FA812DA13EA1E20FF31F3197C3
:1006BA00108237FE06C031942194310801E010E01F
:1006CA0002C000E010E0EDA1FEA1319749815A81F4
:1006DA00E40FF51F22E030E08AE0E82EF12CCF018A
:1006EA0049815A81841B950B2114310479F0C10187
:1006FA00B7010E94590D805D82931B012150310977
:10070A008F81988501978F839887E9CF12161306F0
:10071A0074F3FC013197E40FF51F012B11F42BE25E
:10072A0001C02DE22083029769817A81680F791FBF
:10073A002A8D3B8D215431092A31310510F025E6E5
:10074A0001C025E4FB0120832F813885225031091D
:10075A002F833887A816B90624F48B819C810E94BE
:10076A00750E3D8531FF2EC030FD2CC04F81588556
:10077A00141615063CF589819A810E94AF0DE9810C
:10078A00FA818E0F9F1F9C0149815A81241B350BC8
:10079A00EA89FB892E173F074CF0FC012081EF8183
:1007AA00F885E80FF91F20830197EDCF4F8158850F
:1007BA0060E370E089819A818E0F9F1F0E942C0E40
:1007CA001C8A1D8A89819A810E94AF0D0D851E851A
:1007DA002C893D89AC0169817A8189A19AA10E94FB
:1007EA009909A896E2E10C94FD0C5D8553FFC7CCEC
:1007FA0080E2B7CC35E6398BECCD46E6498BE9CDBC
:10080A00AEE0B0E0EBE0F4E00C94E70C4C016B01D5
:10081A0019821A828FEF9FEF8B839C831D821E821F
:10082A004F83588729873A87A12CB12CD6016D901E
:10083A007C90F301EA0DFB1D808181110FC0D60166
:10084A00ED93FC938081853209F03CC13F01BFEFF3
:10085A006B1A7B0AF6016082718219C0853279F3BC
:10086A00B401082E000C990B0E9499084FEFA41AA4
:10087A00B40ADCCF8C32ACF08D32F9F489819A81DA
:10088A00816089839A833196D601ED93FC93D601D0
:10089A00ED91FC9180818B3269F789819A8184601C
:1008AA00F0CF803221F489819A818860EACF83323D
:1008BA0051F489819A818061E4CF803321F489815E
:1008CA009A818260DECFB701C6010E94110B8D8327
:1008DA009E8397FF0BC029813A81B1E02B27298398
:1008EA003A839195819591098D839E8389819A8115
:1008FA0080FF03C08D7F89839A83D601ED91FC9195
:10090A00119780818E3249F43196ED93FC93B701A9
:10091A00C6010E94110B8B839C83C6010E94320C74
:10092A00582ED601ED91FC918081082E000C990B6E
:10093A000E946D0E893609F42FC084F4833609F4B7
:10094A0087C034F4853209F494C08136E1F09DC041
:10095A00843611F188360CF472C097C0803709F4D6
:10096A0044C03CF48E3609F45AC08F3609F42DC0BF
:10097A008CC0853709F41EC0883709F42FC0833725
:10098A0009F083C06CC00E94230E09F499C00E942A
:10099A00020F0E94000091C0652D70E0970141E0AE
:1009AA0050E00E94C20E09F48BC00E94070F0E94F9
:1009BA00000083C00E94450E09F482C00E943D0EC9
:1009CA000E94490F0E94000078C00E94450E09F457
:1009DA0077C00E94070F0E9400006FC00E94450E58
:1009EA0009F46EC00E94100E15C0970140E050E055
:1009FA0060EF70E00E94C20E09F462C00E944C0FC0
:100A0A008B859C85892B29F420E030E04BE85EE950
:100A1A004EC028E70E94490F0E9400004EC0A5015F
:100A2A00400F511F652D70E09701CE010B960E9471
:100A3A000000892B09F444C00E943D0E43C00E9465
:100A4A00230E09F43DC00E94020F0E94750035C0B2
:100A5A00B0E85B1235C00E94BC0E808114C0B0E8B9
:100A6A005B122EC00E94BC0E4081518120E030E012
:100A7A001EC0B0E85B1224C0F601208131812F5FCD
:100A8A003F4F208331838B870DC085E28B87D60148
:100A9A006D927C9219821A821D821E828FEF9FEFBD
:100AAA008B839C8321E030E0AE01455F5F4FBE013E
:100ABA006F5F7F4FC4010E94E70A8A0D9B1D03C026
:0E0ACA000E944C0FC5012E96EFE00C94000D1B
:100AD800A5E1B0E0E2E7F5E00C94E40C4701580129
:100AE8000E943E0F2B013C01A80197010E949A0E1B
:100AF800162FC72ED82EF92E862F9C2DAD2DBF2D43
:100B080089839A83AB83BC83AA81FB81EC81ED80C6
:100B18003E802F8008850D8B5E2F5F71212F3A2F25
:100B28004F2F60E070E080E090E02115310541052D
:100B380000E15007610571058105910509F05AC06A
:100B48005E2F6E2D732D822D9D8904E30E94740CF7
:100B58002D873E874F87588B698B7A8B8B8B9C8B25
:100B68008D859E8597708F3F974009F443C0A301F8
:100B780092010E94F80E0E94990E9B01AC01C501DA
:100B8800B4010E94200F8823A9F149865A866B86F2
:100B98007C8629853A854B855C85C501B4010E9410
:100BA8009A0EB62E872E982EA92E262F372F482F2D
:100BB800592F0E94F80E0E94200F811118C02B2D6A
:100BC8008B2D982DA92DBA2D89839A83AB83BC834D
:100BD8003A814B815C816E2D732D822D9D89A1E018
:100BE8000E94E30D122FC32ED42EF52E03C01B2D09
:100BF8006401FA2C0E94F80E6596E2E10C94FD0C53
:100C08004F925F926F927F928F929F92AF92BF9214
:100C1800CF92DF92EF92FF92CF93DF93CDB7DEB7FB
:100C28002897CDBFDEBF6B017C01DC01CB0147E11A
:100C3800B695A795979587954A95D1F799278F5790
:100C48009109873191056CF597FD30C088248A9405
:100C5800982C3FE7A32EB12C04C0B594A794979481
:100C680087948A95D2F7D501C4018C219D21AE21A4
:100C7800BF21892B8A2B8B2BA1F00E941A0E6D8322
:100C88007E838F839887F7FE04C0C80CD91CEA1CA2
:100C9800FB1C80949094A094B094C820D920EA209A
:100CA800FB205C2D4D2D3E2D2F2D1BC00E941A0EB2
:100CB80069837A838B839C83F7FE0FC0D701C601B3
:100CC800880F991FAA1FBB1F892B8A2B8B2B49F3CF
:100CD80050E040E030E82FEB04C050E040E030E066
:100CE80020E0652F742F832F922F2896CDBFDEBF6B
:100CF800DF91CF91FF90EF90DF90CF90BF90AF90B2
:0E0D08009F908F907F906F905F904F90089516
:100D16000E94450D8EE29FE00E94160F809100060C
:100D26008E7F8093000681E08093070680910006FF
:100D360081688093000680E00E944F0FCCEDD7E9D2
:100D460080E8D82E0DEE17E990E0E92E98E9F92E05
:100D560020E4C22E0E945B0F882399F00E94580F50
:100D66000E94A10D0E94CA0D9F938F93DF93CF938C
:100D76000E94150D0E94D40E0F900F900F900F90A9
:100D86002BC00E94550F882339F10E94520F0E94F2
:100D96008B0E4B015C01D09227040E94CA0D9F93D3
:100DA6008F931F930F930E94150DC501B4010E94E6
:100DB600D20923E333E343E55AE30E943E0F9F93B0
:100DC6008F937F936F93FF92EF920E94150D8DB7CD
:100DD6009EB70A968DBF9EBF0E94E60E8823E1F35A
:100DE600C09204080E945B0F8111B4CF8895000061
:020DF600B1CF7B
:100DF80010C00E94AE0E58F00E94A70E40F029F4D1
:100E08005F3F29F00C94F20E51110C94B60E0C941D
:100E18005E0F0E94100C68F39923B1F3552391F3E8
:100E2800951B550BBB27AA2762177307840738F051
:100E38009F5F5F4F220F331F441FAA1FA9F333D0B0
:100E48000E2E3AF0E0E830D091505040E695001C64
:100E5800CAF729D0FE2F27D0660F771F881FBB1F20
:100E6800261737074807AB07B0E809F0BB0B802DFA
:100E7800BF01FF2793585F4F3AF09E3F510568F036
:100E88000C94F20E0C94B60E5F3FE4F3983ED4F344
:100E980086950E94FD0E9F5FD9F7880F911D969544
:100EA800879597F90895E1E0660F771F881FBB1FA4
:100EB800621773078407BA0720F0621B730B840B51
:0A0EC800BA0BEE1F88F7E0950895BD
:100ED2000FC00E94A70E38F00E94AE0E20F095239C
:100EE20011F00C94F20E0C945E0F11240C94B60EB9
:100EF2000E94100C70F3959FC1F3950F50E0551F9F
:100F0200629FF001729FBB27F00DB11D639FAA275C
:100F1200F00DB11DAA1F649F6627B00DA11D661FAB
:100F2200829F2227B00DA11D621F739FB00DA11DCC
:100F3200621F839FA00D611D221F749F3327A00D86
:100F4200611D231F849F600D211D822F762F6A2F22
:100F520011249F5750409AF0E1F088234AF0EE0F97
:100F6200FF1FBB1F661F771F881F91505040A9F7B4
:100F72009E3F510570F00C94F20E0C94B60E5F3F3A
:100F8200E4F3983ED4F386950E94FD0EE7959F5FA9
:100F9200D1F7FE2B880F911D9695879597F90895A5
:100FA20011C00E94A70E38F00E94AE0E20F039F454
:100FB2009F3F19F426F40C945E0F0EF4E095E7FBC4
:100FC2000C94F20EE92F0E94100C58F3BA17620724
:100FD20073078407950720F079F4A6F50C94B50EF3
:100FE2000EF4E0950B2EBA2FA02D0B01B901900142
:100FF2000C01CA01A0011124FF27591B99F0593F86
:1010020050F4503E58F11A16F040A22F232F342FDD
:101012004427585FF3CF469537952795A795F0401B
:101022005395C9F77EF41F16BA0B620B730B840B30
:10103200AAF0915091F0FF0FBB1F661F771F881F08
:10104200C2F70CC0BA0F621F731F841F38F4879552
:101052000E94FD0E9E3F08F0B2CF9395880F08F0D4
:0A1062009927EE0F979587950895E2
:10106C00CF93DF93C0E0D4E01882A0E2B4E084E830
:10107C008C93E0E4F4E010821C8284E014968C9350
:10108C0014971482188A198A1A8A1B8A1C8A1D8A38
:10109C001E8A1F8A50961C92509751961C925197FB
:1010AC0052961C92529753961C92539754961C929C
:1010BC00549755961C92559756961C925697579640
:1010CC001C92108A118A128A138A88E8848B158ADA
:1010DC00168A178AE0EEF5E01182108213821482D0
:1010EC001582128288E69FE080932C3890932D38DD
:1010FC0089E69FE080932A3890932B388AE69FE00C
:10110C00809328389093293887E69FE0809326387F
:10111C009093273886E69FE0809324389093253867
:06112C00DF91CF91089550
:101132000F931F93CF93DF93DB012D913C91119776
:1011420030FF25C016964D915C91179714962D91FC
:101152003C9115974217530778F41296ED91FC9142
:101162001397808312962D913C9113972F5F3F4FD7
:1011720012962D933C93139716962D913C911797A7
:101182002F5F3F4F16962D933C93179715C01C96D1
:10119200ED91FC911D97309719F48FEF9FEF0CC0E2
:1011A2008B01EC010995892BC1F7F80186819781A2
:1011B200019686839783CE01DF91CF911F910F9184
:0211C20008958E
:1011C4001F920F920FB60F9211242F933F934F93B8
:1011D4005F936F937F938F939F93AF93BF93EF939B
:1011E400FF933B9B05C0E0912C38F0912D38099575
:1011F4003A9B05C0E0912A38F0912B3809953D9B24
:1012040005C0E0912838F091293809953F9B05C025
:10121400E0912438F091253809958FEF87B9FF9133
:10122400EF91BF91AF919F918F917F916F915F915A
:101234004F913F912F910F900FBE0F901F901895D3
:10124400A2E8B0E0E8E2F9E00C94EA0C5C014A019F
:10125400CF57DF4F68837983C158D040C12CD12C3C
:10126400CF57DF4FE881F981C158D040808188236E
:10127400E9F07401860120E830E0AE014F5F5F4F72
:10128400BE016F577F4FC5010E9405048C0D9D1D43
:101294008C159D054CF48FE490E080930638909370
:1012A40007388FEF9FEF03C06C01DACFC601CE572A
:0812B400DF4FECE00C94030D88
:1012BC001F920F920FB60F9211242F933F934F93BF
:1012CC005F936F937F938F939F93AF93BF93EF93A2
:1012DC00FF938091430180FF07C0E0913238F09179
:1012EC003338309709F009958091430181FF07C08D
:1012FC00E0913038F0913138309709F0099583E05E
:10130C0080934301FF91EF91BF91AF919F918F918A
:10131C007F916F915F914F913F912F910F900FBEE5
:06132C000F901F901895C0
:10133200A0E0B0E0EFE9F9E00C94EA0C6C015B018B
:101342007A01E901480181E08822992400FD03C065
:101352004217530750F0A701B501C6010E94900C35
:10136200EC16FD0610F0C70117C08E010E191F09F9
:101372000115110541F0B60180E290E00E94990842
:1013820001501109F5CF8114910429F4A701B50187
:10139200C6010E94900CCE01CDB7DEB7ECE00C94F2
:0213A200030D39
:1013A400E89404C097FB16F40E94350E9923A9F023
:1013B400F92F96E9BB279395F695879577956795C9
:1013C400B795F111F8CFFAF4BB0F11F460FF1BC00D
:1013D4006F5F7F4F8F4F9F4F16C0882311F096E9A0
:1013E40011C0772321F09EE8872F762F05C066234E
:1013F40071F096E8862F70E060E02AF09A95660F07
:10140400771F881FDAF7880F9695879597F90895BF
:101414001F920F920FB60F9211242F933F934F9365
:101424005F936F937F938F939F93AF93BF93EF9348
:10143400FF938091C70181FF05C0E0912238F091AC
:101444002338099582E08093C701FF91EF91BF9102
:10145400AF919F918F917F916F915F914F913F9148
:0C1464002F910F900FBE0F901F90189555
:10147000E0E0F8E086EB92E080879187158280ECCF
:10148000868383E0878313861486168615868DE609
:101490009FE080930238909303388CE69FE080931E
:1014A0000038909301388BE69FE080930438909346
:1014B00005381092343810923538E0913638F09172
:0C14C000373888E098E38083918308951A
:1014CC001F920F920FB60F9211242F933F934F93AD
:1014DC005F936F937F938F939F93AF93BF93EF9390
:1014EC00FF93E0912E38F0912F38309709F0099541
:1014FC0081E080935301FF91EF91BF91AF919F9148
:10150C008F917F916F915F914F913F912F910F90A0
:08151C000FBE0F901F901895FF
:101524001F920F920FB60F9211242F933F934F9354
:101534005F936F937F938F939F93AF93BF93EF9337
:10154400FF935C9B05C0E0912638F09127380995FC
:101554008FEF8BB9FF91EF91BF91AF919F918F91D5
:101564007F916F915F914F913F912F910F900FBE9B
:061574000F901F90189576
:10157A000E94180C88F09F5798F0B92F9927B751F5
:10158A00B0F0E1F0660F771F881F991F1AF0BA951D
:10159A00C9F714C0B13091F00E94B50EB1E00895B8
:1015AA000C94B50E672F782F8827B85F39F0B93FAA
:1015BA00CCF3869577956795B395D9F716F40E947B
:0415CA00350E08953D
:1015CE00A0E0B0E0EDEEFAE00C94EC0C7C01FB0137
:1015DE00EA01C901A280B380C480D5800081118147
:1015EE00209711F4C4E8DEE9009719F4CE010E94A9
:1015FE00AF0DB7FC04C0A816B90608F4C5019601D4
:10160E00AC01BE01C7010E949909CDB7DEB7EAE071
:04161E000C94050D16
:10162200DC01ED91FC91119780818A3221F080E0FA
:1016320090E03AE009C03196ED93FC93DB010E9401
:10164200550E808191810895ED91FC911197208131
:1016520020532A3068F4389FA001399F500D11247D
:10166200CA01820F911D3196ED93FC931197ECCF35
:021672000895D9
:101674001F920F920FB60F9211242F933F934F9303
:101684005F936F937F938F939F93AF93BF93EF93E6
:10169400FF930E94320F82E080930506FF91EF9141
:1016A400BF91AF919F918F917F916F915F914F9176
:0E16B4003F912F910F900FBE0F901F90189531
:1016C200E0ECF1E084E0858317821186128690E5D2
:1016D20095871686118A128A158A168A11821282B3
:1016E20013868787138A178A8CE080878DEA84871E
:1016F200108A148A81E4808385E69FE080932238F1
:081702009093233880E0089564
:10170A00990F0008550FAA0BE0E8FEEF1616170608
:10171A00E807F907C0F012161306E407F50798F070
:10172A00621B730B840B950B39F40A2661F0232B89
:10173A00242B252B21F408950A2609F4A140A69505
:08174A008FEF811D811D089540
:10175200E0E4F1E0809141018111FACF8FE790E05E
:1017620084879587108611868FEF90E08287938712
:1017720081E0809347011092420181E18093400110
:10178200809151018111FCCF1092520181E080932E
:06179200500180E0089503
:10179800E0E8F1E08BE0808B85E2818B128A138A86
:1017A800148A158A81E0808380A710A211A212A250
:1017B80013A214A215A216A217A211A612A613A666
:1017C80016A617A610AA11AA12AA13AA14A615A635
:0417D80080E0089510
:1017DC004E6577204761696E3A2025730A0D0A0D14
:1017EC000043757272656E74204761696E3A2025EC
:1017FC00730A0D004D656173757265643A2025316D
:10180C002E3366560A0D0A0D0031003200340038B2
:04181C000031360061
:1018200057FD9058440F551F59F05F3F71F0479591
:10183000880F97FB991F61F09F3F79F08795089576
:10184000121613061406551FF2CF4695F1DF08C095
:10185000161617061806991FF1CF869571056105B2
:04186000089408954B
:10186400CF93DF93EC0190E0E92FF0E0EE0FFF1F40
:10187400E252F4468081811102C081810EC0A881A8
:10188400B9812C91821305C091811196A883B983E3
:1018940001C09F5F9B3040F3892FDF91CF91089562
:1018A400FA0160387105CCF0623871051CF06338B8
:1018B400710599F4A081B1819D012C5F3F4F208374
:1018C40031834D915D916D917C91FC0140835183F5
:1018D4006283738381E090E0089580E090E008954E
:1018E40097FB10F8169400080F93083098F00850EE
:1018F400232F342F452F562F672F782F892F902D84
:10190400F4CF05949795879577956795579547955F
:0C191400379527950A95AAF70F910895C2
:10192000A0E0B0E0E6E9FCE00C94EE0C6C01EB0109
:101930008A017B01E40EF51ECE15DF0541F0899189
:10194000B601082E000C990B0E949908F5CFC8012A
:0A195000CDB7DEB7E8E00C94070DF8
:10195A00E0E0F6E01182118680E18283138284E658
:10196A00808789E18387178284E1828782E0848382
:10197A0088E4848780E78587168E178E148E158EE5
:08198A0081E0808380E00895F4
:1019920040E068ED80E690E00E942A0F45E168EDA4
:1019A20081E60E94CE0E82E60E94CE0E83E60E945F
:1019B200CE0E80E70E94CE0E88E70E94CE0E8CE704
:0619C20090E00C942A0FD6
:1019C8002F923F924F925F926F927F928F929F9247
:1019D800AF92BF92CF92DF92EF92FF920F931F9335
:1019E800CF93DF93CDB7DEB7CA1BDB0BCDBFDEBF0E
:0219F800099450
:1019FA002A88398848885F846E847D848C849B8495
:101A0A00AA84B984C884DF80EE80FD800C811B81A2
:101A1A00AA81B981CE0FD11DCDBFDEBFED010895D8
:101A2A00A0E0B0E0EBE1FDE00C94F40CAE014B5FFA
:101A3A005F4FFA0161917191AF01E0913638F091EF
:101A4A003738808191810E942D0DE2E00C940D0DB2
:101A5A00A2E0B0E0E3E3FDE00C94F20C8C014983D0
:101A6A005A83AE014F5F5F4F0E942209F80120811D
:101A7A0024FF02C08FEF9FEF2296E4E00C940B0D37
:101A8A000E94C90C0E9436080E94AD0C0E94610B8C
:101A9A000E94CC0B0E94A90B0E94650E0E94380A74
:081AAA000E94EC0E0C94BD0D2E
:101AB20097FB072E16F4009407D077FD09D00E94F9
:101AC2006D0D07FC05D03EF4909581959F4F0895CA
:081AD200709561957F4F0895A6
:101ADA00AA1BBB1B51E107C0AA1FBB1FA617B7074A
:101AEA0010F0A61BB70B881F991F5A95A9F7809566
:081AFA009095BC01CD01089597
:101B0200092E0394000C11F4882352F0BB0F40F409
:101B1200BF2B11F460FF04C06F5F7F4F8F4F9F4F49
:021B2200089524
:101B24008F93EF93FF93E0E0F6E080E2858380E11A
:0E1B3400858388E08583FF91EF918F9118954E
:101B420080910B068295869587708F5F853009F4A8
:0C1B520080E08295880F807E0C94920E3B
:101B5E00FC01AF014F5F5F4F2081222311F0FA018C
:0C1B6E00F8CF9F01281B390BC901089516
:101B7A0040E068ED80E191E00E942A0FE0E1F1E0A7
:0A1B8A0012821382789480E008951F
:101B9400E0910B06E295E695E770F0E0EE0FFF1F8B
:0A1BA400E85EF74C808191810895FE
:101BAE00CF93C82F0E94E00E8823E1F3C093020862
:081BBE0080E090E0CF91089552
:101BC6000024A7FD00942A0F301D401D501D601DE6
:081BD600701D801D901D089593
:101BDE0068076C094C836A9074A07AC0008068888C
:061BEE0000846C820081FE
:101BF4000E943A0F0E9404066C8F7D8F8E8F9F8FF8
:061C04000E94A00E0895ED
:101C0A00EC010E946F0F0E946E0FCE010E94700FAE
:061C1A00CE010E94630FE1
:101C2000D601ED91FC911197CF0101968D939C9374
:041C30002081089572
:101C340020E030E040E85BE7C701B6010E949A0E5D
:021C4400089501
:101C4600652D70E0A701CE010B960E94520C892BE0
:021C56000895EF
:101C5800FC01480F591FE417F50711F06193FBCFFA
:021C68000895DD
:101C6A0090958095709561957F4F8F4F9F4F0895FE
:101C7A00D6018D919C91119701968D939C9308950D
:101C8A00652D70E0970140E050E00E94C20E089571
:101C9A00AE01455F5F4FBE016F5F7F4FC40108957C
:101CAA00ED91FC911197CF0102968D939C93089523
:101CBA00494E4600696E66004E414E006E616E00E6
:101CCA0043E068ED80E590E00E942A0F80E00895E5
:101CDA009C01215431092A31310508F480620895A2
:101CEA00FC01DB012D91BD0121932111FACF089549
:0E1CFA00F60180819181019680839183089587
:0E1D08006C8D7D8D8E8D9F8D0E946C050895D3
:0E1D1600E0E1F6E060817181828193810895A1
:0E1D2400E0E0F6E093859F71892B8387089598
:0E1D32005058BB27AA270E94D1070C94810DA0
:0E1D40000E94BD0A6894B1110C94B60E08956D
:0E1D4E0000240A9416161706180609060895B2
:0E1D5C0000240A9412161306140605060895B4
:0E1D6A00E894BB2766277727CB0197F90895E9
:0C1D78000E947D0ED7010E94550E0895B8
:0C1D8400CE010B960E940000892B0895F0
:0C1D90008F9381E0809305068F911895D9
:0C1D9C0090E00E942A0F40E068ED0895DE
:0C1DA800E0E4F1E0808181608083089518
:0C1DB400E0E4F1E080818E7F80830895E0
:0C1DC0008091040885FB882780F90895B5
:0C1DCC008091040886FB882780F90895A8
:0C1DD800E0EAF0E01082118280E0089543
:0C1DE40097F99F6780E870E060E00895C8
:0A1DF000612F7C2D8D2D9F2D08958D
:0A1DFA0077956795B795F795089562
:0A1E04000E94100E0E944D0E08957A
:0A1E0E000E947D0E0E944D0E089503
:0A1E18000E94110FC501B4010895E6
:0A1E220020E030E040E251E40895B2
:0A1E2C008093223890932338089524
:0A1E36008F938FEF83B98F911895F9
:0A1E40000E94850B08F481E008956C
:0A1E4A000E94850B08F48FEF089545
:081E5400FC0164BF4083089506
:081E5C000E94DA0E0C94360F0F
:081E640081E080933B380895F2
:081E6C0081E080933A380895EB
:081E74000E94FC060C94810D94
:081E7C000E9469070C94810D1E
:071E8400286E756C6C29004B
:061E8B00286E696C2900BD
:061E92000E944D0E0895B0
:061E98000E947D0E08957A
:061E9E0080930208089584
:061EA40010923B38089586
:061EAA0080913B38089511
:061EB00010923A3808957B
:061EB60080913A38089506
:061EBC009FEF80EC089589
:041EC2000C9400007C
:041EC6000E94730003
:021ECA00089579
:021ECC00089577
:021ECE00089575
:021ED000089573
:021ED200089571
:021ED40008956F
:021ED60008956D
:021ED80008956B
:021EDA00089569
:021EDC00089567
:021EDE00089565
:021EE000089563
:101EE200030000000000000000000000D70D000009
:0A1EF2001598179819981B981D9871
:021EFC00383874
:02000004008278
:090000000000020000C40700002A
:00000001FF
