:100000000C9445000C94370B0C94370B0C94EF06B2
:100010000C9453080C94CD070C943B0A0C942A07BB
:100020000C94370B0C94370B0C94370B0C94370B48
:100030000C94370B0C94370B0C94370B0C94370B38
:100040000C94370B0C94370B0C94370B0C94370B28
:100050000C94370B0C949B070C9427080C94FB070B
:100060000C947F080C94370B0C94370B0C94370BC3
:100070000C94370B0C94370B380038068038063850
:100080001E00167C381E3836800011241FBECFEFAC
:10009000CDBFDFE3DEBFE8E7F0E040E017C0B59199
:1000A000A59135912591059107FD0CC095918591FC
:1000B000EF01F92FE82F05900D92A217B307D9F79A
:1000C000FE0104C01D92A217B307E1F7E938F40757
:0E00D00031F70E9418050C946D00F894FFCFD4
:0800DE006E616E00696E6600A0
:1000E600A0E1B0E0E9E7F0E00C94B9097C011B015E
:1000F6006A01FC0116821782838181FF20C39E015B
:100106002F5F3F4F3901F7019381F1010E94D40A15
:10011600882309F410C3853221F40E94D40A85325B
:1001260039F4B70190E00E94B30656016501EBCFA2
:1001360010E0512C912CFFE1F915D8F08B3279F0B3
:1001460038F4803279F08332A1F4F92DF0612EC0B3
:100156008D3261F0803369F4292D21602DC0392D4F
:100166003260932E892D8460982E2AC0E92DE8608E
:1001760015C097FC2AC020ED280F2A3088F496FE79
:1001860006C03AE0139F200D1124122F19C08AE0F1
:10019600589E200D1124522EE92DE0629E2E10C08D
:1001A6008E3231F496FCC7C2F92DF0649F2E08C03A
:1001B6008C3621F4292D2068922E02C0883629F427
:1001C600F1010E94D40A8111B6CF9BEB980F9330B0
:1001D60020F4992D9061805E07C09BE9980F9330BB
:1001E60008F061C1992D9F7E96FF16E09F73992EA8
:1001F600853619F49064992E08C0863621F4392F75
:100206003068932E02C01111115097FE07C01C339F
:1002160050F444244394410E27E00BC0183038F0C4
:1002260027E017E005C027E09CE3492E02C0212FF6
:10023600412C560184E0A80E0E94A30A042DA301B6
:100246000E94CB036C01F981FC87F0FF02C0F3FF2B
:1002560006C091FC06C092FE06C000E205C00DE293
:1002660003C00BE201C000E08C858C7019F001110F
:1002760044C283C297FE10C04C0CFC85F4FF04C038
:100286008A81813309F44A94141474F528E02415FC
:1002960078F588E0482E2CC096FC2AC0812F90E085
:1002A6008C159D059CF03CEFC3163FEFD30674F00A
:1002B600892D8068982E0AC0E2E0F0E0EC0FFD1F61
:1002C600E10FF11D8081803319F411501111F4CF23
:1002D60097FE0EC044244394410E812F90E0C81629
:1002E600D9062CF41C1904C04424439401C010E020
:1002F60097FE06C01C141D0434F4C601019605C001
:1003060085E090E002C081E090E0011101961123A2
:1003160031F0212F30E02F5F3F4F820F931F252DA5
:1003260030E08217930714F4581A01C0512C892D16
:10033600897041F4552031F00E940D0B0E94B306DE
:100346005A94F8CF002329F0B701802F90E00E943D
:10035600B30693FC09C0552039F0B70180E390E05D
:100366000E94B3065A94F7CF97FE4CC04601D7FEBB
:1003760002C0812C912CC60188199909F301E80F56
:10038600F91FED87FE879601241931092F87388BCF
:10039600012F10E01195019511093FEF8316930681
:1003A60029F4B7018EE290E00E94B306C814D9047E
:1003B6004CF08F8598898815990524F4ED85FE857E
:1003C600818101C080E3F1E08F1A91082D853E8579
:1003D6002F5F3F4F2D873E87801691062CF0B70181
:1003E60090E00E94B306D9CFC814D90441F49A818B
:1003F600963320F4953319F43C8534FF81E3B70135
:1004060090E04EC08A81813319F09C859F7E9C873F
:10041600B70190E00E94B306111105C094FC18C004
:1004260085E690E017C0B7018EE290E00E94B30621
:100436001E5F82E001E0080FF301E80FF11D8081E5
:10044600B70190E00E94B306802F0113F3CFE6CFE9
:1004560085E490E0B7010E94B306D7FC06C0C1143C
:10046600D10441F4EC85E4FF05C0D194C194D108D0
:100476008DE201C08BE2B70190E00E94B30680E3F3
:100486002AE0C216D1042CF08F5FFAE0CF1AD10809
:10049600F7CFB70190E00E94B306B701C601C09638
:1004A6000E94B3063FC1833631F0833779F0833536
:1004B60009F053C01EC0560132E0A30EB11CF6016E
:1004C6008081898301E010E0630110C056010E941B
:1004D600FE0AC080D18096FE03C0612F70E002C084
:1004E6006FEF7FEFC6010E94880A8C01F92DFF7716
:1004F60014C0560122E0A20EB11CF601C080D180C4
:1005060096FE03C0612F70E002C06FEF7FEFC60159
:100516000E947D0A8C01F92DF0689F2EF3FD19C00B
:10052600852D90E008171907A0F40E940D0B0E9474
:10053600B3065A94F5CFF60197FC859197FE819103
:100546006F01B70190E00E94B30651105A94015012
:1005560011090115110579F7E5C0843611F08936C0
:1005660009F5560197FE05C024E0A20E0E94A30AD3
:1005760008C00E94FE0A60817181072E000C880B5C
:10058600990BF92DFF769F2E97FF04C00E94930AC0
:10059600F0689F2E2AE030E0A3010E945506C82E7F
:1005A600C61839C0092D853721F40F7E2AE030E0C0
:1005B6001DC0097F8F3691F018F4883559F0BBC0FD
:1005C600803719F0883711F0B6C0006104FF09C002
:1005D600046007C094FE08C0066006C028E030E04C
:1005E60005C020E130E002C020E132E0560107FFFD
:1005F60005C084E0A80E0E94A30A06C00E94FE0A57
:100606006081718180E090E0A3010E945506C82EAA
:10061600C6180F77902E96FE0BC0092D0E7FC116B9
:1006260050F494FE0AC092FC08C0092D0E7E05C047
:10063600DC2C092D03C0DC2C01C0D12E04FF0DC01B
:10064600FE01EC0DF11D8081803311F4097E09C095
:1006560002FF06C0D394D39404C0802F867809F095
:10066600D39403FD10C000FF06C01C2DD51478F4EA
:10067600150D1D190CC0D51450F40E940D0B0E94C7
:10068600B306D394F8CFD51410F45D1801C0512CDD
:1006960004FF10C0B70180E390E00E94B30602FF9A
:1006A60017C001FD03C088E790E002C088E590E02E
:1006B600B7010CC0802F867859F001FF02C08BE28B
:1006C60001C080E207FD8DE2B70190E00E94B3060B
:1006D600C11638F4B70180E390E00E94B3061150CA
:1006E600F7CFCA94F301EC0DF11D8081B70190E0BC
:1006F6000E94B306C110F5CF15C0F4E0F51550F50C
:1007060084E0581A93FE1EC0011125C02C8523FFD4
:1007160028C00EED10E0392D3071932EF80184912A
:10072600811122C0552009F401CD0E940D0B0E94B3
:10073600B3065A94F7CFF7018681978125C08FEFCC
:100746009FEF22C00E940D0B0E94B3065A945110CF
:10075600F9CFDACF512CB701802F90E00E94B30673
:10076600D5CF02EE10E0D7CF91108052B70190E0BE
:100776000E94B3060F5F1F4FD1CF23E0251510F45B
:1007860083E0BFCF512CC2CF6096E2E10C94D20930
:10079600283008F027E03327DA01990F311D87FD4D
:1007A600916000966105710539F432602E5F3D93C4
:1007B60030E32A95E1F708959F3F30F080387105C0
:1007C600610509F03C5F3C5F3D93913008F080681D
:1007D600911DDF93CF931F930F93FF92EF92192FE3
:1007E600987F9695E92F96959695E90FFF27E057FE
:1007F600F64F99273327EE24FF24A701E70105903A
:100806000894079428F4360FE71EF81E491F511D59
:10081600660F771F881F991F0694A1F70590079406
:1008260028F4E70EF81E491F561FC11D770F881FB3
:10083600991F661F0694A1F70590079428F4F80EF1
:10084600491F561FC71FD11D880F991F661F771F87
:100856000694A1F70590079420F4490F561FC71F69
:10086600D81F990F661F771F881F0694A9F78491D2
:100876001095177041F0D695C79557954795F794FB
:10088600E7941A95C1F7E6E3F9E068941590159197
:1008960035916591959105907FE273950E94AA0A1C
:1008A600E0F7E10CF11E431F561FC91FD01D7EF451
:1008B600703311F48A95EACFE894015030F0080FAE
:1008C6000AF40027021708F4202F2395022F7A3303
:1008D60028F079E37D932A95E9F70CC07D932A9554
:1008E600A9F60694979567953795179517940E94DC
:1008F600AA0A98F023957E9173957A3308F070E3EF
:100906007C932013B8F77E9170617D9330F08395C8
:1009160071E37D9370E32A95E1F71124EF90FF9040
:100926000F911F91CF91DF91992787FD909508959B
:1009360000407A10F35A00A0724E18090010A5D490
:10094600E80000E87648170000E40B54020000CAED
:100956009A3B000000E1F505000080969800000033
:1009660040420F000000A086010000001027000092
:100976000000E803000000006400000000000A0018
:10098600000000000100000000002C76D888DC671B
:100996004F0823DFC1DFAE59E1B1B796E5E3E45373
:1009A600C63AE651997696E8E6C28426EB898C9B90
:1009B60062ED407C6FFCEFBC9C9F40F2BAA56FA530
:1009C600F490055A2AF75C936B6CF9676DC11BFCB2
:1009D600E0E40D47FEF520E6B500D0ED902E0300CD
:1009E600943577050080841E080000204E0A00001A
:1009F60000C80C333333330F986E12831141EF8DD9
:100A06002114893BE65516CFFEE6DB18D1844B3818
:100A16001BF77C1D901DA4BBE424203284725E2249
:0A0A26008100C9F124ECA1E53D2791
:100A30000E94160A89E19BE00E94030B85E19BE07E
:100A40000E94080B809100068E7F8093000681E053
:100A5000809307068091000681688093000680E0FD
:100A60000E94250BCAE7D2E980E8D82E0BE812E9EC
:100A70009EE9E92E92E9F92E20E4C22E0E94310B64
:100A8000882399F00E942E0B0E94490A0E94640A52
:100A90009F938F93DF93CF930E94000A0E94DA0AFC
:100AA0000F900F900F900F902BC00E942B0B88235C
:100AB00039F10E94280B0E94B10A4B015C01D092CF
:100AC00027040E94640A9F938F931F930F930E94A1
:100AD000000AC501B4010E94630723E333E343E541
:100AE0005AE30E94210B9F938F937F936F93FF9202
:100AF000EF920E94000A8DB79EB70A968DBF9EBFE7
:100B00000E94EC0A8823E1F3C09204080E94310B92
:0A0B10008111B4CF88950000B1CF29
:100B1A000FC00E94BF0A38F00E94C60A20F095232F
:100B2A0011F00C94F80A0C94340B11240C94CE0A8C
:100B3A000E945F0970F3959FC1F3950F50E0551F0E
:100B4A00629FF001729FBB27F00DB11D639FAA2718
:100B5A00F00DB11DAA1F649F6627B00DA11D661F67
:100B6A00829F2227B00DA11D621F739FB00DA11D88
:100B7A00621F839FA00D611D221F749F3327A00D42
:100B8A00611D231F849F600D211D822F762F6A2FDE
:100B9A0011249F5750409AF0F1F088234AF0EE0F43
:100BAA00FF1FBB1F661F771F881F91505040A9F770
:100BBA009E3F510580F00C94F80A0C94CE0A5F3FD0
:100BCA00E4F3983ED4F3869577956795B795F795AC
:100BDA00E7959F5FC1F7FE2B880F911D9695879524
:040BEA0097F90895DA
:100BEE00CF93DF930E949D09C0E0D4E01882A0E26B
:100BFE00B4E084E88C93E0E4F4E010821C82149656
:100C0E001C9214971482188A198A1A8A1B8A1C8AB3
:100C1E001D8A1E8A1F8A50961C92509751961C92BE
:100C2E00519752961C92529753961C9253975496E4
:100C3E001C92549755961C92559756961C92569701
:100C4E0057961C92108A118A128A138A88E8848B0E
:100C5E00158A168A178AE0EEF5E011821082138249
:100C6E001482158212828CE39BE080932C38909331
:100C7E002D388DE39BE080932A3890932B388BE3AD
:100C8E009BE080932838909329388AE39BE08093E9
:0C0C9E00263890932738DF91CF910895FD
:100CAA00FA01AA27283051F1203181F1E8946F9393
:100CBA006E7F6E5F7F4F8F4F9F4FAF4FB1E03ED039
:100CCA00B4E03CD0670F781F891F9A1FA11D680FD7
:100CDA00791F8A1F911DA11D6A0F711D811D911D0A
:100CEA00A11D20D009F468943F912AE0269F11247F
:100CFA003019305D3193DEF6CF010895462F4770E3
:100D0A00405D4193B3E00FD0C9F7F6CF462F4F703D
:100D1A00405D4A3318F0495D31FD4052419302D09B
:100D2A00A9F7EACFB4E0A695979587957795679541
:100D3A00BA95C9F700976105710508959B01AC0141
:100D4A000A2E06945795479537952795BA95C9F768
:0C0D5A00620F731F841F951FA01D0895D9
:100D66000F931F93CF93DF93FB01238121FD03C0D4
:100D76008FEF9FEF2CC022FF16C04681578124813A
:100D860035814217530744F4A081B1819D012F5F3D
:100D96003F4F208331838C93268137812F5F3F4FCE
:100DA6002683378314C08B01EC01FB010084F18597
:100DB600E02D0995892BE1F6D80116968D919C9127
:100DC6001797019616968D939C931797CE01DF91F0
:080DD600CF911F910F910895C8
:100DDE001F920F920FB60F9211242F933F934F93A2
:100DEE005F936F937F938F939F93AF93BF93EF9385
:100DFE00FF938091430180FF07C0E0913238F0915C
:100E0E003338309709F009958091430181FF07C06F
:100E1E00E0913038F0913138309709F0099583E040
:100E2E0080934301FF91EF91BF91AF919F918F916D
:100E3E007F916F915F914F913F912F910F900FBEC8
:060E4E000F901F901895A3
:100E54001F920F920FB60F9211242F933F934F932B
:100E64005F936F937F938F939F93AF93BF93EF930E
:100E7400FF933A9B05C0E0912C38F0912D380995E9
:100E84003D9B05C0E0912A38F0912B3809953F9B92
:100E940005C0E0912638F091273809958FEF87B97E
:100EA400FF91EF91BF91AF919F918F917F916F913E
:100EB4005F914F913F912F910F900FBE0F901F9014
:020EC40018957F
:100EC600E89404C097FB16F40E94930A9923A9F0AC
:100ED600F92F96E9BB279395F695879577956795AC
:100EE600B795F111F8CFFAF4BB0F11F460FF1BC0F0
:100EF6006F5F7F4F8F4F9F4F16C0882311F096E983
:100F060011C0772321F09EE8872F762F05C0662330
:100F160071F096E8862F70E060E02AF09A95660FE9
:100F2600771F881FDAF7880F9695879597F90895A2
:100F36001F920F920FB60F9211242F933F934F9348
:100F46005F936F937F938F939F93AF93BF93EF932B
:100F5600FF9380E28093050680E18093050688E092
:100F660080930506E0911E38F0911F38309709F0FE
:100F76000995FF91EF91BF91AF919F918F917F91CD
:100F86006F915F914F913F912F910F900FBE0F90F0
:040F96001F901895FB
:100F9A001F920F920FB60F9211242F933F934F93E4
:100FAA005F936F937F938F939F93AF93BF93EF93C7
:100FBA00FF938091C70181FF05C0E0912438F09129
:100FCA002538099582E08093C701FF91EF91BF917F
:100FDA00AF919F918F917F916F915F914F913F91C7
:0C0FEA002F910F900FBE0F901F901895D4
:100FF6001F920F920FB60F9211242F933F934F9388
:101006005F936F937F938F939F93AF93BF93EF936A
:10101600FF9382E080930506E0912238F091233811
:10102600309709F00995FF91EF91BF91AF919F918C
:101036008F917F916F915F914F913F912F910F907B
:081046000FBE0F901F901895DA
:10104E001F920F920FB60F9211242F933F934F932F
:10105E005F936F937F938F939F93AF93BF93EF9312
:10106E00FF9381E080930506E0912038F0912138BE
:10107E00309709F00995FF91EF91BF91AF919F9134
:10108E008F917F916F915F914F913F912F910F9023
:08109E000FBE0F901F90189582
:1010A6001F920F920FB60F9211242F933F934F93D7
:1010B6005F936F937F938F939F93AF93BF93EF93BA
:1010C600FF93E0912E38F0912F38309709F009956B
:1010D60081E080935301FF91EF91BF91AF919F9172
:1010E6008F917F916F915F914F913F912F910F90CB
:0810F6000FBE0F901F9018952A
:1010FE001F920F920FB60F9211242F933F934F937F
:10110E005F936F937F938F939F93AF93BF93EF9361
:10111E00FF935C9B05C0E0912838F0912938099522
:10112E008FEF8BB9FF91EF91BF91AF919F918F91FF
:10113E007F916F915F914F913F912F910F900FBEC5
:06114E000F901F901895A0
:1011540040E068ED80E690E00E94110B45E168ED07
:1011640081E690E00E94110B40E068ED82E690E099
:101174000E94110B40E068ED83E690E00E94110BA1
:1011840040E068ED80E790E00E94110B40E068EDDC
:1011940088E790E00E94110B40E068ED8CE790E056
:0411A4000C94110B8B
:1011A800E0ECF1E084E0858317821186128690E5F1
:1011B80095871686118A128A158A168A11821282D2
:1011C80013868787138A178A8CE080878DEA84873D
:1011D800108A148A81E4808389E39BE08093243811
:0811E8009093253880E0089582
:1011F000E0E4F1E0809141018111FACF8FE790E0C6
:1012000084879587108611868FEF90E08287938779
:1012100081E0809347011092420181E18093400177
:10122000809151018111FCCF1092520181E0809395
:06123000500180E008956A
:10123600E0E8F1E08BE0808B85E2818B128A138AED
:10124600148A158A81E0808380A710A211A212A2B7
:1012560013A214A215A216A217A211A612A613A6CD
:1012660016A617A610AA11AA12AA13AA14A615A69C
:0412760080E0089577
:10127A004E6577204761696E3A2025730A0D0A0D7B
:10128A000043757272656E74204761696E3A202553
:10129A00730A0D004D656173757265643A202531D4
:1012AA002E3366560A0D0A0D00310032003400381A
:0412BA0000313600C9
:1012BE0057FD9058440F551F59F05F3F71F04795F9
:1012CE00880F97FB991F61F09F3F79F087950895DE
:1012DE00121613061406551FF2CF4695F1DF08C0FD
:1012EE00161617061806991FF1CF8695710561051A
:0412FE0008940895B3
:10130200E0E0F6E01182118680E18283138284E6B6
:10131200808789E18387178284E1828782E08483E0
:1013220088E4848780E78587168E178E148E158E43
:0813320081E0808380E0089552
:10133A00E0E1F4E0808188608193E83184E0F80795
:10134A00C9F7E0E3F4E0808188608193E83384E0C0
:10135A00F807C9F7E0E5F4E0808188608193E83511
:08136A0084E0F807C9F70895BB
:101372002F923F924F925F926F927F928F929F92A3
:10138200AF92BF92CF92DF92EF92FF920F931F9391
:10139200CF93DF93CDB7DEB7CA1BDB0BCDBFDEBF6A
:0213A2000994AC
:1013A4002A88398848885F846E847D848C849B84F1
:1013B400AA84B984C884DF80EE80FD800C811B81FF
:1013C400AA81B981CE0FD11DCDBFDEBFED01089535
:1013D400E0E0F8E086EB92E080879187158280E474
:1013E400868383E08783138614861686158686E0B3
:0C13F40098E3809302389093033808952A
:10140000A0E0B0E0E6E0FAE00C94C909AE014B5F61
:101410005F4FFA0161917191AF0180910238909113
:0C14200003380E947300E2E00C94E20923
:10142C000E94AA080E94F7050E9481090E94D40814
:10143C000E941B090E94F8080E949B0A0E94EA095C
:08144C000E94F20A0C94570AF9
:10145400092E0394000C11F4882352F0BB0F40F4BE
:10146400BF2B11F460FF04C06F5F7F4F8F4F9F4FFE
:021474000895D9
:101476001F920F920FB60F9211248F938FEF83B99D
:0C1486008F910F900FBE0F901F901895D3
:1014920080910B068295869587708F5F853009F45F
:0C14A20080E08295880F807E0C94B80AD0
:1014AE0040E068ED80E191E00E94110BE0E1F1E097
:0A14BE0012821382789480E00895F2
:1014C800E0910B06E295E695E770F0E0EE0FFF1F5E
:0A14D800EC5EF74C808191810895CD
:1014E200CF93C82F0E94E60A8823E1F3C093020833
:0814F20080E090E0CF91089525
:1014FA00FC010590615070400110D8F780959095D5
:06150A008E0F9F1F0895E3
:10151000FC016150704001900110D8F780959095C2
:061520008E0F9F1F0895CD
:1015260090958095709561957F4F8F4F9F4F089549
:1015360043E068ED80E590E00E94110B80E008959D
:0E154600B11CF601608171818281938108954C
:0E155400E118F10A430B560BC90BD00908959C
:0E156200E0E1F6E0608171818281938108955D
:0E157000E0E0F6E093859F71892B8387089554
:0E157E0000240A94161617061806090608958A
:0E158C0000240A94121613061406050608958C
:0E159A00E894BB2766277727CB0197F90895C1
:0C15A80093FD859193FF81911F01089530
:0C15B400E0E4F1E0808181608083089514
:0C15C000E0E4F1E080818E7F80830895DC
:0C15CC008091040885FB882780F90895B1
:0C15D8008091040886FB882780F90895A4
:0C15E400E0EAF0E01082118280E008953F
:0C15F00097F99F6780E870E060E00895C4
:0A15FC00F2E0AF0EB11CF6010895F5
:0A1606008093223890932338089552
:0A1610008093243890932538089544
:08161A00B70180E290E00895A1
:08162200FC0164BF4083089540
:08162A000E94E00A0C941D0B64
:0816320081E080933538089532
:08163A0081E08093343808952B
:081642000E948D050C942A0A98
:06164A00809302080895E0
:06165000109235380895E8
:0616560080913538089573
:06165C00109234380895DD
:0616620080913438089568
:061668009FEF80EC0895E5
:04166E000C940000D8
:021672000895D9
:021674000895D7
:021676000895D5
:021678000895D3
:02167A000895D1
:0E167C000000000200000000710A00000000E3
:0A168A00B392B592B792B992BB92E9
:02000004008278
:090000000000020000C40700002A
:00000001FF
