:100000000C94C2000C94520B0C94520B0C94650788
:100010000C9490080C940A080C94860A0C94A0077F
:100020000C94520B0C94520B0C94520B0C94520BDC
:100030000C94520B0C94520B0C94520B0C94520BCC
:100040000C94520B0C94520B0C94520B0C94520BBC
:100050000C94520B0C94D9070C9464080C94380837
:100060000C94BC080C94520B0C94520B0C94520B35
:100070000C94520B0C94520B38003806803806381A
:100080001E0016B2381E3836800000407A10F35A2F
:1000900000A0724E18090010A5D4E80000E87648C8
:1000A000170000E40B54020000CA9A3B000000E174
:1000B000F505000080969800000040420F00000007
:1000C000A08601000000102700000000E8030000E7
:1000D00000006400000000000A00000000000100B1
:1000E000000000002C76D888DC674F0823DFC1DFD2
:1000F000AE59E1B1B796E5E3E453C63AE6519976D5
:1001000096E8E6C28426EB898C9B62ED407C6FFC0E
:10011000EFBC9C9F40F2BAA56FA5F490055A2AF750
:100120005C936B6CF9676DC11BFCE0E40D47FEF559
:1001300020E6B500D0ED902E0300943577050080C1
:10014000841E080000204E0A000000C80C33333320
:10015000330F986E12831141EF8D2114893BE655C0
:1001600016CFFEE6DB18D1844B381BF77C1D901DA3
:10017000A4BBE424203284725E228100C9F124EC05
:10018000A1E53D2711241FBECFEFCDBFDFE3DEBFCA
:10019000E8E7F0E040E017C0B591A59135912591D1
:1001A000059107FD0CC095918591EF01F92FE82F7E
:1001B00005900D92A217B307D9F7FE0104C01D9256
:1001C000A217B307E1F7E938F40731F70E944505B4
:0801D0000C94EA00F894FFCF43
:0801D8006E616E00696E6600A5
:1001E000A0E1B0E0E6EFF0E00C94F4097C011B0123
:1001F0006A01FC0116821782838181FF44C39E013C
:100200002F5F3F4F3901F7019381F10193FD8591F4
:1002100093FF81911F01882309F431C3853239F49A
:1002200093FD859193FF81911F01853239F4B701C8
:1002300090E00E94290756016501E5CF10E0512C9E
:10024000912CFFE1F915D8F08B3279F038F4803237
:1002500079F08332A1F4F92DF0612EC08D3261F076
:10026000803369F4292D21602DC0392D3260932E01
:10027000892D8460982E2AC0E92DE86015C097FC6E
:100280002DC020ED280F2A3088F496FE06C03AE0F3
:10029000139F200D1124122F19C08AE0589E200DA3
:1002A0001124522EE92DE0629E2E10C08E3231F4C0
:1002B00096FCE5C2F92DF0649F2E08C08C3621F41F
:1002C000292D2068922E02C0883641F4F10193FD59
:1002D000859193FF81911F018111B3CF9BEB980F03
:1002E000933020F4992D9061805E07C09BE9980FB0
:1002F000933008F066C1992D9F7E96FF16E09F739C
:10030000992E853619F49064992E08C0863621F40A
:10031000392F3068932E02C01111115097FE07C07B
:100320001C3350F444244394410E27E00BC0183092
:1003300038F027E017E005C027E09CE3492E02C013
:10034000212F412C560184E0A80EB11CF6016081DA
:10035000718182819381042DA3010E946D046C013F
:10036000F981FC87F0FF02C0F3FF06C091FC06C0D4
:1003700092FE06C000E205C00DE203C00BE201C020
:1003800000E08C858C7019F001115AC29BC297FE57
:1003900010C04C0CFC85F4FF04C08A81813309F441
:1003A0004A94141474F528E0241578F588E0482E52
:1003B0002CC096FC2AC0812F90E08C159D059CF0E6
:1003C0003CEFC3163FEFD30674F0892D8068982E5A
:1003D0000AC0E2E0F0E0EC0FFD1FE10FF11D8081AB
:1003E000803319F411501111F4CF97FE0EC044243C
:1003F0004394410E812F90E0C816D9062CF41C19A5
:1004000004C04424439401C010E097FE06C01C14AD
:100410001D0434F4C601019605C085E090E002C0D9
:1004200081E090E001110196112331F0212F30E09D
:100430002F5F3F4F820F931F252D30E082179307C8
:1004400014F4581A01C0512C892D897049F4552093
:1004500039F0B70180E290E00E9429075A94F7CF63
:10046000002329F0B701802F90E00E94290793FC18
:1004700009C0552039F0B70180E390E00E942907B8
:100480005A94F7CF97FE4CC04601D7FE02C0812C8C
:10049000912CC60188199909F301E80FF91FED871E
:1004A000FE879601241931092F87388B012F10E020
:1004B0001195019511093FEF8316930629F4B701B1
:1004C0008EE290E00E942907C814D9044CF08F8571
:1004D00098898815990524F4ED85FE85818101C0F0
:1004E00080E3F1E08F1A91082D853E852F5F3F4F05
:1004F0002D873E87801691062CF0B70190E00E9470
:100500002907D9CFC814D90441F49A81963320F42D
:10051000953319F43C8534FF81E3B70190E04EC078
:100520008A81813319F09C859F7E9C87B70190E07A
:100530000E942907111105C094FC18C085E690E0BF
:1005400017C0B7018EE290E00E9429071E5F82E08B
:1005500001E0080FF301E80FF11D8081B70190E081
:100560000E942907802F0113F3CFE6CF85E490E0A6
:10057000B7010E942907D7FC06C0C114D10441F479
:10058000EC85E4FF05C0D194C194D1088DE201C08F
:100590008BE2B70190E00E94290780E32AE0C216AF
:1005A000D1042CF08F5FFAE0CF1AD108F7CFB70152
:1005B00090E00E942907B701C601C0960E94290752
:1005C00054C1833631F0833779F0833509F056C052
:1005D00020C0560132E0A30EB11CF6018081898350
:1005E00001E010E0630112C05601F2E0AF0EB11C51
:1005F000F601C080D18096FE03C0612F70E002C07A
:100600006FEF7FEFC6010E94C50A8C01F92DFF77BD
:1006100014C0560122E0A20EB11CF601C080D180A8
:1006200096FE03C0612F70E002C06FEF7FEFC6013E
:100630000E94BA0A8C01F92DF0689F2EF3FD1AC0B2
:10064000852D90E008171907A8F4B70180E290E023
:100650000E9429075A94F4CFF60197FC859197FEE2
:1006600081916F01B70190E00E94290751105A94BF
:10067000015011090115110579F7F7C0843611F001
:10068000893661F5560197FE09C024E0A20EB11C1F
:10069000F60160817181828193810AC0F2E0AF0E20
:1006A000B11CF60160817181072E000C880B990B3B
:1006B000F92DFF769F2E97FF09C090958095709534
:1006C00061957F4F8F4F9F4FF0689F2E2AE030E05B
:1006D000A3010E948E06C82EC6183FC0092D85377B
:1006E00021F40F7E2AE030E01DC0097F8F3691F0A3
:1006F00018F4883559F0C3C0803719F0883711F0E5
:10070000BEC0006104FF09C0046007C094FE08C0B9
:10071000066006C028E030E005C020E130E002C0FD
:1007200020E132E0560107FF09C084E0A80EB11CA9
:10073000F601608171818281938108C0F2E0AF0E81
:10074000B11CF6016081718180E090E0A3010E94FC
:100750008E06C82EC6180F77902E96FE0BC0092D58
:100760000E7FC11650F494FE0AC092FC08C0092DF9
:100770000E7E05C0DC2C092D03C0DC2C01C0D12E5F
:1007800004FF0DC0FE01EC0DF11D8081803311F4DA
:10079000097E09C002FF06C0D394D39404C0802F01
:1007A000867809F0D39403FD11C000FF06C01C2D0C
:1007B000D51480F4150D1D190DC0D51458F4B701CA
:1007C00080E290E00E942907D394F7CFD51410F46B
:1007D0005D1801C0512C04FF10C0B70180E390E008
:1007E0000E94290702FF17C001FD03C088E790E0BF
:1007F00002C088E590E0B7010CC0802F867859F0E0
:1008000001FF02C08BE201C080E207FD8DE2B7016B
:1008100090E00E942907C11638F4B70180E390E008
:100820000E9429071150F7CFCA94F301EC0DF11D76
:100830008081B70190E00E942907C110F5CF15C053
:10084000F4E0F51560F584E0581A93FE1FC001111D
:1008500027C02C8523FF2AC008ED11E0392D307107
:10086000932EF8018491811124C0552009F4E4CC21
:10087000B70180E290E00E9429075A94F6CFF70171
:100880008681978126C08FEF9FEF23C0B70180E25A
:1008900090E00E9429075A945110F8CFD8CF512CDC
:1008A000B701802F90E00E942907D3CF0CED11E013
:1008B000D5CF91108052B70190E00E9429070F5FB9
:1008C0001F4FCFCF23E0251510F483E0BDCF512C6F
:0A08D000C0CF6096E2E10C940D0A1F
:1008DA00283008F027E03327DA01990F311D87FD08
:1008EA00916000966105710539F432602E5F3D937F
:1008FA0030E32A95E1F708959F3F30F0803871057B
:10090A00610509F03C5F3C5F3D93913008F08068D7
:10091A00911DDF93CF931F930F93FF92EF92192F9D
:10092A00987F9695E92F96959695E90FFF27EC51B2
:10093A00FF4F99273327EE24FF24A701E7010590EB
:10094A000894079428F4360FE71EF81E491F511D14
:10095A00660F771F881F991F0694A1F705900794C1
:10096A0028F4E70EF81E491F561FC11D770F881F6E
:10097A00991F661F0694A1F70590079428F4F80EAC
:10098A00491F561FC71FD11D880F991F661F771F42
:10099A000694A1F70590079420F4490F561FC71F24
:1009AA00D81F990F661F771F881F0694A9F784918D
:1009BA001095177041F0D695C79557954795F794B6
:1009CA00E7941A95C1F7EAE8F0E068941590159152
:1009DA0035916591959105907FE27395E118F10A39
:1009EA00430B560BC90BD009C0F7E10CF11E431F8C
:1009FA00561FC91FD01D7EF4703311F48A95E6CFB5
:100A0A00E894015030F0080F0AF40027021708F49E
:100A1A00202F2395022F7A3328F079E37D932A95A4
:100A2A00E9F710C07D932A9589F6069497956795FC
:100A3A00379517951794E118F10A430B560BC90B12
:100A4A00D00998F023957E9173957A3308F070E374
:100A5A007C932013B8F77E9170617D9330F0839573
:100A6A0071E37D9370E32A95E1F71124EF90FF90EB
:100A7A000F911F91CF91DF91992787FD9095089546
:100A8A000E94510A84E39BE00E94210B8BE29BE0C7
:100A9A000E94260BE0E0F6E080818E7F808381E071
:100AAA00878380818168808380E00E94400B00EB0D
:100ABA0012E90F2EF7E2CF2EF4E0DF2EF02D689424
:100ACA00882487F80F2EF1ECEF2EF2E9FF2EF02D95
:100ADA000F2EF4EDAF2EF2E9BF2EF02DC0E0D8E0D4
:100AEA006894992496F80E944C0B882399F00E94E6
:100AFA00490B0E94770A0E94A10A9F938F931F9322
:100B0A000F930E943B0A0E94FD0A0F900F900F90CC
:100B1A000F902BC00E94460B882339F10E94430B89
:100B2A000E94D00A2B013C01F60180820E94A10A90
:100B3A009F938F93FF92EF920E943B0AC301B201E7
:100B4A000E94EC0623E333E343E55AE30E943C0B9D
:100B5A009F938F937F936F93BF92AF920E943B0AAA
:100B6A008DB79EB70A968DBF9EBF0E940F0B882332
:100B7A00E1F39C820E944C0B8111B5CF889500004D
:020B8A00B2CFE8
:100B8C000FC00E94E80A38F00E94EF0A20F095236B
:100B9C0011F00C941B0B0C944F0B11240C94F70AB2
:100BAC000E947A0970F3959FC1F3950F50E0551F81
:100BBC00629FF001729FBB27F00DB11D639FAA27A6
:100BCC00F00DB11DAA1F649F6627B00DA11D661FF5
:100BDC00829F2227B00DA11D621F739FB00DA11D16
:100BEC00621F839FA00D611D221F749F3327A00DD0
:100BFC00611D231F849F600D211D822F762F6A2F6C
:100C0C0011249F5750409AF0F1F088234AF0EE0FD0
:100C1C00FF1FBB1F661F771F881F91505040A9F7FD
:100C2C009E3F510580F00C941B0B0C94F70A5F3F10
:100C3C00E4F3983ED4F3869577956795B795F79539
:100C4C00E7959F5FC1F7FE2B880F911D96958795B1
:040C5C0097F9089567
:100C6000CF93DF930E94D809C0E0D4E01882A0E2BD
:100C7000B4E084E88C93E0E4F4E010821C821496E3
:100C80001C9214971482188A198A1A8A1B8A1C8A41
:100C90001D8A1E8A1F8A50961C92509751961C924C
:100CA000519752961C92529753961C925397549672
:100CB0001C92549755961C92559756961C9256978F
:100CC00057961C92108A118A128A138A88E8848B9C
:100CD000158A168A178AE0EEF5E0118210821382D7
:100CE00014821582128285E59BE080932C389093C4
:100CF0002D3886E59BE080932A3890932B3887E542
:100D00009BE0809328389093293888E59BE0809376
:0C0D1000263890932738DF91CF9108958A
:100D1C00FA01AA27283051F1203181F1E8946F9320
:100D2C006E7F6E5F7F4F8F4F9F4FAF4FB1E03ED0C6
:100D3C00B4E03CD0670F781F891F9A1FA11D680F64
:100D4C00791F8A1F911DA11D6A0F711D811D911D97
:100D5C00A11D20D009F468943F912AE0269F11240C
:100D6C003019305D3193DEF6CF010895462F477070
:100D7C00405D4193B3E00FD0C9F7F6CF462F4F70CB
:100D8C00405D4A3318F0495D31FD4052419302D029
:100D9C00A9F7EACFB4E0A6959795879577956795CF
:100DAC00BA95C9F700976105710508959B01AC01CF
:100DBC000A2E06945795479537952795BA95C9F7F6
:0C0DCC00620F731F841F951FA01D089567
:100DD800E89409C097FB3EF49095809570956195CD
:100DE8007F4F8F4F9F4F9923A9F0F92F96E9BB2783
:100DF8009395F695879577956795B795F111F8CFFF
:100E0800FAF4BB0F11F460FF1BC06F5F7F4F8F4F69
:100E18009F4F16C0882311F096E911C0772321F05F
:100E28009EE8872F762F05C0662371F096E8862FF7
:100E380070E060E02AF09A95660F771F881FDAF74E
:0A0E4800880F9695879597F9089595
:100E52000F931F93CF93DF93FB01238121FD03C0E7
:100E62008FEF9FEF2CC022FF16C04681578124814D
:100E720035814217530744F4A081B1819D012F5F50
:100E82003F4F208331838C93268137812F5F3F4FE1
:100E92002683378314C08B01EC01FB010084F185AA
:100EA200E02D0995892BE1F6D80116968D919C913A
:100EB2001797019616968D939C931797CE01DF9103
:080EC200CF911F910F910895DB
:100ECA001F920F920FB60F9211242F933F934F93B5
:100EDA005F936F937F938F939F93AF93BF93EF9398
:100EEA00FF938091430180FF07C0E0913238F0916F
:100EFA003338309709F009958091430181FF07C083
:100F0A00E0913038F0913138309709F0099583E053
:100F1A0080934301FF91EF91BF91AF919F918F9180
:100F2A007F916F915F914F913F912F910F900FBEDB
:060F3A000F901F901895B6
:100F40001F920F920FB60F9211242F933F934F933E
:100F50005F936F937F938F939F93AF93BF93EF9321
:100F6000FF933A9B05C0E0912C38F0912D380995FC
:100F70003D9B05C0E0912A38F0912B3809953F9BA5
:100F800005C0E0912638F091273809958FEF87B991
:100F9000FF91EF91BF91AF919F918F917F916F9151
:100FA0005F914F913F912F910F900FBE0F901F9027
:020FB000189592
:100FB2001F920F920FB60F9211242F933F934F93CC
:100FC2005F936F937F938F939F93AF93BF93EF93AF
:100FD200FF93E0E0F6E080E2858380E1858388E0AC
:100FE2008583E0911E38F0911F38309709F00995FA
:100FF200FF91EF91BF91AF919F918F917F916F91EF
:101002005F914F913F912F910F900FBE0F901F90C4
:0210120018952F
:101014001F920F920FB60F9211242F933F934F9369
:101024005F936F937F938F939F93AF93BF93EF934C
:10103400FF938091C70181FF05C0E0912438F091AE
:101044002538099582E08093C701FF91EF91BF9104
:10105400AF919F918F917F916F915F914F913F914C
:0C1064002F910F900FBE0F901F90189559
:101070001F920F920FB60F9211242F933F934F930D
:101080005F936F937F938F939F93AF93BF93EF93F0
:10109000FF9382E080930506E0912238F091233897
:1010A000309709F00995FF91EF91BF91AF919F9112
:1010B0008F917F916F915F914F913F912F910F9001
:0810C0000FBE0F901F90189560
:1010C8001F920F920FB60F9211242F933F934F93B5
:1010D8005F936F937F938F939F93AF93BF93EF9398
:1010E800FF9381E080930506E0912038F091213844
:1010F800309709F00995FF91EF91BF91AF919F91BA
:101108008F917F916F915F914F913F912F910F90A8
:081118000FBE0F901F90189507
:101120001F920F920FB60F9211242F933F934F935C
:101130005F936F937F938F939F93AF93BF93EF933F
:10114000FF93E0912E38F0912F38309709F00995F0
:1011500081E080935301FF91EF91BF91AF919F91F7
:101160008F917F916F915F914F913F912F910F9050
:081170000FBE0F901F901895AF
:101178001F920F920FB60F9211242F933F934F9304
:101188005F936F937F938F939F93AF93BF93EF93E7
:10119800FF935C9B05C0E0912838F09129380995A8
:1011A8008FEF8BB9FF91EF91BF91AF919F918F9185
:1011B8007F916F915F914F913F912F910F900FBE4B
:0611C8000F901F90189526
:1011CE0040E068ED80E690E00E94300B45E168ED6E
:1011DE0081E690E00E94300B40E068ED82E690E000
:1011EE000E94300B40E068ED83E690E00E94300BE9
:1011FE0040E068ED80E790E00E94300B40E068ED43
:10120E0088E790E00E94300B40E068ED8CE790E0BC
:06121E000E94300B089550
:10122400E0ECF1E084E0858317821186128690E574
:1012340095871686118A128A158A168A1182128255
:1012440013868787138A178A8CE080878DEA8487C0
:10125400108A148A81E4808384E59BE08093243897
:081264009093253880E0089505
:10126C00E0E8F1E08BE0808B85E2818B128A138AB7
:10127C00148A158A81E0808380A710A211A212A281
:10128C0013A214A215A216A217A211A612A613A697
:10129C0016A617A610AA11AA12AA13AA14A615A666
:0412AC0080E0089541
:1012B0004E6577204761696E3A2025730A0D0A0D45
:1012C0000043757272656E74204761696E3A20251D
:1012D000730A0D004D656173757265643A2025319E
:1012E0002E3366560A0D0A0D0031003200340038E4
:0412F0000031360093
:1012F40057FD9058440F551F59F05F3F71F04795C3
:10130400880F97FB991F61F09F3F79F087950895A7
:10131400121613061406551FF2CF4695F1DF08C0C6
:10132400161617061806991FF1CF869571056105E3
:04133400089408957C
:10133800E0E4F1E081818111FDCFE0E4F1E08FE7A5
:1013480090E084879587108611868FEF90E08287DA
:10135800938781E08783128281E18083818981116B
:10136800FDCFE0E4F1E0128A81E0808B80E008950F
:10137800E0E0F6E01182118680E18283138284E640
:10138800808789E18387178284E1828782E084836A
:1013980088E4848780E78587168E178E148E158ECD
:0813A80081E0808380E00895DC
:1013B000E0E1F4E0808188608193E83184E0F8071F
:1013C000C9F7E0E3F4E0808188608193E83384E04A
:1013D000F807C9F7E0E5F4E0808188608193E8359B
:0813E00084E0F807C9F7089545
:1013E8002F923F924F925F926F927F928F929F922D
:1013F800AF92BF92CF92DF92EF92FF920F931F931B
:10140800CF93DF93CDB7DEB7CA1BDB0BCDBFDEBFF3
:02141800099435
:10141A002A88398848885F846E847D848C849B847A
:10142A00AA84B984C884DF80EE80FD800C811B8188
:10143A00AA81B981CE0FD11DCDBFDEBFED010895BE
:10144A00E0E0F8E086EB92E080879187158280E4FD
:10145A00868383E08783138614861686158686E03C
:0C146A0098E380930238909303380895B3
:10147600A0E0B0E0E1E4FAE00C94040AAE014B5FB0
:101486005F4FFA0161917191AF018091023890919D
:0C14960003380E94F000E2E00C941D0AF4
:1014A2000E94E7080E9430060E94BC090E941209AD
:1014B2000E9436090E949C090E94D90A0E94250AAC
:0A14C2000E94150B0E94940A089581
:1014CC00092E0394000C11F4882352F0BB0F40F446
:1014DC00BF2B11F460FF04C06F5F7F4F8F4F9F4F86
:0214EC00089561
:1014EE0080910B068295869587708F5F853009F403
:0E14FE0080E08295880F807E0E94E10A0895AA
:10150C001F920F920FB60F9211248F938FEF83B906
:0C151C008F910F900FBE0F901F9018953C
:1015280040E068ED80E191E00E94300BE0E1F1E0FD
:0A15380012821382789480E0089577
:10154200E0910B06E295E695E770F0E0EE0FFF1FE3
:0A155200EC5EF74C80819181089552
:10155C00CF93C82F0E94090B8823E1F3C093020894
:08156C0080E090E0CF910895AA
:10157400FC010590615070400110D8F7809590955A
:061584008E0F9F1F089569
:10158A00FC016150704001900110D8F78095909548
:06159A008E0F9F1F089553
:1015A00060911006709111068091120690911306B9
:0215B00008959C
:1015B20043E068ED80E590E00E94300B80E0089502
:0E15C200E0E0F6E093859F71892B8387089502
:0E15D00000240A941616170618060906089538
:0E15DE0000240A94121613061406050608953A
:0E15EC00E894BB2766277727CB0197F908956F
:0C15FA00E0E4F1E08081816080830895CE
:0C160600E0E4F1E080818E7F8083089595
:0C1612008091040885FB882780F908956A
:0C161E008091040886FB882780F908955D
:0C162A00E0EAF0E01082118280E00895F8
:0C16360097F99F6780E870E060E008957D
:0A1642008093223890932338089516
:0A164C008093243890932538089508
:0A1656000E94030B0E94380B089558
:08166000FC0164BF4083089502
:0816680081E0809335380895FC
:0816700081E0809334380895F5
:081678000E94C6050C94660AED
:06168000809302080895AA
:06168600109235380895B2
:06168C008091353808953D
:06169200109234380895A7
:0616980080913438089532
:06169E009FEF80EC0895AF
:0416A4000C940000A2
:0216A8000895A3
:0216AA000895A1
:0216AC0008959F
:0216AE0008959D
:0216B00008959B
:0E16B2000000000200000000AE0A0000000070
:0A16C000E992EB92ED92EF92F192A5
:02000004008278
:090000000000020000C40700002A
:00000001FF
