:100000000C944B000C94E90F0C94E90F0C94940A97
:100010000C94C10B0C94370B0C94A80F0C94DB09B7
:100020000C94E90F0C94E90F0C94E90F0C94E90F70
:100030000C94E90F0C94E90F0C94E90F0C94E90F60
:100040000C94E90F0C94E90F0C94E90F0C94E90F50
:100050000C94E90F0C94A90E0C94790F0C946D0C70
:100060000C94ED0B0C94E90F0C94E90F0C94E90F30
:100070000C94E90F0C94E90F3800380880380838E0
:1000800022001FF238223836803836383800200CEB
:100090003838383C800011241FBECFEFCDBFDFE3DE
:1000A000DEBFE8E7F0E040E017C0B591A5913591DB
:1000B0002591059107FD0CC095918591EF01F92FD0
:1000C000E82F05900D92A217B307D9F7FE0104C0DF
:1000D0001D92A217B307E1F7E539F40731F70E9443
:0A00E000C9060C94070FF894FFCF37
:1000EA00A8E2B0E0EBE7F0E00C94FA0D89A39AA33A
:1000FA00688F798F2A8FFB010190F081E02DED87BF
:10010A00FE87FB010280F381E02DEB83FC83FB0178
:10011A000480F581E02DEC8BFD8BFB010084F185D9
:10012A00E02DEDA3FEA3FB010680F781E02DE98314
:10013A00FA83FA01408051806280738020E030E0C7
:10014A00A901C301B2010E94B20F87FF06C077FA64
:10015A00709477F870948DE204C0FD85F2FF6DC348
:10016A008BE2E981FA8180832C893D89215031090A
:10017A002F83388741E050E04A8B5B8B06C08C891D
:10018A009D898F8398871A8A1B8AD301C201BF77F8
:10019A000097E0E8AE07EFE7BE07C9F42A8D022E02
:1001AA00000C330B2154310989819A814A895B8970
:1001BA00840F951F2A31310518F46EE67EE902C0D4
:1001CA0062E77EE90E943F0F82E79EE925C3019715
:1001DA00A048BF47E8F08A8D082E000C990B81547D
:1001EA0091098B839C8389819A81EA89FB898E0F85
:1001FA009F1F2B813C812A31310518F466E77EE97D
:10020A0002C06AE77EE90E943F0F8AE79EE904C3BB
:10021A0020E030E0A901C301B2010E94B20F812C93
:10022A00912C20E8A22E2FE3B22E212C312C8823E8
:10023A0009F488C049865A866B867C8620E030E0BD
:10024A0040E251E4C501B4010E94C80F6B017C0170
:10025A00D301C2018C199D09AE09BF09B7FF07C0B6
:10026A00B095A095909581959F4FAF4FBF4F02973C
:10027A00A105B10534F43FEF231A330A46015701A9
:10028A00DDCFA3019201C701B6010E94B20F87FD1B
:10029A00F2CFC984DA84EB84FC84C818D908EA0846
:1002AA00FB084FEFC41AD40AE40AF40A53E0C5164D
:1002BA00D104E104F10408F443C000E010E0A30112
:1002CA009201C501B4010E94B70F1816DCF584ED3E
:1002DA0028168EEF3806CCF401151105B1F420E08A
:1002EA0030E040E85AE5C301B2010E94C80F2B0171
:1002FA003C0120E030E040E85AE5C501B4010E9423
:10030A00C80F4B015C0101E010E020E030E040E260
:10031A0051E4C501B4010E94CC0F4B015C0191E08C
:10032A00291A3108D301C20188199909AA09BB09F6
:10033A000196A11DB11D0397A105B10508F0BFCF14
:10034A0024013501EA8D0E2E000CFF0BEA8FFB8F7C
:10035A00CF010E94470F88A32B813C8137FD03C040
:10036A0029873A8704C046E050E049875A8758A14E
:10037A00573649F48B819C81892B41F4E1E0F0E006
:10038A00E987FA8703C048A1498B10C02CEF2216CF
:10039A002FEF32060CF456C229853A852216330607
:1003AA000CF050C237FE51C256E6598B89859A85A0
:1003BA00019689879A879989963699F437FE08C0F3
:1003CA00812C912C90E8A92E9FE3B92E212C312C57
:1003DA00E8A1E73631F029853A85220D331D2987B0
:1003EA003A8788A69FA2AB82BF86730162011E8AE2
:1003FA001F8A8E899F89E985FA858E179F07E4F5FA
:10040A0028A53FA14B815F85C701B6010E94CC0F89
:10041A000E945C076C8F7D8F8E8F9F8F0E94720F58
:10042A006BA38701760117FB109517F9109528A57C
:10043A003FA14B815F856C8D7D8D8E8D9F8D0E9436
:10044A002B066B017C01F7FAF094F7F8F09420E0A0
:10045A0030E040E251E468A57FA18B819F850E942C
:10046A00CC0F68A77FA38B839F874E895F894F5FD5
:10047A005F4F4E8B5F8BBDCF20E030E040EA50E407
:10048A0068A57FA18B819F850E94C80F6B837C839F
:10049A008D839E839B01AC01C701B6010E94B20FF6
:1004AA0087FD0DC02B813C814D815E81C701B6015C
:1004BA000E94B20F811107C0FBA1F0FD04C01B828C
:1004CA001C821D821E82A30192016B817C818D8117
:1004DA009E810E946C0F2B013C0120E030E040E23B
:1004EA0051E4C501B4010E94C80F6B837F87D82EDF
:1004FA00C92E9B01482F592FC301B2010E94B70F81
:10050A0087FD11C02FEF221A320A3989363679F45B
:10051A0049855A854F5F5F4F49875A875B815FA339
:10052A008F8588A70BC08B829F86DA2CCB2C998962
:10053A00953631F0EB81EFA3FF85F8A7410106C09C
:10054A002B812FA33F8538A7812C912CAA88BB88A1
:10055A00E12CF12C1E8A1F8A1F86188A4D855E851A
:10056A00407155274BA35CA3EF85F88929853A8505
:10057A00E217F30734F04E895F89452B09F4A0C0CE
:10058A00ACC08501E88DF98D808591850597A816FF
:10059A00B90688F72FA138A54D2D5C2DC301B201EC
:1005AA000E94CC0F0E945C076C8F7D8F8E8F9F8F6D
:1005BA000E94720F6A30710514F069E070E08BA135
:1005CA009CA1892B69F46115710551F498A197369C
:1005DA0039F497FE05C0F7013196EB83FC8341C0DD
:1005EA002E893F89232BA1F497FE12C03FEFA31A4D
:1005FA00B30AE981FA81E00FF11F4EE240838F814D
:10060A00988501978F839887E1E0F0E0EE8BFF8B66
:10061A00E981FA81EA0DFB1DEB82FC828B819C81C8
:10062A00892B49F020E321934B815C814150510988
:10063A004B835C83F3CFC7018A0D9B1D2F813885BD
:10064A002E193F095C01EFEFAE1ABE0AE981FA8161
:10065A00E80FF91F605D6083A901415051094F837A
:10066A0058878301720117FB109517F910952FA16E
:10067A0038A54D2D5C2D6C8D7D8D8E8D9F8D0E94A4
:10068A002B062B013C0177FA709477F8709420E0DE
:10069A0030E040E251E46FA178A58D2D9C2D0E9497
:1006AA00CC0F6FA378A7D82EC92E51E0851A9108CE
:1006BA008F85988901968F87988BEB80FC8054CF21
:1006CA00FD85F4FF0AC0E981FA81EA0DFB1D8EE27D
:1006DA00808395012F5F3F4F590149815A814A0D05
:1006EA005B1D4B835C83FA011082F989F53609F0A8
:1006FA0060C0E981FA812DA13EA1E20FF31F319773
:10070A00108237FE06C031942194310801E010E0CE
:10071A0002C000E010E0EDA1FEA1319749815A81A3
:10072A00E40FF51F22E030E08AE0E82EF12CCF0139
:10073A0049815A81841B950B2114310479F0C10136
:10074A00B7010E94700E805D82931B01215031090E
:10075A008F81988501978F839887E9CF12161306A0
:10076A0074F3FC013197E40FF51F012B11F42BE20E
:10077A0001C02DE22083029769817A81680F791F6F
:10078A002A8D3B8D215431092A31310510F025E695
:10079A0001C025E4FB0120832F81388522503109CD
:1007AA002F833887A816B90624F48B819C810E946E
:1007BA003F0F3D8531FF2EC030FD2CC04F8158853B
:1007CA00141615063CF589819A810E94C70EE981A3
:1007DA00FA818E0F9F1F9C0149815A81241B350B78
:1007EA00EA89FB892E173F074CF0FC012081EF8133
:1007FA00F885E80FF91F20830197EDCF4F815885BF
:10080A0060E370E089819A818E0F9F1F0E94260FF4
:10081A001C8A1D8A89819A810E94C70E0D851E85B0
:10082A002C893D89AC0169817A8189A19AA10E94AA
:10083A00CF0AA896E2E10C94430E5D8553FF9FCC44
:10084A0080E28FCC35E6398BCCCD46E6498BC9CDD3
:10085A00AEE0B0E0E3E3F4E00C94FD0D4C016B0173
:10086A0019821A828FEF9FEF8B839C831D821E82CF
:10087A004F83588729873A87A12CB12CD6016D90CE
:10088A007C90F301EA0DFB1D808181110FC0D60116
:10089A00ED93FC938081853209F0D3C13F01BFEF0C
:1008AA006B1A7B0AF6016082718219C0853279F36C
:1008BA00B401082E000C990B0E9492094FEFA41A5A
:1008CA00B40ADCCF8C32ACF08D32F9F489819A818A
:1008DA00816089839A833196D601ED93FC93D60180
:1008EA00ED91FC9180818B3269F789819A818460CC
:1008FA00F0CF803221F489819A818860EACF8332ED
:10090A0051F489819A818061E4CF803321F489810D
:10091A009A818260DECFB701C6010E94930B8D8354
:10092A009E8397FF0BC029813A81B1E02B27298347
:10093A003A839195819591098D839E8389819A81C4
:10094A0080FF03C08D7F89839A83D601ED91FC9144
:10095A00119780818E3249F43196ED93FC93B70159
:10096A00C6010E94930B8B839C83C6010E94630D70
:10097A00582ED601ED91FC918081082E000C990B1E
:10098A000E94470F893609F443C084F4833609F478
:10099A0002C134F4853209F427C18136E1F030C14D
:1009AA008436B1F188360CF4D9C02AC1803709F4EB
:1009BA009AC03CF48E3609F4BCC08F3609F461C083
:1009CA001FC1853709F440C0883709F476C08337D8
:1009DA0009F016C1F3C0652D70E0A701CE010B9690
:1009EA000E94830D892B09F426C1D601ED91FC9151
:1009FA001197CF0101968D939C932081AE01455F9B
:100A0A005F4FBE016F5F7F4FC4010E94000010C19B
:100A1A00652D70E0970141E050E0CE010B960E94EF
:100A2A000000892B09F407C1F601808191810196A2
:100A3A0080839183AE01455F5F4FBE016F5F7F4F39
:100A4A00C4010E940000F4C0652D70E0970140E0E7
:100A5A0050E0CE010B960E940000892B09F4EBC0EE
:100A6A00D6018D919C91119701968D939C93AE011D
:100A7A00455F5F4FBE016F5F7F4FC4010E94000058
:100A8A00D7C0652D70E0970140E050E0CE010B968B
:100A9A000E940000892B09F4CEC0F6018081918161
:100AAA00019680839183AE01455F5F4FBE016F5F00
:100ABA007F4FC4010E940000BBC0652D70E0970102
:100ACA0040E050E0CE010B960E940000892B09F409
:100ADA00B2C0D601ED91FC911197CF0101968D9389
:100AEA009C9320811CC0970140E050E060EF70E0C9
:100AFA00CE010B960E940000892B09F49CC0F601D6
:100B0A00808191810196808391838B859C85892B35
:100B1A0029F420E030E04CEC5FE984C028E7AE011C
:100B2A00455F5F4FBE016F5F7F4FC4010E940000A7
:100B3A007FC0A501400F511F652D70E09701CE01BE
:100B4A000B960E940000892B09F475C0D6018D917D
:100B5A009C91119701968D939C9373C0652D70E0BB
:100B6A00A701CE010B960E94830D892B09F463C05D
:100B7A00D601ED91FC911197CF0101968D939C932B
:100B8A002081AE01455F5F4FBE016F5F7F4FC40199
:100B9A000E9475004DC0B0E85B124DC0F60180811D
:100BAA009181019680839183D701ED91FC911197F0
:100BBA00CF0102968D939C93808120C0B0E85B128E
:100BCA003AC0F60180819181019680839183D70191
:100BDA00ED91FC911197CF0102968D939C934081E0
:100BEA00518120E030E01EC0B0E85B1224C0F6015B
:100BFA00208131812F5F3F4F208331838B870DC046
:100C0A0085E28B87D6016D927C9219821A821D82A7
:100C1A001E828FEF9FEF8B839C8321E030E0AE0131
:100C2A00455F5F4FBE016F5F7F4FC4010E94430C57
:100C3A008A0D9B1D07C0F6018081918101968083F0
:0C0C4A009183C5012E96EFE00C94460E3D
:100C5600A5E1B0E0E1E3F6E00C94FA0D4701580196
:100C66000E94C80F2B013C01A80197010E946C0F3E
:100C7600162FC72ED82EF92E862F9C2DAD2DBF2DC3
:100C860089839A83AB83BC83AA81FB81EC81ED8047
:100C96003E802F8008850D8B5E2F5F71212F3A2FA6
:100CA6004F2F60E070E080E090E0211531054105AE
:100CB60000E15007610571058105910509F05EC0E7
:100CC6005E2F6E2D732D822D9D8904E30E94A50D46
:100CD6002D873E874F87588B698B7A8B8B8B9C8BA6
:100CE6008D859E8597708F3F974009F447C0A30175
:100CF6009201612F7C2D8D2D9F2D0E946B0F9B01E4
:100D0600AC01C501B4010E94B20F8823B9F149862E
:100D16005A866B867C8629853A854B855C85C50116
:100D2600B4010E946C0FB62E872E982EA92E262F60
:100D3600372F482F592F612F7C2D8D2D9F2D0E94E7
:100D4600B20F811118C02B2D8B2D982DA92DBA2DE0
:100D560089839A83AB83BC833A814B815C816E2DF8
:100D6600732D822D9D89A1E00E94FB0E122FC32EAA
:100D7600D42EF52E03C01B2D6401FA2C612F7C2D79
:0C0D86008D2D9F2D6596E2E10C94430E2C
:100D92000E945B0E8DEA9FE00E94A30FE0E0F6E066
:100DA20080818E7F808381E08783808181688083D8
:100DB20080E00E94D40F08EB19E90F2EF7E28F2E84
:100DC200F4E09F2EF02D6894222427F80F2EF9ECE0
:100DD200AF2EF9E9BF2EF02D0F2EFCEDCF2EF9E943
:100DE200DF2EF02DC0E0D8E06894772476F80F2E3D
:100DF200F7EEEF2EF9E9FF2EF02D0E94E00F882387
:100E020099F00E94DD0F0E94B80E0E94E20E9F939D
:100E12008F931F930F930E94130E0E947F0F0F90C8
:100E22000F900F900F903BC00E94DA0F8823B9F108
:100E32000E94D70F0E941D0F0E941B0A23E333E377
:100E420043E55AE30E94C80F662E572E482E392ECC
:100E5200F40120820E94E20E9F938F93BF92AF9281
:100E62000E94130EDF92CF920E94130E0F900F90EA
:100E72000F900F900F900F900E94910F8823E1F333
:100E82007C823F924F925F926F92FF92EF920E940A
:100E9200130E0F900F900F900F900F900F900E94D3
:100EA200910F8823E1F37C820E94E00F8111A5CF8C
:060EB20088950000A2CFAC
:100EB8004F925F926F927F928F929F92AF92BF9262
:100EC800CF92DF92EF92FF92CF93DF93CDB7DEB749
:100ED8002897CDBFDEBF6B017C01DC01CB0147E168
:100EE800B695A795979587954A95D1F799278F57DE
:100EF8009109873191059CF597FD36C088248A941D
:100F0800982C3FE7A32EB12C04C0B594A7949794CE
:100F180087948A95D2F7D501C4018C219D21AE21F1
:100F2800BF21892B8A2B8B2BD1F020E030E040E8C1
:100F38005BE7C701B6010E946C0F6D837E838F83C8
:100F48009887F7FE04C0C80CD91CEA1CFB1C8094C7
:100F58009094A094B094C820D920EA20FB205C2D5E
:100F68004D2D3E2D2F2D21C020E030E040E85BE7DD
:100F7800C701B6010E946C0F69837A838B839C83B7
:100F8800F7FE0FC0D701C601880F991FAA1FBB1F04
:100F9800892B8A2B8B2B19F350E040E030E82FEB9C
:100FA80004C050E040E030E020E0652F742F832F2C
:100FB800922F2896CDBFDEBFDF91CF91FF90EF90A3
:100FC800DF90CF90BF90AF909F908F907F906F9061
:060FD8005F904F900895A8
:100FDE0010C00E945D0F58F00E94560F40F029F489
:100FEE005F3F29F00C949D0F51110C94650F0C94DA
:100FFE00E30F0E94210D68F39923B1F3552391F36A
:10100E00951B550BBB27AA2762177307840738F069
:10101E009F5F5F4F220F331F441FAA1FA9F335D0C6
:10102E000E2E3AF0E0E832D091505040E695001C7A
:10103E00CAF72BD0FE2F29D0660F771F881FBB1F34
:10104E00261737074807AB07B0E809F0BB0B802D12
:10105E00BF01FF2793585F4F3AF09E3F510578F03E
:10106E000C949D0F0C94650F5F3FE4F3983ED4F300
:10107E00869577956795B795F7959F5FC9F7880F12
:10108E00911D9695879597F90895E1E0660F771F64
:10109E00881FBB1F621773078407BA0720F0621BF5
:0E10AE00730B840BBA0BEE1F88F7E0950895C4
:1010BC000FC00E94560F38F00E945D0F20F0952350
:1010CC0011F00C949D0F0C94E30F11240C94650FEC
:1010DC000E94210D70F3959FC1F3950F50E0551FA1
:1010EC00629FF001729FBB27F00DB11D639FAA2771
:1010FC00F00DB11DAA1F649F6627B00DA11D661FC0
:10110C00829F2227B00DA11D621F739FB00DA11DE0
:10111C00621F839FA00D611D221F749F3327A00D9A
:10112C00611D231F849F600D211D822F762F6A2F36
:10113C0011249F5750409AF0F1F088234AF0EE0F9B
:10114C00FF1FBB1F661F771F881F91505040A9F7C8
:10115C009E3F510580F00C949D0F0C94650F5F3FE2
:10116C00E4F3983ED4F3869577956795B795F79504
:10117C00E7959F5FC1F7FE2B880F911D969587957C
:04118C0097F9089532
:1011900011C00E94560F38F00E945D0F20F039F404
:1011A0009F3F19F426F40C94E30F0EF4E095E7FB4F
:1011B0000C949D0FE92F0E94210D58F3BA17620776
:1011C00073078407950720F079F4A6F50C94640F53
:1011D0000EF4E0950B2EBA2FA02D0B01B901900152
:1011E0000C01CA01A0011124FF27591B99F0593F96
:1011F00050F4503E68F11A16F040A22F232F342FDE
:101200004427585FF3CF469537952795A795F0402B
:101210005395C9F77EF41F16BA0B620B730B840B40
:10122000BAF09150A1F0FF0FBB1F661F771F881FF8
:10123000C2F70EC0BA0F621F731F841F48F4879550
:1012400077956795B795F7959E3F08F0B0CF939542
:0E125000880F08F09927EE0F9795879508955F
:10125E00CF93DF93C0E0D4E01882A0E2B4E084E83C
:10126E008C93E0E4F4E010821C8284E014968C935C
:10127E0014971482188A198A1A8A1B8A1C8A1D8A44
:10128E001E8A1F8A50961C92509751961C92519707
:10129E0052961C92529753961C92539754961C92A8
:1012AE00549755961C92559756961C92569757964C
:1012BE001C92108A118A128A138A88E8848B158AE6
:1012CE00168A178AE0EEF5E01182108213821482DC
:1012DE00158212828EEE9FE080932C3890932D38DB
:1012EE008FEE9FE080932A3890932B3880EF9FE00B
:1012FE00809328389093293881EF9FE08093263889
:10130E009093273882EF9FE080932438909325386E
:06131E00DF91CF9108955C
:101324000F931F93CF93DF93DB012D913C91119782
:1013340030FF25C016964D915C91179714962D9108
:101344003C9115974217530778F41296ED91FC914E
:101354001397808312962D913C9113972F5F3F4FE3
:1013640012962D933C93139716962D913C911797B3
:101374002F5F3F4F16962D933C93179715C01C96DD
:10138400ED91FC911D97309719F48FEF9FEF0CC0EE
:101394008B01EC010995892BC1F7F80186819781AE
:1013A400019686839783CE01DF91CF911F910F9190
:0213B40008959A
:1013B6001F920F920FB60F9211242F933F934F93C4
:1013C6005F936F937F938F939F93AF93BF93EF93A7
:1013D600FF933B9B05C0E0912C38F0912D38099581
:1013E6003A9B05C0E0912A38F0912B3809953D9B30
:1013F60005C0E0912838F091293809953F9B05C032
:10140600E0912438F091253809958FEF87B9FF913F
:10141600EF91BF91AF919F918F917F916F915F9166
:101426004F913F912F910F900FBE0F901F901895DF
:10143600E89409C097FB3EF4909580957095619568
:101446007F4F8F4F9F4F9923A9F0F92F96E9BB271E
:101456009395F695879577956795B795F111F8CF9A
:10146600FAF4BB0F11F460FF1BC06F5F7F4F8F4F05
:101476009F4F16C0882311F096E911C0772321F0FB
:101486009EE8872F762F05C0662371F096E8862F93
:1014960070E060E02AF09A95660F771F881FDAF7EA
:0A14A600880F9695879597F9089531
:1014B000A2E8B0E0EEE5FAE00C94000E5C014A010F
:1014C000CF57DF4F68837983C158D040C12CD12CCE
:1014D000CF57DF4FE881F981C158D0408081882300
:1014E000E9F07401860120E830E0AE014F5F5F4F04
:1014F000BE016F577F4FC5010E942D048C0D9D1DAD
:101500008C159D054CF48FE490E080930638909301
:1015100007388FEF9FEF03C06C01DACFC601CE57BB
:08152000DF4FECE00C94490ED2
:101528001F920F920FB60F9211242F933F934F9350
:101538005F936F937F938F939F93AF93BF93EF9333
:10154800FF938091430180FF07C0E0913238F0910A
:101558003338309709F009958091430181FF07C01E
:10156800E0913038F0913138309709F0099583E0EF
:1015780080934301FF91EF91BF91AF919F918F911C
:101588007F916F915F914F913F912F910F900FBE77
:061598000F901F90189552
:10159E00A0E0B0E0E5EDFAE00C94000E6C015B010A
:1015AE007A01E901480181E08822992400FD03C0F7
:1015BE004217530750F0A701B501C6010E94C10D95
:1015CE00EC16FD0610F0C70117C08E010E191F098B
:1015DE000115110541F0B60180E290E00E949209DA
:1015EE0001501109F5CF8114910429F4A701B50119
:1015FE00C6010E94C10DCE01CDB7DEB7ECE00C9452
:02160E00490E83
:101610000E94290D88F09F5798F0B92F9927B7514C
:10162000B0F0E1F0660F771F881F991F1AF0BA9586
:10163000C9F714C0B13091F00E94640FB1E0089571
:101640000C94640F672F782F8827B85F39F0B93F63
:10165000CCF3869577956795B395D9F73EF4909539
:0E1660008095709561957F4F8F4F9F4F089535
:10166E001F920F920FB60F9211242F933F934F9309
:10167E005F936F937F938F939F93AF93BF93EF93EC
:10168E00FF938091C70181FF05C0E0912238F09150
:10169E002338099582E08093C701FF91EF91BF91A6
:1016AE00AF919F918F917F916F915F914F913F91EC
:0C16BE002F910F900FBE0F901F901895F9
:1016CA00E0E0F8E086EB92E080879187158280EC73
:1016DA00868383E08783138614861686158683EFAE
:1016EA009FE0809302389093033884EF9FE08093C1
:1016FA0000389093013885EF9FE0809304389093E7
:10170A0005381092343810923538E0913638F09115
:0C171A00373888E098E3808391830895BD
:10172600DC01ED91FC91119780818A3221F080E0F5
:1017360090E03AE00EC03196ED93FC93DB01ED911B
:10174600FC911197CF0102968D939C938081918194
:101756000895ED91FC911197208120532A3068F469
:10176600389FA001399F500D1124CA01820F911D87
:0C1776003196ED93FC931197ECCF089591
:101782001F920F920FB60F9211242F933F934F93F4
:101792005F936F937F938F939F93AF93BF93EF93D7
:1017A200FF93E0912E38F0912F38309709F0099588
:1017B20081E080935301FF91EF91BF91AF919F918F
:1017C2008F917F916F915F914F913F912F910F90E8
:0817D2000FBE0F901F90189547
:1017DA001F920F920FB60F9211242F933F934F939C
:1017EA005F936F937F938F939F93AF93BF93EF937F
:1017FA00FF935C9B05C0E0912638F0912738099544
:10180A008FEF8BB9FF91EF91BF91AF919F918F911C
:10181A007F916F915F914F913F912F910F900FBEE2
:06182A000F901F901895BD
:1018300040E068ED80E690E00E94BC0F45E168ED75
:1018400081E690E00E94BC0F40E068ED82E690E007
:101850000E94BC0F40E068ED83E690E00E94BC0F60
:1018600040E068ED80E790E00E94BC0F40E068ED4A
:1018700088E790E00E94BC0F40E068ED8CE790E0C4
:061880000E94BC0F089558
:10188600A0E0B0E0E9E4FCE00C94020E7C01FB0170
:10189600EA01C901A280B380C480D580008111818C
:1018A600209711F4C0EADFE9009719F4CE010E94EF
:1018B600C70EB7FC04C0A816B90608F4C501960100
:1018C600AC01BE01C7010E94CF0ACDB7DEB7EAE080
:0418D6000C944B0E15
:1018DA001F920F920FB60F9211242F933F934F939B
:1018EA005F936F937F938F939F93AF93BF93EF937E
:1018FA00FF930E94C00F82E080930506FF91EF914B
:10190A00BF91AF919F918F917F916F915F914F910D
:0E191A003F912F910F900FBE0F901F901895C8
:10192800E0ECF1E084E0858317821186128690E569
:1019380095871686118A128A158A168A118212824A
:1019480013868787138A178A8CE080878DEA8487B5
:10195800108A148A81E480838DEE9FE08093223878
:081968009093233880E00895FC
:10197000990F0008550FAA0BE0E8FEEF16161706A0
:10198000E807F907C0F012161306E407F50798F008
:10199000621B730B840B950B39F40A2661F0232B21
:1019A000242B252B21F408950A2609F4A140A6959D
:0819B0008FEF811D811D0895D8
:1019B8004E6577204761696E3A2025730A0D0A0D36
:1019C8000043757272656E74204761696E3A20250E
:1019D800730A0D004D656173757265643A200025C0
:1019E800312E3366560A0D0A0D00310032003400DC
:0519F80038003136004B
:1019FE00E0E8F1E08BE0808B85E2818B128A138A1E
:101A0E00148A158A81E0808380A710A211A212A2E7
:101A1E0013A214A215A216A217A211A612A613A6FD
:101A2E0016A617A610AA11AA12AA13AA14A615A6CC
:041A3E0080E00895A7
:101A420057FD9058440F551F59F05F3F71F047956D
:101A5200880F97FB991F61F09F3F79F08795089552
:101A6200121613061406551FF2CF4695F1DF08C071
:101A7200161617061806991FF1CF8695710561058E
:041A82000894089527
:101A8600E0E4F1E081818111FDCFE0E4F1E08FE750
:101A960090E084879587108611868FEF90E0828785
:101AA600938781E08783128281E180838189811116
:101AB600FDCFE0E4F1E0128A81E0808B80E00895BA
:101AC600CF93DF93EC0190E0E92FF0E0EE0FFF1FDC
:101AD600EC5DF1468081811102C081810EC0A88132
:101AE600B9812C91821305C091811196A883B9837F
:101AF60001C09F5F9B3040F3892FDF91CF910895FE
:101B0600FA0160387105CCF0623871051CF0633853
:101B1600710599F4A081B1819D012C5F3F4F20830F
:101B260031834D915D916D917C91FC014083518390
:101B36006283738381E090E0089580E090E00895E9
:101B460097FB10F8169400080F93083098F0085089
:101B5600232F342F452F562F672F782F892F902D1F
:101B6600F4CF0594979587957795679557954795FB
:0C1B7600379527950A95AAF70F9108955E
:101B8200A0E0B0E0E7ECFDE00C94040E6C01EB0188
:101B92008A017B01E40EF51ECE15DF0541F0899125
:101BA200B601082E000C990B0E949209F5CFC801CC
:0A1BB200CDB7DEB7E8E00C944D0E4D
:101BBC00E0E0F6E01182118680E18283138284E6F4
:101BCC00808789E18387178284E1828782E084831E
:101BDC0088E4848780E78587168E178E148E158E81
:081BEC0081E0808380E0089590
:101BF4002F923F924F925F926F927F928F929F9219
:101C0400AF92BF92CF92DF92EF92FF920F931F9306
:101C1400CF93DF93CDB7DEB7CA1BDB0BCDBFDEBFDF
:021C2400099421
:101C2600A0E0B0E0E9E1FEE00C940A0EAE014B5FE5
:101C36005F4FFA0161917191AF01E0913638F091F1
:101C46003738808191810E942B0EE2E00C94530E6E
:101C5600A2E0B0E0E1E3FEE00C94080E8C014983BB
:101C66005A83AE014F5F5F4F0E94580AF8012081E8
:101C760024FF02C08FEF9FEF2296E4E00C94510EF2
:101C86002A88398848885F846E847D848C849B8406
:101C9600AA84B984C884DF80EE80FD800C811B8114
:101CA600AA81B981CE0FD11DCDBFDEBFED0108954A
:101CB6000E94180C0E942F090E94DE0D0E94940CAF
:101CC6000E94FF0C0E94430D0E942F0F0E94650B7D
:0A1CD6000E94970F0E94D50E08959A
:101CE00097FB072E16F4009407D077FD09D00E94C9
:101CF000840E07FC05D03EF4909581959F4F089582
:081D0000709561957F4F089575
:101D0800AA1BBB1B51E107C0AA1FBB1FA617B70719
:101D180010F0A61BB70B881F991F5A95A9F7809535
:081D28009095BC01CD01089566
:101D3000092E0394000C11F4882352F0BB0F40F4D9
:101D4000BF2B11F460FF04C06F5F7F4F8F4F9F4F19
:021D50000895F4
:101D52008F93EF93FF93E0E0F6E080E2858380E1EA
:0E1D6200858388E08583FF91EF918F9118951E
:101D700080910B068295869587708F5F853009F478
:0E1D800080E08295880F807E0E944F0F0895AC
:101D8E00FC01AF014F5F5F4F2081222311F0FA015A
:0C1D9E00F8CF9F01281B390BC9010895E4
:101DAA0040E068ED80E191E00E94BC0FE0E1F1E0E3
:0A1DBA0012821382789480E00895ED
:101DC400E0910B06E295E695E770F0E0EE0FFF1F59
:0A1DD400E85EF74C808191810895CC
:101DDE00CF93C82F0E948B0F8823E1F3C093020884
:081DEE0080E090E0CF91089520
:101DF6000024A7FD00942A0F301D401D501D601DB4
:081E0600701D801D901D089560
:101E0E00EC010E94F70F0E94F60FCE010E94F80F10
:061E1E00CE010E94EB0F53
:101E240068076C094C836A9074A07AC00080688843
:061E340000846C820081B5
:101E3A006091100670911106809112069091130616
:021E4A000895F9
:101E4C00FC01480F591FE417F50711F06193FBCF04
:021E5C000895E7
:101E5E0043E068ED80E590E00E94BC0F80E00895BD
:101E6E00494E4600696E66004E414E006E616E0030
:101E7E00FC01DB012D91BD0121932111FACF0895B3
:101E8E009C01215431092A31310508F480620895EC
:0E1E9E00E0E0F6E093859F71892B838708951D
:0E1EAC0000240A941616170618060906089553
:0E1EBA0000240A941216130614060506089555
:0E1EC800E894BB2766277727CB0197F908958A
:0E1ED6005058BB27AA270E94C8080C94980EEB
:0E1EE4000E94080B6894B1110C94650F0895CC
:0C1EF2008F9381E0809305068F91189576
:0C1EFE00E0E4F1E08081816080830895C1
:0C1F0A00E0E4F1E080818E7F8083089588
:0C1F16008091040885FB882780F908955D
:0C1F22008091040886FB882780F9089550
:0C1F2E00E0EAF0E01082118280E00895EB
:0C1F3A0097F99F6780E870E060E0089570
:0A1F46008093223890932338089509
:0A1F50008F938FEF83B98F911895DE
:0A1F5A000E94850F0E94C40F089535
:0A1F64000E94B80C08F481E0089513
:0A1F6E000E94B80C08F48FEF0895EC
:081F7800FC0164BF40830895E1
:081F800081E080933B380895D5
:081F880081E080933A380895CE
:081F90000E945E080C94980EFB
:081F98000E94EF070C94980E63
:071FA000286E756C6C29002E
:061FA80080930208089579
:061FAE0010923B3808957B
:061FB40080913B38089506
:061FBA0010923A38089570
:061FC00080913A380895FB
:061FC6009FEF80EC08957E
:061FCC00286E696C29007B
:041FD2000C9400006B
:041FD6000E947300F2
:021FDA00089568
:021FDC00089566
:021FDE00089564
:021FE000089562
:021FE200089560
:021FE40008955E
:021FE60008955C
:021FE80008955A
:021FEA00089558
:021FEC00089556
:021FEE00089554
:021FF000089552
:101FF200030000000000000000000000EF0E0000DF
:0A200200F299F499F699F899FA9909
:02200C00383862
:02000004008278
:090000000000020000C40700002A
:00000001FF
