:100000000C944B000C94D20F0C94D20F0C947E0ADB
:100010000C94AB0B0C94210B0C94910F0C94C50910
:100020000C94D20F0C94D20F0C94D20F0C94D20FCC
:100030000C94D20F0C94D20F0C94D20F0C94D20FBC
:100040000C94D20F0C94D20F0C94D20F0C94D20FAC
:100050000C94D20F0C94920E0C94620F0C94570CCB
:100060000C94D70B0C94D20F0C94D20F0C94D20F8B
:100070000C94D20F0C94D20F38003808803808380E
:1000800022001FC4382238368038363838001FDE48
:100090003838383C800011241FBECFEFCDBFDFE3DE
:1000A000DEBFE8E7F0E040E017C0B591A5913591DB
:1000B0002591059107FD0CC095918591EF01F92FD0
:1000C000E82F05900D92A217B307D9F7FE0104C0DF
:1000D0001D92A217B307E1F7E539F40731F70E9443
:0A00E0005C070C94F00EF894FFCFBB
:1000EA00A8E2B0E0EBE7F0E00C94E30D89A39AA351
:1000FA00688F798F2A8FFB010190F081E02DED87BF
:10010A00FE87FB010280F381E02DEB83FC83FB0178
:10011A000480F581E02DEC8BFD8BFB010084F185D9
:10012A00E02DEDA3FEA3FB010680F781E02DE98314
:10013A00FA83FA01408051806280738020E030E0C7
:10014A00A901C301B2010E949B0F87FF06C077FA7B
:10015A00709477F870948DE204C0FD85F2FF6DC348
:10016A008BE2E981FA8180832C893D89215031090A
:10017A002F83388741E050E04A8B5B8B06C08C891D
:10018A009D898F8398871A8A1B8AD301C201BF77F8
:10019A000097E0E8AE07EFE7BE07C9F42A8D022E02
:1001AA00000C330B2154310989819A814A895B8970
:1001BA00840F951F2A31310518F460E47EE902C0E4
:1001CA0064E47EE90E94280F84E49EE925C301972E
:1001DA00A048BF47E8F08A8D082E000C990B81547D
:1001EA0091098B839C8389819A81EA89FB898E0F85
:1001FA009F1F2B813C812A31310518F468E47EE97E
:10020A0002C06CE47EE90E94280F8CE49EE904C3D4
:10021A0020E030E0A901C301B2010E949B0F812CAA
:10022A00912C20E8A22E2FE3B22E212C312C8823E8
:10023A0009F488C049865A866B867C8620E030E0BD
:10024A0040E251E4C501B4010E94B10F6B017C0187
:10025A00D301C2018C199D09AE09BF09B7FF07C0B6
:10026A00B095A095909581959F4FAF4FBF4F02973C
:10027A00A105B10534F43FEF231A330A46015701A9
:10028A00DDCFA3019201C701B6010E949B0F87FD32
:10029A00F2CFC984DA84EB84FC84C818D908EA0846
:1002AA00FB084FEFC41AD40AE40AF40A53E0C5164D
:1002BA00D104E104F10408F443C000E010E0A30112
:1002CA009201C501B4010E94A00F1816DCF584ED55
:1002DA0028168EEF3806CCF401151105B1F420E08A
:1002EA0030E040E85AE5C301B2010E94B10F2B0188
:1002FA003C0120E030E040E85AE5C501B4010E9423
:10030A00B10F4B015C0101E010E020E030E040E277
:10031A0051E4C501B4010E94B50F4B015C0191E0A3
:10032A00291A3108D301C20188199909AA09BB09F6
:10033A000196A11DB11D0397A105B10508F0BFCF14
:10034A0024013501EA8D0E2E000CFF0BEA8FFB8F7C
:10035A00CF010E94300F88A32B813C8137FD03C057
:10036A0029873A8704C046E050E049875A8758A14E
:10037A00573649F48B819C81892B41F4E1E0F0E006
:10038A00E987FA8703C048A1498B10C02CEF2216CF
:10039A002FEF32060CF456C229853A852216330607
:1003AA000CF050C237FE51C256E6598B89859A85A0
:1003BA00019689879A879989963699F437FE08C0F3
:1003CA00812C912C90E8A92E9FE3B92E212C312C57
:1003DA00E8A1E73631F029853A85220D331D2987B0
:1003EA003A8788A69FA2AB82BF86730162011E8AE2
:1003FA001F8A8E899F89E985FA858E179F07E4F5FA
:10040A0028A53FA14B815F85C701B6010E94B50FA0
:10041A000E94C9066C8F7D8F8E8F9F8F0E945B0F03
:10042A006BA38701760117FB109517F9109528A57C
:10043A003FA14B815F856C8D7D8D8E8D9F8D0E9436
:10044A002B066B017C01F7FAF094F7F8F09420E0A0
:10045A0030E040E251E468A57FA18B819F850E942C
:10046A00B50F68A77FA38B839F874E895F894F5FEC
:10047A005F4F4E8B5F8BBDCF20E030E040EA50E407
:10048A0068A57FA18B819F850E94B10F6B837C83B6
:10049A008D839E839B01AC01C701B6010E949B0F0D
:1004AA0087FD0DC02B813C814D815E81C701B6015C
:1004BA000E949B0F811107C0FBA1F0FD04C01B82A3
:1004CA001C821D821E82A30192016B817C818D8117
:1004DA009E810E94550F2B013C0120E030E040E252
:1004EA0051E4C501B4010E94B10F6B837F87D82EF6
:1004FA00C92E9B01482F592FC301B2010E94A00F98
:10050A0087FD11C02FEF221A320A3989363679F45B
:10051A0049855A854F5F5F4F49875A875B815FA339
:10052A008F8588A70BC08B829F86DA2CCB2C998962
:10053A00953631F0EB81EFA3FF85F8A7410106C09C
:10054A002B812FA33F8538A7812C912CAA88BB88A1
:10055A00E12CF12C1E8A1F8A1F86188A4D855E851A
:10056A00407155274BA35CA3EF85F88929853A8505
:10057A00E217F30734F04E895F89452B09F4A0C0CE
:10058A00ACC08501E88DF98D808591850597A816FF
:10059A00B90688F72FA138A54D2D5C2DC301B201EC
:1005AA000E94B50F0E94C9066C8F7D8F8E8F9F8F18
:1005BA000E945B0F6A30710514F069E070E08BA14C
:1005CA009CA1892B69F46115710551F498A197369C
:1005DA0039F497FE05C0F7013196EB83FC8341C0DD
:1005EA002E893F89232BA1F497FE12C03FEFA31A4D
:1005FA00B30AE981FA81E00FF11F4EE240838F814D
:10060A00988501978F839887E1E0F0E0EE8BFF8B66
:10061A00E981FA81EA0DFB1DEB82FC828B819C81C8
:10062A00892B49F020E321934B815C814150510988
:10063A004B835C83F3CFC7018A0D9B1D2F813885BD
:10064A002E193F095C01EFEFAE1ABE0AE981FA8161
:10065A00E80FF91F605D6083A901415051094F837A
:10066A0058878301720117FB109517F910952FA16E
:10067A0038A54D2D5C2D6C8D7D8D8E8D9F8D0E94A4
:10068A002B062B013C0177FA709477F8709420E0DE
:10069A0030E040E251E46FA178A58D2D9C2D0E9497
:1006AA00B50F6FA378A7D82EC92E51E0851A9108E5
:1006BA008F85988901968F87988BEB80FC8054CF21
:1006CA00FD85F4FF0AC0E981FA81EA0DFB1D8EE27D
:1006DA00808395012F5F3F4F590149815A814A0D05
:1006EA005B1D4B835C83FA011082F989F53609F0A8
:1006FA0060C0E981FA812DA13EA1E20FF31F319773
:10070A00108237FE06C031942194310801E010E0CE
:10071A0002C000E010E0EDA1FEA1319749815A81A3
:10072A00E40FF51F22E030E08AE0E82EF12CCF0139
:10073A0049815A81841B950B2114310479F0C10136
:10074A00B7010E94590E805D82931B012150310925
:10075A008F81988501978F839887E9CF12161306A0
:10076A0074F3FC013197E40FF51F012B11F42BE20E
:10077A0001C02DE22083029769817A81680F791F6F
:10078A002A8D3B8D215431092A31310510F025E695
:10079A0001C025E4FB0120832F81388522503109CD
:1007AA002F833887A816B90624F48B819C810E946E
:1007BA00280F3D8531FF2EC030FD2CC04F81588552
:1007CA00141615063CF589819A810E94B00EE981BA
:1007DA00FA818E0F9F1F9C0149815A81241B350B78
:1007EA00EA89FB892E173F074CF0FC012081EF8133
:1007FA00F885E80FF91F20830197EDCF4F815885BF
:10080A0060E370E089819A818E0F9F1F0E940F0F0B
:10081A001C8A1D8A89819A810E94B00E0D851E85C7
:10082A002C893D89AC0169817A8189A19AA10E94AA
:10083A00B90AA896E2E10C942C0E5D8553FF9FCC71
:10084A0080E28FCC35E6398BCCCD46E6498BC9CDD3
:10085A00AEE0B0E0E3E3F4E00C94E60D4C016B018A
:10086A0019821A828FEF9FEF8B839C831D821E82CF
:10087A004F83588729873A87A12CB12CD6016D90CE
:10088A007C90F301EA0DFB1D808181110FC0D60116
:10089A00ED93FC938081853209F0D3C13F01BFEF0C
:1008AA006B1A7B0AF6016082718219C0853279F36C
:1008BA00B401082E000C990B0E947C094FEFA41A70
:1008CA00B40ADCCF8C32ACF08D32F9F489819A818A
:1008DA00816089839A833196D601ED93FC93D60180
:1008EA00ED91FC9180818B3269F789819A818460CC
:1008FA00F0CF803221F489819A818860EACF8332ED
:10090A0051F489819A818061E4CF803321F489810D
:10091A009A818260DECFB701C6010E947D0B8D836A
:10092A009E8397FF0BC029813A81B1E02B27298347
:10093A003A839195819591098D839E8389819A81C4
:10094A0080FF03C08D7F89839A83D601ED91FC9144
:10095A00119780818E3249F43196ED93FC93B70159
:10096A00C6010E947D0B8B839C83C6010E944C0D9D
:10097A00582ED601ED91FC918081082E000C990B1E
:10098A000E94300F893609F443C084F4833609F48F
:10099A0002C134F4853209F427C18136E1F030C14D
:1009AA008436B1F188360CF4D9C02AC1803709F4EB
:1009BA009AC03CF48E3609F4BCC08F3609F461C083
:1009CA001FC1853709F440C0883709F476C08337D8
:1009DA0009F016C1F3C0652D70E0A701CE010B9690
:1009EA000E946C0D892B09F426C1D601ED91FC9168
:1009FA001197CF0101968D939C932081AE01455F9B
:100A0A005F4FBE016F5F7F4FC4010E94000010C19B
:100A1A00652D70E0970141E050E0CE010B960E94EF
:100A2A000000892B09F407C1F601808191810196A2
:100A3A0080839183AE01455F5F4FBE016F5F7F4F39
:100A4A00C4010E940000F4C0652D70E0970140E0E7
:100A5A0050E0CE010B960E940000892B09F4EBC0EE
:100A6A00D6018D919C91119701968D939C93AE011D
:100A7A00455F5F4FBE016F5F7F4FC4010E94000058
:100A8A00D7C0652D70E0970140E050E0CE010B968B
:100A9A000E940000892B09F4CEC0F6018081918161
:100AAA00019680839183AE01455F5F4FBE016F5F00
:100ABA007F4FC4010E940000BBC0652D70E0970102
:100ACA0040E050E0CE010B960E940000892B09F409
:100ADA00B2C0D601ED91FC911197CF0101968D9389
:100AEA009C9320811CC0970140E050E060EF70E0C9
:100AFA00CE010B960E940000892B09F49CC0F601D6
:100B0A00808191810196808391838B859C85892B35
:100B1A0029F420E030E04EE95FE984C028E7AE011D
:100B2A00455F5F4FBE016F5F7F4FC4010E940000A7
:100B3A007FC0A501400F511F652D70E09701CE01BE
:100B4A000B960E940000892B09F475C0D6018D917D
:100B5A009C91119701968D939C9373C0652D70E0BB
:100B6A00A701CE010B960E946C0D892B09F463C074
:100B7A00D601ED91FC911197CF0101968D939C932B
:100B8A002081AE01455F5F4FBE016F5F7F4FC40199
:100B9A000E9475004DC0B0E85B124DC0F60180811D
:100BAA009181019680839183D701ED91FC911197F0
:100BBA00CF0102968D939C93808120C0B0E85B128E
:100BCA003AC0F60180819181019680839183D70191
:100BDA00ED91FC911197CF0102968D939C934081E0
:100BEA00518120E030E01EC0B0E85B1224C0F6015B
:100BFA00208131812F5F3F4F208331838B870DC046
:100C0A0085E28B87D6016D927C9219821A821D82A7
:100C1A001E828FEF9FEF8B839C8321E030E0AE0131
:100C2A00455F5F4FBE016F5F7F4FC4010E942D0C6D
:100C3A008A0D9B1D07C0F6018081918101968083F0
:0C0C4A009183C5012E96EFE00C942F0E54
:100C5600A5E1B0E0E1E3F6E00C94E30D47015801AD
:100C66000E94B10F2B013C01A80197010E94550F6C
:100C7600162FC72ED82EF92E862F9C2DAD2DBF2DC3
:100C860089839A83AB83BC83AA81FB81EC81ED8047
:100C96003E802F8008850D8B5E2F5F71212F3A2FA6
:100CA6004F2F60E070E080E090E0211531054105AE
:100CB60000E15007610571058105910509F05EC0E7
:100CC6005E2F6E2D732D822D9D8904E30E948E0D5D
:100CD6002D873E874F87588B698B7A8B8B8B9C8BA6
:100CE6008D859E8597708F3F974009F447C0A30175
:100CF6009201612F7C2D8D2D9F2D0E94540F9B01FB
:100D0600AC01C501B4010E949B0F8823B9F1498645
:100D16005A866B867C8629853A854B855C85C50116
:100D2600B4010E94550FB62E872E982EA92E262F77
:100D3600372F482F592F612F7C2D8D2D9F2D0E94E7
:100D46009B0F811118C02B2D8B2D982DA92DBA2DF7
:100D560089839A83AB83BC833A814B815C816E2DF8
:100D6600732D822D9D89A1E00E94E40E122FC32EC1
:100D7600D42EF52E03C01B2D6401FA2C612F7C2D79
:0C0D86008D2D9F2D6596E2E10C942C0E43
:100D92004F925F926F927F928F929F92AF92BF9289
:100DA200CF92DF92EF92FF92CF93DF93CDB7DEB770
:100DB2002897CDBFDEBF6B017C01DC01CB0147E18F
:100DC200B695A795979587954A95D1F799278F5705
:100DD2009109873191059CF597FD36C088248A9444
:100DE200982C3FE7A32EB12C04C0B594A7949794F6
:100DF20087948A95D2F7D501C4018C219D21AE2119
:100E0200BF21892B8A2B8B2BD1F020E030E040E8E8
:100E12005BE7C701B6010E94550F6D837E838F8306
:100E22009887F7FE04C0C80CD91CEA1CFB1C8094EE
:100E32009094A094B094C820D920EA20FB205C2D85
:100E42004D2D3E2D2F2D21C020E030E040E85BE704
:100E5200C701B6010E94550F69837A838B839C83F5
:100E6200F7FE0FC0D701C601880F991FAA1FBB1F2B
:100E7200892B8A2B8B2B19F350E040E030E82FEBC3
:100E820004C050E040E030E020E0652F742F832F53
:100E9200922F2896CDBFDEBFDF91CF91FF90EF90CA
:100EA200DF90CF90BF90AF909F908F907F906F9088
:060EB2005F904F900895CF
:100EB8000E94440E86E99FE00E948C0FE0E0F6E075
:100EC80080818E7F808381E08783808181688083B1
:100ED80080E00E94BD0F00ED19E90F2EF7E2CF2E3A
:100EE800F4E0DF2EF02D6894882487F80F2EF1EEB9
:100EF800EF2EF9E9FF2EF02D0F2EF4EFAF2EF9E9C2
:100F0800BF2EF02DC0E0D8E06894992496F80E948E
:100F1800C90F882399F00E94C60F0E94A10E0E9453
:100F2800CB0E9F938F931F930F930E94FC0D0E94EB
:100F3800680F0F900F900F900F902BC00E94C30F57
:100F4800882339F10E94C00F0E94060F2B013C0133
:100F5800F60180820E94CB0E9F938F93FF92EF92AF
:100F68000E94FC0DC301B2010E94050A23E333E38A
:100F780043E55AE30E94B10F9F938F937F936F933A
:100F8800BF92AF920E94FC0D8DB79EB70A968DBF97
:100F98009EBF0E947A0F8823E1F39C820E94C90FAA
:0A0FA8008111B5CF88950000B2CF8B
:100FB20010C00E94460F58F00E943F0F40F029F4E3
:100FC2005F3F29F00C94860F51110C944E0F0C9434
:100FD200CC0F0E940A0D68F39923B1F3552391F3C4
:100FE200951B550BBB27AA2762177307840738F096
:100FF2009F5F5F4F220F331F441FAA1FA9F335D0F3
:101002000E2E3AF0E0E832D091505040E695001CA6
:10101200CAF72BD0FE2F29D0660F771F881FBB1F60
:10102200261737074807AB07B0E809F0BB0B802D3E
:10103200BF01FF2793585F4F3AF09E3F510578F06A
:101042000C94860F0C944E0F5F3FE4F3983ED4F35A
:10105200869577956795B795F7959F5FC9F7880F3E
:10106200911D9695879597F90895E1E0660F771F90
:10107200881FBB1F621773078407BA0720F0621B21
:0E108200730B840BBA0BEE1F88F7E0950895F0
:101090000FC00E943F0F38F00E94460F20F09523AA
:1010A00011F00C94860F0C94CC0F11240C944E0F5D
:1010B0000E940A0D70F3959FC1F3950F50E0551FE4
:1010C000629FF001729FBB27F00DB11D639FAA279D
:1010D000F00DB11DAA1F649F6627B00DA11D661FEC
:1010E000829F2227B00DA11D621F739FB00DA11D0D
:1010F000621F839FA00D611D221F749F3327A00DC7
:10110000611D231F849F600D211D822F762F6A2F62
:1011100011249F5750409AF0F1F088234AF0EE0FC7
:10112000FF1FBB1F661F771F881F91505040A9F7F4
:101130009E3F510580F00C94860F0C944E0F5F3F3C
:10114000E4F3983ED4F3869577956795B795F79530
:10115000E7959F5FC1F7FE2B880F911D96958795A8
:0411600097F908955E
:1011640011C00E943F0F38F00E94460F20F039F45E
:101174009F3F19F426F40C94CC0F0EF4E095E7FB92
:101184000C94860FE92F0E940A0D58F3BA176207D0
:1011940073078407950720F079F4A6F50C944D0F96
:1011A4000EF4E0950B2EBA2FA02D0B01B90190017E
:1011B4000C01CA01A0011124FF27591B99F0593FC2
:1011C40050F4503E68F11A16F040A22F232F342F0A
:1011D4004427585FF3CF469537952795A795F04058
:1011E4005395C9F77EF41F16BA0B620B730B840B6D
:1011F400BAF09150A1F0FF0FBB1F661F771F881F25
:10120400C2F70EC0BA0F621F731F841F48F487957C
:1012140077956795B795F7959E3F08F0B0CF93956E
:0E122400880F08F09927EE0F9795879508958B
:10123200CF93DF93C0E0D4E01882A0E2B4E084E868
:101242008C93E0E4F4E010821C8284E014968C9388
:1012520014971482188A198A1A8A1B8A1C8A1D8A70
:101262001E8A1F8A50961C92509751961C92519733
:1012720052961C92529753961C92539754961C92D4
:10128200549755961C92559756961C925697579678
:101292001C92108A118A128A138A88E8848B158A12
:1012A200168A178AE0EEF5E0118210821382148208
:1012B2001582128287ED9FE080932C3890932D380F
:1012C20088ED9FE080932A3890932B3889ED9FE038
:1012D20080932838909329388AED9FE080932638AE
:1012E200909327388BED9FE0809324389093253894
:0612F200DF91CF91089589
:1012F8000F931F93CF93DF93DB012D913C911197AF
:1013080030FF25C016964D915C91179714962D9134
:101318003C9115974217530778F41296ED91FC917A
:101328001397808312962D913C9113972F5F3F4F0F
:1013380012962D933C93139716962D913C911797DF
:101348002F5F3F4F16962D933C93179715C01C9609
:10135800ED91FC911D97309719F48FEF9FEF0CC01A
:101368008B01EC010995892BC1F7F80186819781DA
:10137800019686839783CE01DF91CF911F910F91BC
:021388000895C6
:10138A001F920F920FB60F9211242F933F934F93F0
:10139A005F936F937F938F939F93AF93BF93EF93D3
:1013AA00FF933B9B05C0E0912C38F0912D380995AD
:1013BA003A9B05C0E0912A38F0912B3809953D9B5C
:1013CA0005C0E0912838F091293809953F9B05C05E
:1013DA00E0912438F091253809958FEF87B9FF916C
:1013EA00EF91BF91AF919F918F917F916F915F9193
:1013FA004F913F912F910F900FBE0F901F9018950C
:10140A00E89409C097FB3EF4909580957095619594
:10141A007F4F8F4F9F4F9923A9F0F92F96E9BB274A
:10142A009395F695879577956795B795F111F8CFC6
:10143A00FAF4BB0F11F460FF1BC06F5F7F4F8F4F31
:10144A009F4F16C0882311F096E911C0772321F027
:10145A009EE8872F762F05C0662371F096E8862FBF
:10146A0070E060E02AF09A95660F771F881FDAF716
:0A147A00880F9695879597F908955D
:10148400A2E8B0E0E8E4FAE00C94E90D5C014A015A
:10149400CF57DF4F68837983C158D040C12CD12CFA
:1014A400CF57DF4FE881F981C158D040808188232C
:1014B400E9F07401860120E830E0AE014F5F5F4F30
:1014C400BE016F577F4FC5010E942D048C0D9D1DD9
:1014D4008C159D054CF48FE490E08093063890932E
:1014E40007388FEF9FEF03C06C01DACFC601CE57E8
:0814F400DF4FECE00C94320E16
:1014FC001F920F920FB60F9211242F933F934F937D
:10150C005F936F937F938F939F93AF93BF93EF935F
:10151C00FF938091430180FF07C0E0913238F09136
:10152C003338309709F009958091430181FF07C04A
:10153C00E0913038F0913138309709F0099583E01B
:10154C0080934301FF91EF91BF91AF919F918F9148
:10155C007F916F915F914F913F912F910F900FBEA3
:06156C000F901F9018957E
:10157200A0E0B0E0EFEBFAE00C94E90D6C015B0146
:101582007A01E901480181E08822992400FD03C023
:101592004217530750F0A701B501C6010E94AA0DD8
:1015A200EC16FD0610F0C70117C08E010E191F09B7
:1015B2000115110541F0B60180E290E00E947C091C
:1015C20001501109F5CF8114910429F4A701B50145
:1015D200C6010E94AA0DCE01CDB7DEB7ECE00C9495
:0215E200320EC7
:1015E4000E94120D88F09F5798F0B92F9927B75190
:1015F400B0F0E1F0660F771F881F991F1AF0BA95B3
:10160400C9F714C0B13091F00E944D0FB1E00895B4
:101614000C944D0F672F782F8827B85F39F0B93FA6
:10162400CCF3869577956795B395D9F73EF4909565
:0E1634008095709561957F4F8F4F9F4F089561
:101642001F920F920FB60F9211242F933F934F9335
:101652005F936F937F938F939F93AF93BF93EF9318
:10166200FF938091C70181FF05C0E0912238F0917C
:101672002338099582E08093C701FF91EF91BF91D2
:10168200AF919F918F917F916F915F914F913F9118
:0C1692002F910F900FBE0F901F90189525
:10169E00E0E0F8E086EB92E080879187158280EC9F
:1016AE00868383E0878313861486168615868CEDD3
:1016BE009FE080930238909303388DED9FE08093E6
:1016CE000038909301388EED9FE08093043890930C
:1016DE0005381092343810923538E0913638F09142
:0C16EE00373888E098E3808391830895EA
:1016FA00DC01ED91FC91119780818A3221F080E022
:10170A0090E03AE00EC03196ED93FC93DB01ED9147
:10171A00FC911197CF0102968D939C9380819181C0
:10172A000895ED91FC911197208120532A3068F495
:10173A00389FA001399F500D1124CA01820F911DB3
:0C174A003196ED93FC931197ECCF0895BD
:101756001F920F920FB60F9211242F933F934F9320
:101766005F936F937F938F939F93AF93BF93EF9303
:10177600FF93E0912E38F0912F38309709F00995B4
:1017860081E080935301FF91EF91BF91AF919F91BB
:101796008F917F916F915F914F913F912F910F9014
:0817A6000FBE0F901F90189573
:1017AE001F920F920FB60F9211242F933F934F93C8
:1017BE005F936F937F938F939F93AF93BF93EF93AB
:1017CE00FF935C9B05C0E0912638F0912738099570
:1017DE008FEF8BB9FF91EF91BF91AF919F918F9149
:1017EE007F916F915F914F913F912F910F900FBE0F
:0617FE000F901F901895EA
:1018040040E068ED80E690E00E94A50F45E168EDB8
:1018140081E690E00E94A50F40E068ED82E690E04A
:101824000E94A50F40E068ED83E690E00E94A50FBA
:1018340040E068ED80E790E00E94A50F40E068ED8D
:1018440088E790E00E94A50F40E068ED8CE790E007
:061854000E94A50F08959B
:10185A00A0E0B0E0E3E3FCE00C94EB0D7C01FB01BB
:10186A00EA01C901A280B380C480D58000811181B8
:10187A00209711F4C2E7DFE9009719F4CE010E941C
:10188A00B00EB7FC04C0A816B90608F4C501960143
:10189A00AC01BE01C7010E94B90ACDB7DEB7EAE0C2
:0418AA000C94340E58
:1018AE001F920F920FB60F9211242F933F934F93C7
:1018BE005F936F937F938F939F93AF93BF93EF93AA
:1018CE00FF930E94A90F82E080930506FF91EF918E
:1018DE00BF91AF919F918F917F916F915F914F913A
:0E18EE003F912F910F900FBE0F901F901895F5
:1018FC00E0ECF1E084E0858317821186128690E596
:10190C0095871686118A128A158A168A1182128276
:10191C0013868787138A178A8CE080878DEA8487E1
:10192C00108A148A81E4808386ED9FE080932238AC
:08193C009093233880E0089528
:10194400990F0008550FAA0BE0E8FEEF16161706CC
:10195400E807F907C0F012161306E407F50798F034
:10196400621B730B840B950B39F40A2661F0232B4D
:10197400242B252B21F408950A2609F4A140A695C9
:081984008FEF811D811D089504
:10198C00E0E8F1E08BE0808B85E2818B128A138A90
:10199C00148A158A81E0808380A710A211A212A25A
:1019AC0013A214A215A216A217A211A612A613A670
:1019BC0016A617A610AA11AA12AA13AA14A615A63F
:0419CC0080E008951A
:1019D0004E6577204761696E3A2025730A0D0A0D1E
:1019E0000043757272656E74204761696E3A2025F6
:1019F000730A0D004D656173757265643A20253177
:101A00002E3366560A0D0A0D0031003200340038BC
:041A1000003136006B
:101A140057FD9058440F551F59F05F3F71F047959B
:101A2400880F97FB991F61F09F3F79F08795089580
:101A3400121613061406551FF2CF4695F1DF08C09F
:101A4400161617061806991FF1CF869571056105BC
:041A54000894089555
:101A5800E0E4F1E081818111FDCFE0E4F1E08FE77E
:101A680090E084879587108611868FEF90E08287B3
:101A7800938781E08783128281E180838189811144
:101A8800FDCFE0E4F1E0128A81E0808B80E00895E8
:101A9800CF93DF93EC0190E0E92FF0E0EE0FFF1F0A
:101AA800EA50F2468081811102C081810EC0A8816E
:101AB800B9812C91821305C091811196A883B983AD
:101AC80001C09F5F9B3040F3892FDF91CF9108952C
:101AD800FA0160387105CCF0623871051CF0633882
:101AE800710599F4A081B1819D012C5F3F4F20833E
:101AF80031834D915D916D917C91FC0140835183BF
:101B08006283738381E090E0089580E090E0089517
:101B180097FB10F8169400080F93083098F00850B7
:101B2800232F342F452F562F672F782F892F902D4D
:101B3800F4CF059497958795779567955795479529
:0C1B4800379527950A95AAF70F9108958C
:101B5400A0E0B0E0E0EBFDE00C94ED0D6C01EB01D6
:101B64008A017B01E40EF51ECE15DF0541F0899153
:101B7400B601082E000C990B0E947C09F5CFC80110
:0A1B8400CDB7DEB7E8E00C94360E92
:101B8E00E0E0F6E01182118680E18283138284E622
:101B9E00808789E18387178284E1828782E084834C
:101BAE0088E4848780E78587168E178E148E158EAF
:081BBE0081E0808380E00895BE
:101BC6002F923F924F925F926F927F928F929F9247
:101BD600AF92BF92CF92DF92EF92FF920F931F9335
:101BE600CF93DF93CDB7DEB7CA1BDB0BCDBFDEBF0E
:021BF600099450
:101BF800A0E0B0E0E2E0FEE00C94F30DAE014B5F34
:101C08005F4FFA0161917191AF01E0913638F0911F
:101C18003738808191810E94140EE2E00C943C0ECA
:101C2800A2E0B0E0EAE1FEE00C94F10D8C014983FA
:101C38005A83AE014F5F5F4F0E94420AF80120812C
:101C480024FF02C08FEF9FEF2296E4E00C943A0E37
:101C58002A88398848885F846E847D848C849B8434
:101C6800AA84B984C884DF80EE80FD800C811B8142
:101C7800AA81B981CE0FD11DCDBFDEBFED01089578
:101C88000E94020C0E9419090E94C70D0E947E0C36
:101C98000E94C60C0E942C0D0E94180F0E944F0B28
:0A1CA8000E94800F0E94BE0E0895F6
:101CB20097FB072E16F4009407D077FD09D00E94F7
:101CC2006D0E07FC05D03EF4909581959F4F0895C7
:081CD200709561957F4F0895A4
:101CDA00AA1BBB1B51E107C0AA1FBB1FA617B70748
:101CEA0010F0A61BB70B881F991F5A95A9F7809564
:081CFA009095BC01CD01089595
:101D0200092E0394000C11F4882352F0BB0F40F407
:101D1200BF2B11F460FF04C06F5F7F4F8F4F9F4F47
:021D2200089522
:101D24008F93EF93FF93E0E0F6E080E2858380E118
:0E1D3400858388E08583FF91EF918F9118954C
:101D420080910B068295869587708F5F853009F4A6
:0E1D520080E08295880F807E0E94380F0895F1
:101D6000FC01AF014F5F5F4F2081222311F0FA0188
:0C1D7000F8CF9F01281B390BC901089512
:101D7C0040E068ED80E191E00E94A50FE0E1F1E028
:0A1D8C0012821382789480E008951B
:101D9600E0910B06E295E695E770F0E0EE0FFF1F87
:0A1DA600E85EF74C808191810895FA
:101DB000CF93C82F0E94740F8823E1F3C0930208C9
:081DC00080E090E0CF9108954E
:101DC8000024A7FD00942A0F301D401D501D601DE2
:081DD800701D801D901D08958F
:101DE000EC010E94E00F0E94DF0FCE010E94E10F84
:061DF000CE010E94D40F99
:101DF60068076C094C836A9074A07AC00080688872
:061E060000846C820081E3
:101E0C006091100670911106809112069091130644
:021E1C00089527
:101E1E00FC01480F591FE417F50711F06193FBCF32
:021E2E00089515
:101E300043E068ED80E590E00E94A50F80E0089502
:101E4000494E4600696E66004E414E006E616E005E
:101E5000FC01DB012D91BD0121932111FACF0895E1
:101E60009C01215431092A31310508F4806208951A
:0E1E7000E0E0F6E093859F71892B838708954B
:0E1E7E0000240A941616170618060906089581
:0E1E8C0000240A941216130614060506089583
:0E1E9A00E894BB2766277727CB0197F90895B8
:0E1EA8005058BB27AA270E94B2080C94810E46
:0E1EB6000E94F20A6894B1110C944E0F089528
:0C1EC4008F9381E0809305068F911895A4
:0C1ED000E0E4F1E08081816080830895EF
:0C1EDC00E0E4F1E080818E7F80830895B7
:0C1EE8008091040885FB882780F908958C
:0C1EF4008091040886FB882780F908957F
:0C1F0000E0EAF0E01082118280E0089519
:0C1F0C0097F99F6780E870E060E008959E
:0A1F18008093223890932338089537
:0A1F22008F938FEF83B98F9118950C
:0A1F2C000E946E0F0E94AD0F089591
:0A1F36000E94A20C08F481E0089557
:0A1F40000E94A20C08F48FEF089530
:081F4A00FC0164BF408308950F
:081F520081E080933B38089503
:081F5A0081E080933A380895FC
:081F62000E9448080C94810E56
:081F6A000E94D9070C94810EBE
:071F7200286E756C6C29005C
:061F7A00809302080895A7
:061F800010923B380895A9
:061F860080913B38089534
:061F8C0010923A3808959E
:061F920080913A38089529
:061F98009FEF80EC0895AC
:061F9E00286E696C2900A9
:041FA4000C94000099
:041FA8000E94730020
:021FAC00089596
:021FAE00089594
:021FB000089592
:021FB200089590
:021FB40008958E
:021FB60008958C
:021FB80008958A
:021FBA00089588
:021FBC00089586
:021FBE00089584
:021FC000089582
:021FC200089580
:101FC400030000000000000000000000D80E000024
:0A1FD400099A0B9A0D9A0F9A119AC0
:021FDE00383891
:02000004008278
:090000000000020000C40700002A
:00000001FF
