:100000000C9445000C94F3060C94F3060C94AD0389
:100010000C9421040C94A3040C9456060C94E8034D
:100020000C94F3060C94F3060C94F3060C94F3066C
:100030000C94F3060C94F3060C94F3060C94F3065C
:100040000C94F3060C94F3060C94F3060C94F3064C
:100050000C94F3060C94C7050C9438060C94CC044D
:100060000C944D040C94F3060C94F3060C94F306D4
:100070000C94F3060C94F3063800380680380638E2
:100080001E000DF2381E382E800011241FBECFEF47
:10009000CDBFDFE3DEBFE8E7F0E040E017C0B59199
:1000A000A59135912591059107FD0CC095918591FC
:1000B000EF01F92FE82F05900D92A217B307D9F79A
:1000C000FE0104C01D92A217B307E1F7E938F40757
:0E00D00031F70E9450020C946D00F894FFCF9F
:1000DE00ABE0B0E0E5E7F0E00C94AE056C017B011F
:1000EE008A01FC0116821782838181FFCCC1CE0169
:1000FE0001963C01F6019381F70193FD859193FFE3
:10010E0081917F01882309F4BAC1853239F493FDB8
:10011E00859193FF81917F01853229F4B60190E09C
:10012E000E947103E7CF912C212C312CFFE1F315A6
:10013E00D8F08B3279F038F4803279F08332A1F432
:10014E00232D20611DC08D3261F0803369F4232D83
:10015E00216016C0832D8260382EE32DE4603E2E82
:10016E002AC0F32DF8601DC037FC2DC020ED280FDE
:10017E002A3040F08E32B9F436FC81C1232D206432
:10018E00322E19C036FE06C08AE0989E200D11242C
:10019E00922E11C0EAE02E9E200D1124222EF32D58
:1001AE00F0623F2E08C08C3621F4832D8068382EE5
:1001BE0002C0883641F4F70193FD859193FF81913A
:1001CE007F018111B3CF982F9F7D9554933028F4E2
:1001DE000C5F1F4F9FE399830DC0833631F0833739
:1001EE0071F0833509F059C021C0F80180818983EF
:1001FE000E5F1F4F88248394912C530113C0280146
:10020E00F2E04F0E511CF801A080B18036FE03C003
:10021E00692D70E002C06FEF7FEFC5010E94950659
:10022E004C018201F32DFF773F2E16C0280122E0EC
:10023E00420E511CF801A080B18036FE03C0692D1C
:10024E0070E002C06FEF7FEFC5010E948A064C017D
:10025E00F32DF0683F2E820133FC1BC0822D90E0FF
:10026E0088169906B0F4B60180E290E00E94710300
:10027E002A94F4CFF50137FC859137FE81915F0109
:10028E00B60190E00E94710321102A9421E0821A97
:10029E0091088114910471F7E8C0843611F0893603
:1002AE0041F5F80137FE07C060817181828193812B
:1002BE000C5F1F4F08C060817181072E000C880BE8
:1002CE00990B0E5F1F4FF32DFF763F2E97FF09C040
:1002DE0090958095709561957F4F8F4F9F4FF068E9
:1002EE003F2E2AE030E0A3010E941303882E8618C9
:1002FE0045C0853731F4232D2F7EB22E2AE030E013
:10030E0025C0932D997FB92E8F36C1F018F48835FC
:10031E0079F0B5C0803719F0883721F0B0C0E92FD9
:10032E00E061BE2EB4FE0DC0FB2DF460BF2E09C0E1
:10033E0034FE0AC0292F2660B22E06C028E030E017
:10034E0005C020E130E002C020E132E0F801B7FE46
:10035E0007C060817181828193810C5F1F4F06C03F
:10036E006081718180E090E00E5F1F4FA3010E94BB
:10037E001303882E8618FB2DFF773F2E36FE0DC0F9
:10038E00232D2E7FA22E891458F434FE0BC032FC7E
:10039E0009C0832D8E7EA82E05C0B82CA32C03C0B9
:1003AE00B82C01C0B92CA4FE0FC0FE01E80DF11D42
:1003BE008081803321F49A2D997EA92E09C0A2FE48
:1003CE0006C0B394B39404C08A2D867809F0B39412
:1003DE00A3FC11C0A0FE06C0B21488F4280C922C07
:1003EE009B180EC0B21460F4B60180E290E00E9439
:1003FE007103B394F7CFB21418F42B1802C0982CD3
:10040E00212CA4FE10C0B60180E390E00E9471037F
:10041E00A2FE17C0A1FC03C088E790E002C088E5E9
:10042E0090E0B6010CC08A2D867859F0A1FE02C06C
:10043E008BE201C080E2A7FC8DE2B60190E00E9443
:10044E007103891438F4B60180E390E00E947103C1
:10045E009A94F7CF8A94F301E80DF11D8081B601CD
:10046E0090E00E9471038110F5CF222009F442CE54
:10047E00B60180E290E00E9471032A94F6CFF60155
:10048E008681978102C08FEF9FEF2B96E2E10C944D
:02049E00DF0578
:1004A0000E942306E0E0F6E0108281EA808380E08B
:1004B0000E94E4060F2EF7E28F2EF4E09F2EF02D1F
:1004C000D0E80F2EF7EFAF2EF9E8BF2EF02D0F2E4C
:1004D000FAE0CF2EFAE8DF2EF02D0F2EF6EEEF2EFB
:1004E000F9E8FF2EF02D00E018E0C0E40E94F006CD
:1004F000882399F00E94ED060E9447060E9471062B
:100500009F938F93FF92EF920E940D060E94C00668
:100510000F900F900F900F901FC00E94EA06882343
:10052000D9F00E94E706F401D0830E9471069F93E0
:100530008F93BF92AF920E940D060E94A0069F93D8
:100540008F937F936F93DF92CF920E940D068DB7AA
:100550009EB70A968DBF9EBF0E94B1068111FCCF47
:0A056000F801C48388950000C1CFA4
:10056A00CF93DF930E949205C0E0D4E01882A0E204
:10057A00B4E084E88C93E0E4F4E010821C821496E0
:10058A001C9214971482188A198A1A8A1B8A1C8A3E
:10059A001D8A1E8A1F8A50961C92509751961C9249
:1005AA00519752961C92529753961C92539754966F
:1005BA001C92549755961C92559756961C9256978C
:1005CA0057961C92108A118A128A138A88E8848B99
:1005DA00158A168A178AE0EEF5E0118210821382D4
:1005EA0014821582128285EF96E0809324389093C4
:1005FA00253886EF96E0809322389093233887EF48
:10060A0096E0809320389093213888EF96E0809383
:0C061A001E3890931F38DF91CF91089597
:10062600FA01AA27283051F1203181F1E8946F931D
:100636006E7F6E5F7F4F8F4F9F4FAF4FB1E03ED0C3
:10064600B4E03CD0670F781F891F9A1FA11D680F61
:10065600791F8A1F911DA11D6A0F711D811D911D94
:10066600A11D20D009F468943F912AE0269F112409
:100676003019305D3193DEF6CF010895462F47706D
:10068600405D4193B3E00FD0C9F7F6CF462F4F70C8
:10069600405D4A3318F0495D31FD4052419302D026
:1006A600A9F7EACFB4E0A6959795879577956795CC
:1006B600BA95C9F700976105710508959B01AC01CC
:1006C6000A2E06945795479537952795BA95C9F7F3
:0C06D600620F731F841F951FA01D089564
:1006E2000F931F93CF93DF93FB01238121FD03C05F
:1006F2008FEF9FEF2CC022FF16C0468157812481C5
:1007020035814217530744F4A081B1819D012F5FC7
:100712003F4F208331838C93268137812F5F3F4F58
:100722002683378314C08B01EC01FB010084F18521
:10073200E02D0995892BE1F6D80116968D919C91B1
:100742001797019616968D939C931797CE01DF917A
:08075200CF911F910F91089552
:10075A001F920F920FB60F9211242F933F934F932C
:10076A005F936F937F938F939F93AF93BF93EF930F
:10077A00FF938091430180FF07C0E0912A38F091EE
:10078A002B38309709F009958091430181FF07C002
:10079A00E0912838F0912938309709F0099583E0DB
:1007AA0080934301FF91EF91BF91AF919F918F91F8
:1007BA007F916F915F914F913F912F910F900FBE53
:0607CA000F901F9018952E
:1007D0001F920F920FB60F9211242F933F934F93B6
:1007E0005F936F937F938F939F93AF93BF93EF9399
:1007F000FF933A9B05C0E0912438F0912538099584
:100800003D9B05C0E0912238F091233809953F9B2C
:1008100005C0E0911E38F0911F3809958FEF87B918
:10082000FF91EF91BF91AF919F918F917F916F91C8
:100830005F914F913F912F910F900FBE0F901F909E
:02084000189509
:100842001F920F920FB60F9211242F933F934F9343
:100852005F936F937F938F939F93AF93BF93EF9326
:10086200FF93E0912638F0912738309709F00995E7
:1008720081E080935301FF91EF91BF91AF919F91DE
:100882008F917F916F915F914F913F912F910F9037
:080892000FBE0F901F90189596
:10089A001F920F920FB60F9211242F933F934F93EB
:1008AA005F936F937F938F939F93AF93BF93EF93CE
:1008BA00FF935C9B05C0E0912038F091213809959F
:1008CA008FEF8BB9FF91EF91BF91AF919F918F916C
:1008DA007F916F915F914F913F912F910F900FBE32
:0608EA000F901F9018950D
:1008F00040E068ED80E690E00E94D80645E168EDB2
:1009000081E690E00E94D80640E068ED82E690E043
:100910000E94D80640E068ED83E690E00E94D80689
:1009200040E068ED80E790E00E94D80640E068ED86
:1009300088E790E00E94D80640E068ED8CE790E000
:060940000E94D806089594
:100946001F920F920FB60F9211242F933F934F933E
:100956005F936F937F938F939F93AF93BF93EF9321
:10096600FF930E94C6060E94E00682E08093C701BC
:10097600FF91EF91BF91AF919F918F917F916F9171
:100986005F914F913F912F910F900FBE0F901F9047
:020996001895B2
:100998001F920F920FB60F9211242F933F934F93EC
:1009A8005F936F937F938F939F93AF93BF93EF93CF
:1009B800FF930E94DC0682E080930506FF91EF9189
:1009C800BF91AF919F918F917F916F915F914F915F
:0E09D8003F912F910F900FBE0F901F9018951A
:1009E6004E6577204761696E3A2025730A0D0A0D18
:1009F6000043757272656E74204761696E3A2025F0
:100A0600730A0D004D6561737572656D656E743A96
:100A160020307825580A0D0A0D00310032003400C6
:050A260038003136002C
:100A2C00E0E8F1E08BE0808B85E2818B128A138AFF
:100A3C00148A158A81E0808380A710A211A212A2C9
:100A4C0013A214A215A216A217A211A612A613A6DF
:100A5C0016A617A610AA11AA12AA13AA14A615A6AE
:040A6C0080E0089589
:100A7000E0E4F1E081818111FDCFE0E4F1E08FE776
:100A800090E084879587108611868FEF90E08287AB
:100A9000938781E08783128281E18083818981113C
:100AA000FDCFE0E4F1E0128A81E0808B80E00895E0
:100AB000E0ECF1E084E0858317821186128690E5F0
:100AC00095871686118A128A158A168A11821282D1
:100AD00013868787138A178A8CE080878DEA84873C
:0C0AE000108A148A81E4808380E008956D
:100AEC00E0E0F6E01182118680E1828313828FEFC1
:100AFC00808789E18387178284E1828782E08483FF
:100B0C0088E4848780E78587168E178E148E158E61
:080B1C0081E0808380E0089570
:100B2400E0E1F4E0808188608193E83184E0F807B3
:100B3400C9F7E0E3F4E0808188608193E83384E0DE
:100B4400F807C9F7E0E5F4E0808188608193E8352F
:080B540084E0F807C9F70895D9
:100B5C002F923F924F925F926F927F928F929F92C1
:100B6C00AF92BF92CF92DF92EF92FF920F931F93AF
:100B7C00CF93DF93CDB7DEB7CA1BDB0BCDBFDEBF88
:020B8C000994CA
:100B8E001F920F920FB60F9211248F93EF93FF9334
:100B9E00E0E0F6E080E2858380E1858388E085836E
:100BAE00FF91EF918F910F900FBE0F901F901895A0
:100BBE002A88398848885F846E847D848C849B84DF
:100BCE00AA84B984C884DF80EE80FD800C811B81ED
:100BDE00AA81B981CE0FD11DCDBFDEBFED01089523
:100BEE00E0E0F8E086EB92E080879187158280E462
:100BFE00868383E08783138614861686158686E0A1
:0C0C0E0098E38093023890930338089517
:100C1A00A0E0B0E0E3E1F6E00C94BE05AE014B5F64
:100C2A005F4FFA0161917191AF0180910238909101
:0C0C3A0003380E946F00E2E00C94EF050C
:100C46000E9478040E94B5020E9476050E9458050B
:100C56000E9416050E9438050E94A9060E94F70503
:0A0C66000E94D2060E946406089561
:100C70001F920F920FB60F9211248F9381E08093F1
:0E0C800005068F910F900FBE0F901F901895D4
:100C8E0080910B068295869587708F5F853009F46B
:0E0C9E0080E08295880F807E0E94B90608953E
:100CAC001F920F920FB60F9211248F938FEF83B96F
:0C0CBC008F910F900FBE0F901F901895A5
:100CC80040E068ED80E191E00E94D806E0E1F1E0C3
:0A0CD80012821382789480E00895E0
:100CE200E0910B06E295E695E770F0E0EE0FFF1F4C
:0A0CF200EC5EF74C808191810895BB
:100CFC00CF93C82F0E94CC068823E1F3C09302083F
:080D0C0080E090E0CF91089512
:100D1400FC010590615070400110D8F780959095C2
:060D24008E0F9F1F0895D1
:100D2A00FC016150704001900110D8F780959095B0
:060D3A008E0F9F1F0895BB
:100D40006091100670911106809112069091130621
:020D5000089504
:100D520043E068ED80E590E00E94D80680E00895C7
:100D62008091040886FB882780F991E089270895FD
:0E0D7200E0E0F6E093859F71892B838708955A
:0C0D8000E0E4F1E0808181608083089550
:0C0D8C00E0E4F1E080818E7F8083089518
:0C0D98008091040885FB882780F90895ED
:0C0DA400E0EAF0E01082118280E0089587
:080DB000FC0164BF40830895BB
:080DB80081E080932D380895BD
:080DC00081E080932C380895B6
:060DC8008093020808956B
:060DCE0010922D3808957B
:060DD40080912D38089506
:060DDA0010922C38089570
:060DE00080912C380895FB
:040DE6000C94000069
:020DEA0008956A
:020DEC00089568
:020DEE00089566
:020DF000089564
:0E0DF20000000002000000007E06000000006D
:0A0E0000208A228A248A268A288A82
:02000004008278
:090000000000020000C40700002A
:00000001FF
