:100000000C9445000C94BD0A0C94BD0A0C94FE049B
:100010000C9476060C9425070C9428080C94A204E2
:100020000C94BD0A0C94BD0A0C94BD0A0C94BD0A34
:100030000C94BD0A0C94BD0A0C94BD0A0C94BD0A24
:100040000C94BD0A0C94BD0A0C94BD0A0C94BD0A14
:100050000C94BD0A0C948C070C9406080C94EE06C4
:100060000C94F6050C94BD0A0C94BD0A0C94BD0AC0
:100070000C94BD0A0C94BD0A380038068038063846
:100080001E00157E381E382E800011241FBECFEFB3
:10009000CDBFDFE3DEBFE8E7F0E040E017C0B59199
:1000A000A59135912591059107FD0CC095918591FC
:1000B000EF01F92FE82F05900D92A217B307D9F79A
:1000C000FE0104C01D92A217B307E1F7E938F40757
:0E00D00031F70E9474030C946D00F894FFCF7A
:1000DE00ABE0B0E0E5E7F0E00C94BE086C017B010C
:1000EE008A01FC0116821782838181FFCCC1CE0169
:1000FE0001963C01F6019381F70193FD859193FFE3
:10010E0081917F01882309F4BAC1853239F493FDB8
:10011E00859193FF81917F01853229F4B60190E09C
:10012E000E94B206E7CF912C212C312CFFE1F31562
:10013E00D8F08B3279F038F4803279F08332A1F432
:10014E00232D20611DC08D3261F0803369F4232D83
:10015E00216016C0832D8260382EE32DE4603E2E82
:10016E002AC0F32DF8601DC037FC2DC020ED280FDE
:10017E002A3040F08E32B9F436FC81C1232D206432
:10018E00322E19C036FE06C08AE0989E200D11242C
:10019E00922E11C0EAE02E9E200D1124222EF32D58
:1001AE00F0623F2E08C08C3621F4832D8068382EE5
:1001BE0002C0883641F4F70193FD859193FF81913A
:1001CE007F018111B3CF982F9F7D9554933028F4E2
:1001DE000C5F1F4F9FE399830DC0833631F0833739
:1001EE0071F0833509F059C021C0F80180818983EF
:1001FE000E5F1F4F88248394912C530113C0280146
:10020E00F2E04F0E511CF801A080B18036FE03C003
:10021E00692D70E002C06FEF7FEFC5010E94680A82
:10022E004C018201F32DFF773F2E16C0280122E0EC
:10023E00420E511CF801A080B18036FE03C0692D1C
:10024E0070E002C06FEF7FEFC5010E945D0A4C01A6
:10025E00F32DF0683F2E820133FC1BC0822D90E0FF
:10026E0088169906B0F4B60180E290E00E94B206BC
:10027E002A94F4CFF50137FC859137FE81915F0109
:10028E00B60190E00E94B20621102A9421E0821A53
:10029E0091088114910471F7E8C0843611F0893603
:1002AE0041F5F80137FE07C060817181828193812B
:1002BE000C5F1F4F08C060817181072E000C880BE8
:1002CE00990B0E5F1F4FF32DFF763F2E97FF09C040
:1002DE0090958095709561957F4F8F4F9F4FF068E9
:1002EE003F2E2AE030E0A3010E944404882E861897
:1002FE0045C0853731F4232D2F7EB22E2AE030E013
:10030E0025C0932D997FB92E8F36C1F018F48835FC
:10031E0079F0B5C0803719F0883721F0B0C0E92FD9
:10032E00E061BE2EB4FE0DC0FB2DF460BF2E09C0E1
:10033E0034FE0AC0292F2660B22E06C028E030E017
:10034E0005C020E130E002C020E132E0F801B7FE46
:10035E0007C060817181828193810C5F1F4F06C03F
:10036E006081718180E090E00E5F1F4FA3010E94BB
:10037E004404882E8618FB2DFF773F2E36FE0DC0C7
:10038E00232D2E7FA22E891458F434FE0BC032FC7E
:10039E0009C0832D8E7EA82E05C0B82CA32C03C0B9
:1003AE00B82C01C0B92CA4FE0FC0FE01E80DF11D42
:1003BE008081803321F49A2D997EA92E09C0A2FE48
:1003CE0006C0B394B39404C08A2D867809F0B39412
:1003DE00A3FC11C0A0FE06C0B21488F4280C922C07
:1003EE009B180EC0B21460F4B60180E290E00E9439
:1003FE00B206B394F7CFB21418F42B1802C0982C8F
:10040E00212CA4FE10C0B60180E390E00E94B2063B
:10041E00A2FE17C0A1FC03C088E790E002C088E5E9
:10042E0090E0B6010CC08A2D867859F0A1FE02C06C
:10043E008BE201C080E2A7FC8DE2B60190E00E9443
:10044E00B206891438F4B60180E390E00E94B20639
:10045E009A94F7CF8A94F301E80DF11D8081B601CD
:10046E0090E00E94B2068110F5CF222009F442CE10
:10047E00B60180E290E00E94B2062A94F6CFF60111
:10048E008681978102C08FEF9FEF2B96E2E10C944D
:02049E00D7087D
:1004A000CF93DF93CDB7DEB70E945A0580E094E08A
:1004B000FC01108280E294E024E8FC01208380E4C7
:1004C00094E0FC01108280E094E0FC01148280E260
:1004D00094E0FC01148280E494E0FC01148280E04A
:1004E00094E0FC01108A80E094E0FC01118A80E035
:1004F00094E0FC01128A80E094E0FC01138A80E021
:1005000094E0FC01148A80E094E0FC01158A80E00C
:1005100094E0FC01168A80E094E0FC01178A80E2F6
:1005200094E0FC01108A80E294E0FC01118A80E2F0
:1005300094E0FC01128A80E294E0FC01138A80E2DC
:1005400094E0FC01148A80E294E0FC01158A80E2C8
:1005500094E0FC01168A80E294E0FC01178A80E4B2
:1005600094E0FC01108A80E494E0FC01118A80E4AC
:1005700094E0FC01128A80E494E0FC01138A80E498
:1005800094E028E8FC01248B80E494E0FC01158AC7
:1005900080E494E0FC01168A80E494E0FC01178A70
:1005A00080EE95E0FC01118280EE95E0FC01108266
:1005B00080EE95E0FC01138280EE95E0FC01148250
:1005C00080EE95E0FC01158280EE95E0FC01128240
:1005D00089E99AE00E949C0981EA9AE00E94AF09A9
:1005E00089EA9AE00E94C20981EB9AE00E94D5094B
:0805F0000000DF91CF91089596
:1005F800CF93DF93CDB7DEB780E891E02BE0FC0125
:10060800208B80E891E025E2FC01218B80E891E0D5
:10061800FC01128A80E891E0FC01138A80E891E0ED
:10062800FC01148A80E891E0FC01158A80E891E0D9
:1006380021E0FC01208380E891E021E0FC0120A773
:1006480080E891E0FC0110A280E891E0FC0111A291
:1006580080E891E0FC0112A280E891E0FC0113A27D
:1006680080E891E0FC0114A280E891E0FC0115A269
:1006780080E891E0FC0116A280E891E0FC0117A255
:1006880080E891E0FC0111A680E891E0FC0112A647
:1006980080E891E0FC0113A680E891E0FC0116A631
:1006A80080E891E0FC0117A680E891E0FC0110AA1F
:1006B80080E891E0FC0111AA80E891E0FC0112AA0F
:1006C80080E891E0FC0113AA80E891E0FC0114A6FF
:1006D80080E891E0FC0115A680E0DF91CF910895B4
:1006E800CF93DF93CDB7DEB70E946B0880E096E02A
:1006F800FC01108280E096E021EAFC01208380E082
:100708000E941A0A0E94900A8823C9F00E947D0A52
:100718000E944A080E94A308292F2F938F9381EDE6
:100728009FE8892F8F9381ED9FE88F930E945E0940
:100738000F900F900F900F900E94E80932C00E940E
:10074800870A882371F10E94730A0E94A308292F3F
:100758002F938F9382EE9FE8892F8F9382EE9FE8E5
:100768008F930E945E090F900F900F900F900E9438
:100778000A0ADC01CB012B2F2F932A2F2F93292F25
:100788002F938F9385EF9FE8892F8F9385EF9FE8AD
:100798008F930E945E090F900F900F900F900F900B
:1007A8000F9000000E9488098823E1F780E098E014
:0C07B80020E4FC01248388950000A4CFFD
:1007C400CF93DF93CDB7DEB780EC91E024E0FC015A
:1007D400258380EC91E0FC01178280EC91E0FC0120
:1007E400118680EC91E0FC01128680EC91E020E51A
:1007F400FC01258780EC91E0FC01168680EC91E0F9
:10080400FC01118A80EC91E0FC01128A80EC91E0F9
:10081400FC01158A80EC91E0FC01168A80EC91E0E1
:10082400FC01118280EC91E0FC01128280EC91E0E9
:10083400FC01138680EC91E024E0FC01278780EC26
:1008440091E0FC01138A80EC91E0FC01178A80ECB2
:1008540091E02CE0FC01208780EC91E02DEAFC0182
:10086400248780EC91E0FC01108A80EC91E0FC018B
:10087400148A80EC91E021E4FC01208380E0DF9184
:04088400CF91089573
:10088800FA01AA27283051F1203181F1E8946F93B9
:100898006E7F6E5F7F4F8F4F9F4FAF4FB1E03ED05F
:1008A800B4E03CD0670F781F891F9A1FA11D680FFD
:1008B800791F8A1F911DA11D6A0F711D811D911D30
:1008C800A11D20D009F468943F912AE0269F1124A5
:1008D8003019305D3193DEF6CF010895462F477009
:1008E800405D4193B3E00FD0C9F7F6CF462F4F7064
:1008F800405D4A3318F0495D31FD4052419302D0C2
:10090800A9F7EACFB4E0A695979587957795679567
:10091800BA95C9F700976105710508959B01AC0167
:100928000A2E06945795479537952795BA95C9F78E
:0C093800620F731F841F951FA01D0895FF
:100944001F920F9200903F000F9211242F933F9318
:100954004F935F936F937F938F939F93AF93BF93C3
:10096400EF93FF93CF93DF93CDB7DEB784E090E0AE
:10097400FC018381882F90E084709927892B31F0C2
:1009840080911E3890911F38FC01099584E090E015
:10099400FC018381882F90E080729927892B31F0A4
:1009A4008091203890912138FC01099584E090E0F1
:1009B400FC018381882334F4809124389091253874
:1009C400FC01099584E090E02FEFFC0123830000F3
:1009D400DF91CF91FF91EF91BF91AF919F918F9153
:1009E4007F916F915F914F913F912F910F90009262
:0809F4003F000F901F901895C1
:1009FC001F920F9200903F000F9211242F933F9360
:100A0C004F935F936F937F938F939F93AF93BF930A
:100A1C00EF93FF93CF93DF93CDB7DEB780E491E0F4
:100A2C00FC018381882F90E081709927892B61F0DC
:100A3C008091263890912738892B31F08091263877
:100A4C0090912738FC01099580E491E0FC018381A9
:100A5C00882F90E082709927892B61F0809128383B
:100A6C0090912938892B31F0809128389091293830
:100A7C00FC01099580E491E023E0FC012383000054
:100A8C00DF91CF91FF91EF91BF91AF919F918F919A
:100A9C007F916F915F914F913F912F910F900092A9
:080AAC003F000F901F90189508
:100AB400CF93DF9300D01F92CDB7DEB7198212C057
:100AC4008981882F90E0805F9B4F2981222F30E01D
:100AD400205F3B4FF90120812860FC01208389813C
:100AE4008F5F89838981883058F31A8212C08A8182
:100AF400882F90E0805D9B4F2A81222F30E0205D7B
:100B04003B4FF90120812860FC0120838A818F5F9B
:100B14008A838A81883058F31B8212C08B81882F84
:100B240090E0805B9B4F2B81222F30E0205B3B4F7A
:100B3400F90120812860FC0120838B818F5F8B83E6
:100B44008B81883058F300002396CDBFDEBFDF9140
:040B5400CF910895A0
:100B5800CF93DF93CDB7DEB780E096E0FC0111823A
:100B680080E096E0FC01118680E096E020E1FC013F
:100B7800228380E096E0FC01138280E096E02FEF6C
:100B8800FC01208780E096E029E1FC01238780E0D2
:100B980096E0FC01178280E096E024E1FC012287C0
:100BA80080E096E022E0FC01248380E096E028E4DF
:100BB800FC01248780E096E020E7FC01258780E09F
:100BC80096E0FC01168E178E80E096E0FC01148EEC
:100BD800158E80E096E021E0FC01208380E0DF9123
:040BE800CF9108950C
:100BEC001F920F9200903F000F9211242F933F936E
:100BFC004F935F936F937F938F939F93AF93BF9319
:100C0C00EF93FF93CF93DF93CDB7DEB788E090E0FF
:100C1C00FC018381882F90E080719927892B31F01A
:100C2C008091223890912338FC01099588E090E05E
:100C3C002FEFFC0123830000DF91CF91FF91EF9107
:100C4C00BF91AF919F918F917F916F915F914F91D8
:100C5C003F912F910F9000923F000F901F9018958D
:100C6C00CF93DF93CDB7DEB7000080E491E0FC01B9
:100C7C0081818823D1F780E491E02FE730E0FC01FB
:100C8C002487358780E491E0FC011086118680E48E
:100C9C0091E02FEF30E0FC012287338780E491E074
:100CAC0021E0FC01278380E491E0FC01128280E4C6
:100CBC0091E021E1FC012083000080E491E0FC0143
:100CCC0081898823D1F780E491E0FC01128A80E4C9
:100CDC0091E021E0FC01208B80E0DF91CF91089521
:100CEC001F920F9200903F000F9211242F933F936D
:100CFC004F935F936F937F938F939F93AF93BF9318
:100D0C00EF93FF93CF93DF93CDB7DEB780912A3863
:100D1C0090912B38892B31F080912A3890912B3877
:100D2C00FC01099580E491E021E0FC01238B00009B
:100D3C00DF91CF91FF91EF91BF91AF919F918F91E7
:100D4C007F916F915F914F913F912F910F900092F6
:080D5C003F000F901F90189555
:100D64000F931F93CF93DF93FB01238121FD03C0D6
:100D74008FEF9FEF2CC022FF16C04681578124813C
:100D840035814217530744F4A081B1819D012F5F3F
:100D94003F4F208331838C93268137812F5F3F4FD0
:100DA4002683378314C08B01EC01FB010084F18599
:100DB400E02D0995892BE1F6D80116968D919C9129
:100DC4001797019616968D939C931797CE01DF91F2
:080DD400CF911F910F910895CA
:100DDC001F920F9200903F000F9211242F933F937C
:100DEC004F935F936F937F938F939F93AF93BF9327
:100DFC00EF93FF93CF93DF93CDB7DEB70E94470AF3
:100E0C0087E294E020E8FC01208380E096E022E079
:100E1C00FC0125830000DF91CF91FF91EF91BF91F1
:100E2C00AF919F918F917F916F915F914F913F9176
:0E0E3C002F910F9000923F000F901F9018957D
:100E4A001F920F9200903F000F9211242F933F930D
:100E5A004F935F936F937F938F939F93AF93BF93B8
:100E6A00EF93FF93CF93DF93CDB7DEB70E94F909D3
:100E7A000E94520A80EC91E022E0FC0127830000E4
:100E8A00DF91CF91FF91EF91BF91AF919F918F9198
:100E9A007F916F915F914F913F912F910F900092A7
:080EAA003F000F901F90189506
:100EB200CF93DF93CDB7DEB780E098E026EB32E048
:100EC200FC012087318780E098E0FC01158280E0F8
:100ED20098E020E4FC01268380E098E023E0FC0116
:100EE200278380E098E0FC01138680E098E0FC0113
:100EF200148680E098E0FC01168680E098E0FC0110
:100F0200158686E098E380930238909303380000B8
:060F1200DF91CF9108956C
:100F18001F920F9200903F000F9211242F938F93EE
:100F28009F93EF93FF93CF93DF93CDB7DEB780E026
:100F380096E020E2FC01258380E096E020E1FC01B8
:100F4800258380E096E028E0FC0125830000DF91FE
:100F5800CF91FF91EF919F918F912F910F900092D8
:080F68003F000F901F90189547
:100F7000CF93DF93CDB7DEB760E080E690E00E94CC
:100F8000480965E181E690E00E94480960E082E658
:100F900090E00E94480960E083E690E00E944809E2
:100FA00060E080E790E00E94480960E088E790E018
:100FB0000E94480960E08CE790E00E944809000028
:060FC000DF91CF910895BE
:100FC60031003200340038003136004E6577204754
:100FD60061696E3A2025730A0D0A0D004375727217
:100FE600656E74204761696E3A2025730A0D004DBF
:100FF6006561737572656D656E743A203078255833
:051006000A0D0A0D00B7
:10100C001F920F9200903F000F9211242F938F93F9
:10101C009F93EF93FF93CF93DF93CDB7DEB780E031
:10102C0096E021E0FC0125830000DF91CF91FF9138
:10103C00EF919F918F912F910F9000923F000F9005
:04104C001F90189544
:101050001F920F9200903F000F9211242F938F93B5
:101060009F93EF93FF93CF93DF93CDB7DEB780E0ED
:1010700090E02FEFFC0123830000DF91CF91FF91DF
:10108000EF919F918F912F910F9000923F000F90C1
:041090001F90189500
:10109400CF93DF931F92CDB7DEB780E096E0FC01DB
:1010A4008385829586958770898389818F5F8983FB
:1010B4008981853009F4198289818295880F807E1F
:1010C400898389810E94EF0800000F90DF91CF91FE
:0210D40008957D
:1010D600CF93DF93CDB7DEB70E94B8070E945002C8
:1010E6000E94AC050E94E2030E94FC020E943606A2
:1010F6000E943A0A0E9459070E942A0A0E9432094F
:081106000000DF91CF91089574
:10110E00CF93DF9300D01F92CDB7DEB789836A836A
:10111E007B8300000E947409982F81E08927882321
:10112E00C9F789810E941A0A80E090E02396CDBF0C
:08113E00DEBFDF91CF9108959F
:10114600CF93DF931F92CDB7DEB780E096E0FC0128
:10115600838582958695877089838981882F90E01B
:10116600880F991F8C5E974CFC01808191810F90AE
:06117600DF91CF91089506
:10117C002F923F924F925F926F927F928F929F929B
:10118C00AF92BF92CF92DF92EF92FF920F931F9389
:10119C00CF93DF93CDB7DEB7CA1BDB0BCDBFDEBF62
:0211AC000994A4
:1011AE002A88398848885F846E847D848C849B84E9
:1011BE00AA84B984C884DF80EE80FD800C811B81F7
:1011CE00AA81B981CE0FD11DCDBFDEBFED0108952D
:1011DE00CF93DF931F92CDB7DEB7898380E096E081
:1011EE0020E036E0F9012385322F3F712981232B30
:0E11FE00FC01238700000F90DF91CF91089530
:10120C00CF93DF9300D01F92CDB7DEB789839A833B
:10121C006B8389819A814B8168ED0E94B90A000029
:0C122C002396CDBFDEBFDF91CF91089567
:10123800CF93DF9300D01F92CDB7DEB789839A830F
:101248006B8389819A814B8168ED0E94B90A0000FD
:0C1258002396CDBFDEBFDF91CF9108953B
:10126400CF93DF93CDB7DEB760E080E191E00E94D9
:101274001C0980E191E0FC01128280E191E0FC0113
:0C1284001382789480E0DF91CF910895F0
:10129000CF93DF9300D01F92CDB7DEB789839A83B7
:1012A0006B8389819A814B8168ED0E94B90A0000A5
:0C12B0002396CDBFDEBFDF91CF910895E3
:1012BC00A0E0B0E0E4E6F9E00C94CE08AE014B5FA0
:1012CC005F4FFA0161917191AF0180910238909159
:0C12DC0003380E946F00E2E00C94E70869
:1012E800CF93DF93CDB7DEB780E098E0FC0184812F
:1012F800882F90E08072992721E0892B09F420E05B
:08130800822FDF91CF910895BF
:10131000CF93DF93CDB7DEB780E098E0FC01848106
:10132000882F90E08074992721E0892B09F020E034
:08133000822FDF91CF91089597
:10133800CF93DF9300D0CDB7DEB789839A838981B5
:101348009A8180931E3890931F3800000F900F9059
:06135800DF91CF91089522
:10135E00CF93DF9300D0CDB7DEB789839A8389818F
:10136E009A81809320389093213800000F900F902F
:06137E00DF91CF910895FC
:10138400CF93DF9300D0CDB7DEB789839A83898169
:101394009A81809322389093233800000F900F9005
:0613A400DF91CF910895D6
:1013AA00CF93DF9300D0CDB7DEB789839A83898143
:1013BA009A81809324389093253800000F900F90DB
:0613CA00DF91CF910895B0
:1013D000CF93DF93CDB7DEB780E491E020E431E036
:1013E000F90120812160FC0120830000DF91CF9171
:0213F00008955E
:1013F200CF93DF93CDB7DEB780E491E020E431E014
:10140200F90120812E7FFC0120830000DF91CF9122
:0214120008953B
:10141400CF93DF93CDB7DEB780E096E0FC018089FF
:101424009189A289B389BC01CD01DF91CF9108953F
:10143400CF93DF931F92CDB7DEB7898380E098E026
:101444002981FC01228300000F90DF91CF91089540
:10145400CF93DF93CDB7DEB780EA90E0FC01108232
:1014640080EA90E0FC01118280E0DF91CF91089541
:10147400CF93DF93CDB7DEB763E080E590E00E94C1
:0A148400060980E0DF91CF91089582
:10148E00CF93DF93CDB7DEB781E080932C38000089
:06149E00DF91CF910895DB
:1014A400CF93DF93CDB7DEB781E080932D38000072
:0614B400DF91CF910895C5
:1014BA00FC010590615070400110D8F78095909515
:0614CA008E0F9F1F089524
:1014D000FC016150704001900110D8F78095909503
:0614E0008E0F9F1F08950E
:1014E600CF93DF93CDB7DEB710922C380000DF9193
:0414F600CF910895F5
:1014FA00CF93DF93CDB7DEB710922D380000DF917E
:04150A00CF910895E0
:10150E00CF93DF93CDB7DEB780912C38DF91CF919B
:02151E0008952E
:10152000CF93DF93CDB7DEB780912D38DF91CF9188
:0215300008951C
:10153200CF93DF93CDB7DEB70000DF91CF9108954F
:10154200CF93DF93CDB7DEB70000DF91CF9108953F
:10155200CF93DF93CDB7DEB70000DF91CF9108952F
:10156200CF93DF93CDB7DEB70000DF91CF9108951F
:08157200FC0164BF40830895F1
:04157A000C940000CD
:0E157E000000000200000000870800000000CE
:0A158C00C68FC88FCA8FCC8FCE8F98
:02000004008278
:090000000000020000C40700002A
:00000001FF
